:020000040800F2
:1000000000200020793A00089D3900089F39000837
:1000100000000000000000000000000000000000E0
:10002000000000000000000000000000A1390008EE
:100030000000000000000000A3390008A5390008F6
:10004000C93A000800000000C93A0008C93A00088F
:10005000C93A0008C93A0008C93A0008C93A000874
:1000600000000000C93A0008AD390008C93A00088C
:10007000C93A0008C93A0008C93A0008000000005F
:10008000C93A0008C539000800000000C93A000854
:10009000C93A0008C93A0008C93A0008C93A000834
:1000A000C93A0008C93A0008C93A0008C93A000824
:1000B000C93A000800000000000000000000000035
:1000C00010B5064C2378002B07D1054B002B02D02E
:1000D000044800E000BF0123237010BD7406002017
:1000E00000000000606A0008044B10B5002B03D02C
:1000F0000349044800E000BF10BDC04600000000F6
:1001000078060020606A00080023C25C0133002AE0
:10011000FBD1581E7047000002B4714649084900DF
:10012000095649008E4402BC7047C04602B471466D
:1001300049084900095C49008E4402BC7047C0462A
:1001400003B47146490840004900095A49008E44E9
:1001500003BC7047002243088B4274D303098B42CF
:100160005FD3030A8B4244D3030B8B4228D3030C87
:100170008B420DD3FF22090212BA030C8B4202D329
:100180001212090265D0030B8B4219D300E0090A51
:10019000C30B8B4201D3CB03C01A5241830B8B425A
:1001A00001D38B03C01A5241430B8B4201D34B0343
:1001B000C01A5241030B8B4201D30B03C01A5241A8
:1001C000C30A8B4201D3CB02C01A5241830A8B422D
:1001D00001D38B02C01A5241430A8B4201D34B0216
:1001E000C01A5241030A8B4201D30B02C01A52417A
:1001F000CDD2C3098B4201D3CB01C01A524183092E
:100200008B4201D38B01C01A524143098B4201D367
:100210004B01C01A524103098B4201D30B01C01A92
:100220005241C3088B4201D3CB00C01A524183080C
:100230008B4201D38B00C01A524143088B4201D339
:100240004B00C01A5241411A00D201465241104699
:100250007047FFE701B5002000F0F0F802BDC0468E
:100260000029F7D076E7704703460B437FD400227E
:1002700043088B4274D303098B425FD3030A8B423A
:1002800044D3030B8B4228D3030C8B420DD3FF22A4
:10029000090212BA030C8B4202D31212090265D072
:1002A000030B8B4219D300E0090AC30B8B4201D325
:1002B000CB03C01A5241830B8B4201D38B03C01A6C
:1002C0005241430B8B4201D34B03C01A5241030BE3
:1002D0008B4201D30B03C01A5241C30A8B4201D394
:1002E000CB02C01A5241830A8B4201D38B02C01A3F
:1002F0005241430A8B4201D34B02C01A5241030AB6
:100300008B4201D30B02C01A5241CDD2C3098B429A
:1003100001D3CB01C01A524183098B4201D38B0117
:10032000C01A524143098B4201D34B01C01A5241BA
:1003300003098B4201D30B01C01A5241C3088B42FF
:1003400001D3CB00C01A524183088B4201D38B00EA
:10035000C01A524143088B4201D34B00C01A52418C
:10036000411A00D201465241104670475DE0CA0F63
:1003700000D04942031000D34042534000229C4623
:1003800003098B422DD3030A8B4212D3FC2289012D
:1003900012BA030A8B420CD3890192118B4208D303
:1003A000890192118B4204D389013AD0921100E065
:1003B0008909C3098B4201D3CB01C01A5241830979
:1003C0008B4201D38B01C01A524143098B4201D3A6
:1003D0004B01C01A524103098B4201D30B01C01AD1
:1003E0005241C3088B4201D3CB00C01A524183084B
:1003F0008B4201D38B00C01A5241D9D243088B42A1
:1004000001D34B00C01A5241411A00D20146634643
:1004100052415B10104601D34042002B00D54942A7
:10042000704763465B1000D3404201B5002000F0E6
:1004300005F802BD0029F8D016E770477047C0469E
:100440008446101C62468C46191C634600E0C04678
:100450001FB500F0F5FF002801D40021C8421FBDE0
:1004600010B500F04FFF4042013010BD10B500F054
:10047000E7FF002801DB002010BD012010BDC046B1
:1004800010B500F0DDFF002801DD002010BD0120C7
:1004900010BDC04610B500F06FFF002801DC002041
:1004A00010BD012010BDC04610B500F065FF00284A
:1004B00001DA002010BD012010BDC046002B11D173
:1004C000002A0FD1002900D1002802D00021C94301
:1004D000081C07B4024802A14018029003BDC046A0
:1004E0005DFFFFFF03B4684601B5029800F006F80F
:1004F000019B9E4602B00CBC7047C046F0B5574603
:100500004E464546DE46E0B5040083B00D009246F7
:1005100099468B422FD82CD04946504601F074FEA4
:1005200029000600200001F06FFE331A9846203B98
:100530009B4600D574E053465A4693401F005346ED
:10054000424693401E00AF4229D826D05B46A41BEA
:10055000BD41002B00DA79E00022002300920193D4
:1005600001235A469340019301234246934000934E
:1005700019E08242D0D900220023009201930C9B03
:10058000002B01D01C605D600098019903B03CBC59
:1005900090469946A246AB46F0BDA342D6D900226A
:1005A0000023009201934346002BE8D0FB0772081A
:1005B0001A4346467B080EE0AB4201D1A2420CD85A
:1005C000A41A9D41012024196D410021013E2418E7
:1005D0004D41002E06D0AB42EED9013E24196D41AB
:1005E000002EF8D15B460098019900196941002B53
:1005F00022DB2B005A46D3402A004446E2401C002E
:100600005B461500002B2CDB26009E4033002600A5
:100610004746BE403200801A994100900191AEE7F2
:10062000424620239B1A5246DA40414613004A466E
:100630008A4017001F4382E7424620239B1A2A0064
:1006400046469A402300F3401343D5E74246202311
:1006500000219B1A0022009101920122DA400192AE
:1006600082E74246202326009B1ADE402F00B44634
:10067000974066463B003343C9E7C046F8B5454658
:10068000DE4657464E460C03E0B54E00C90F88467D
:100690000D00610A440F0C43C70019035800DB0F1B
:1006A0009B464B0A510F0B43760D400D1900D200AB
:1006B000D84500D1AEE0351A002D00DCF6E0002868
:1006C0000FD1134300D1DBE06B1E002B00D037E1CC
:1006D000BA1A9742BF41641A7F42E41B01261700F1
:1006E00024E0C64B9E424DD080231B041943382D75
:1006F00000DD07E11F2D00DD38E12020431B9A4675
:100700000B0050468340994613004846EB4018437F
:10071000030050468240501E8241E9401A43BA1AF3
:10072000611A9742A441170064420C1B230262D550
:100730006402650A002D00D1DFE0280001F046FDCB
:100740000300083B1F2B00DDD2E020223C00D21A20
:100750009D40D4409F4025439E4200DDC4E09E1B47
:10076000731C1F2B00DDF1E0202238002900D21A73
:10077000D840914097402C000143781E8741DC40CF
:1007800000260F437B0709D00F233B40042B05D0E5
:100790003B1DBB42BF417F42E4191F0023022CD501
:1007A000964B01369E4200D19AE04546944BFF0895
:1007B0001C406007760564020743240B760D002178
:1007C0002403230B0C0D8F4A24051C4314403305CE
:1007D00023435B00ED075B082B43380019003CBC4A
:1007E00090469946A246AB46F8BD6446044300D104
:1007F00011E2040067467B07C6D145466007FF0843
:100800000743E4087D4B9E4230D024037605240B39
:10081000760DD4E7331A9A46002B78DD002831D0C4
:1008200076488642AED08020000401435346382BE0
:1008300000DCE9E00A43511E8A410021D219BA4284
:10084000BF4109197C4217000C192302D3D56B4B09
:1008500001369E4200D13AE10120694B1C407B08E1
:1008600007401F43E007074364088BE723003B432F
:1008700000D1CBE18022120314432403240B9EE712
:100880002E007FE70800104300D1B4E0581E002876
:1008900000D0DEE0BA18BA429B4164185B42E4180B
:1008A000170001262302A6D50226D5E7002D6ED11A
:1008B000701C4005400D012800DCF9E0B81A8446A0
:1008C00087428041E51A40422D1A280200D489E06F
:1008D000D71BBA4292411C1B5242A51AD84629E79F
:1008E0004546002400276AE7454CF61A2C4049E7A4
:1008F0003D002838854000272EE7380001F066FCCF
:1009000020301DE70A43511E8A41002107E7002BD2
:1009100000D0F3E0701C43055B0D012B00DCADE063
:10092000364B984200D1D1E0BA18BA42BF416418A0
:100930007F42E419E707520817436408060021E7DD
:100940002E48854200D193E01D00D0E629001F3ECD
:10095000F140202B00D18DE04022D31A9D402F433F
:100960007D1EAF4100240F43002644E72B00080002
:10097000203BD8400300202D00D17DE04020451BC6
:10098000A9400A43511E8A4100211A43C7E6002E9E
:1009900050D01A4EB04257D080266B42994636044A
:1009A00034434B46382B00DDD6E01F2B00DD35E10C
:1009B0002026F51A2600AE40B2463E00DE40AC4688
:1009C000350056462E436546AF407D1EAF41DC40A4
:1009D0003743D71BBA4292410C1B5242A41A06005D
:1009E000D846A3E6644667462C4300D0A2E600251D
:1009F0000026002706E71E00C4E6C046FF070000E9
:100A0000FFFF7FFFFFFF0F801F2B63DC2020C31A37
:100A1000080098409C46834653461000D840030087
:100A20005846184363469A40531E9A415346024320
:100A3000D94003E726003E4306D0EB439946002BFE
:100A4000C7D0944EB042ACD10C0017000600D84677
:100A500098E6904B9A450BD08246E7E6002800D0F6
:100A60009EE01800104300D1E9E01C001700D846B2
:100A7000884E87E6002572E7002182E723003B438A
:100A8000002E00D0ABE0002B00D1E7E00B001343B9
:100A900000D177E6BA18BA42BF4164187F42E41920
:100AA000230200D4F2E07C4B17001C40060069E6EC
:100AB00020003843002ED1D100285BD11C00144304
:100AC00000D1A8E01C001700D8465BE60600002411
:100AD000002797E650460B002038C34099465346FE
:100AE000202B00D195E0402350461B1A99400A4321
:100AF000511E8A414B4600211A439FE6002E30D1F9
:100B000026003E4367D0DB439A46002B1CD0614E43
:100B1000B04260D05346382B00DD96E01F2B00DD3D
:100B20009FE02026F31A26009E409C46B34653467B
:100B30003E00DE4033005E461E4363469F407B1E00
:100B40009F415346DC403743BF1897429241641897
:100B50005242A418060078E627437C1EA7410024D1
:100B600037E74C4EB04236D080265B4236049A4678
:100B70003443CFE71800104300D103E6B81A844687
:100B80006745AD41E01A6D42401B050200D42CE6DA
:100B9000D71BBA4292411C1B5242A41AD846F1E517
:100BA0001800104300D163E7F80867070743802067
:100BB000E4080003044208D0DD08054205D1D2084C
:100BC000590711430F002C00D8467B0FE4001C434B
:100BD000FF00304ED6E50C0017000600D2E5002BD2
:100BE00038D00B00134300D142E7F80867070743EA
:100BF0008020E40800030442E7D0CB080342E4D19C
:100C0000D208490711430F001C00DEE7002700242B
:100C1000D5E500216BE700250027F3E54E462500CA
:100C2000203EF5404B462E00202B2DD04025ED1ABE
:100C3000AC4027437C1EA74100243743C9E68024EB
:100C400000252403134E0027DCE527437C1EA74123
:100C5000002479E70C0017000E4E93E50C001700F6
:100C600090E556462300203EF34099465346202BFC
:100C70000ED0402356469B1B9C4027437C1EA74119
:100C80004B4600241F435FE70024D2E71700B2E57C
:100C90000024F2E7FF070000FFFF7FFFF0B5574693
:100CA0004546DE464E46E0B54C000E0387B083460F
:100CB00092461D008046360B640DCF0F002C4FD09E
:100CC0006F4B9C4235D08023420F1B04F600134328
:100CD00033439946C30098466A4B00269C4600233E
:100CE000644403932B031B0B9B466B00ED0F504694
:100CF0005B0D01955ED0624A934253D05A46D100B3
:100D00008022400F120402430A4393465246D10008
:100D10005C4A94460022634438006840844602904E
:100D2000E41A16430F2E00D9B4E0574BB6009B5976
:100D30009F460300334399466CD100239846023303
:100D400008260393CEE7CB464146039A0197022A31
:100D500065D1019B4A4C9C460023002298466BE0DB
:100D60000300334399464ED0002E00D1BCE1300041
:100D700001F02CFA03000B3B1C2B00DDACE11D2223
:100D8000D31A5A460100DA4008398E401300334323
:100D900099465B468B40984600233C4C0026241A1B
:100DA00003939FE751465A46114329D100229346A7
:100DB0000232B1E7594601431ED05B46002B00D1F9
:100DC0009EE1584601F002FA03000B3B1C2B00DDAC
:100DD0008FE102005946083A91408B461D21CB1AFB
:100DE0005146D9400B0059460B4351469B46914012
:100DF000264B00221B1A8FE7002301229B468BE71C
:100E00005146032288E70023984601330426002434
:100E1000039367E70323B14603930C2662E7032A93
:100E200000D15CE2019B012A00D0E4E113409C4622
:100E3000002300240022984600211203130B0A0D00
:100E400012051A432305124C4046224013436246C2
:100E50005B00D2075B081343190007B03CBC904607
:100E60009946A246AB46F0BD002380229C46120361
:100E70009846034CE0E70023014C00229846DBE74C
:100E8000FF07000001FCFFFF986A00080DFCFFFF50
:100E9000FFFF0F80D94500D939E100D134E10023AB
:100EA00046464D469A46013C5B460A0E1B021A43D3
:100EB0000B02170C039313041B0C390028009046F7
:100EC0000193FFF747F90200019B83465A4328002C
:100ED00039009146FFF7C4F9350C09040D43A945C3
:100EE0000DD95B464544013BA84500D93AE1A945E7
:100EF00000D837E102235B429C464544E3444B461D
:100F0000EB1A390018000493FFF724F9019B050040
:100F10004343390004989946FFF7A2F933040904C2
:100F20001B0C0B43994509D943446A1E984500D9C7
:100F30001AE1994500D817E1023D43444A469B1AFD
:100F40005A4612042A4303999346100C0A0C914600
:100F500009045A46090C4E460D001204120C454372
:100F6000059151437243704352190E0CB2189542C9
:100F700003D980256D02AC466044150C09041204A7
:100F8000090C28185218834200D2CEE000D1C8E0E4
:100F90001D1A53469E1AB24592415242AB1A9A46C6
:100FA000984500D117E139001800FFF7D3F8019BED
:100FB00005004343390050460493FFF751F9049864
:100FC0000B04310C1943884209D941446B1E8845F2
:100FD00000D907E1884200D804E1023D4144049B66
:100FE000CB1A180039000493FFF7B4F8019B82462E
:100FF0004343390004980193FFF732F901980B0439
:101000003104090C194388420DD953464144013B30
:10101000884500D9E8E0884200D8E5E002235B4239
:101020009C464144E244019B2D04CE1A514629437B
:10103000059D4F462A000B04080C1B0C5A434543E0
:101040007B4378435B19170CFB189D4203D980251D
:101050006D02AC4660441D0C12041B04120C2818CF
:101060009B18864200D293E000D18EE00123194301
:10107000A04BE318002B00DC99E04A0700D09EE06B
:101080005A46D20106D55A469B4B1A4080239346B6
:10109000DB00E318994A934268DD0123029A984CD9
:1010A0001A400023944698460022C5E680224B460B
:1010B000120313420AD05B46134206D11A431203AD
:1010C000120BAC4688468E4CB6E64B461A431203CA
:1010D000120BBC468A4CAFE603005A46283B9A40A6
:1010E00000239146984657E6584601F06FF82030A5
:1010F00040E603005246283B9A400021934677E69B
:1011000001F064F820305FE6884500D2C7E64B4620
:10111000DE075D0843465B081E434346DB079A46ED
:10112000C2E60025924500D333E7039E5946B446F4
:10113000E244B245AD416D424544EB180139984552
:1011400007D2984200D97FE000D1BCE01D1A8B463F
:101150001FE79845FAD1039D5545F2D943468B4682
:101160001D1A16E79B46CAE61500E7E65A46C90867
:1011700052070A435B0590465C0D5A4601230299CB
:1011800052021940120B8C4656E6002B00D16FE735
:1011900046444A1EB04529D91100864200D065E771
:1011A000039A934200D061E762E70121494201209E
:1011B000C21A382A21DD029B03409C4638E60F22E2
:1011C0000A40042A00D15BE70A00111D91429241B6
:1011D0005242934454E7474BE318002BE5DD0122CC
:1011E0005242F2E71D00FAE69A461CE7B04239D8AF
:1011F0006ED011003AE702933AE71F2A3CDC202325
:101200009B1A0C005846994098404B1E99415B46EA
:10121000D440D340204308431A00430709D00F238A
:101220000340042B05D00100081D88429B415B420E
:10123000D21813023AD50123029A01241A4000233E
:10124000944698460022F7E5022149428C46039DC8
:10125000E344AC46E244AA45AD416D424544ED1835
:101260002D1A96E68A1E03994D008D428941494206
:101270004144761803958FE71F204042C31A584611
:10128000D8400300202A28D040205D46821A95408D
:1012900029434A1E91411943072300220B4009D0DC
:1012A0000F2300220B400800042BBDD1010053077F
:1012B0005202120BC90819430123884602990024DF
:1012C00019408C46B8E55245BED88B46002560E6ED
:1012D000039D9D42C6D3110062E70025D8E7802216
:1012E0005B4612031A43019B1203120B9C4688466D
:1012F000034CA1E5FF030000FFFFFFFEFE07000017
:10130000FF070000F0B54F464646D6465C00C0B524
:101310001F03DB0F9A46174B0E034D008446804691
:10132000360B6D0DC90F91463F0B640D01209D4298
:1013300008D09C4201D0A5420BD01CBC90469946D7
:10134000A246F0BD63463343F7D1AC42F5D13A43F0
:10135000F3D10120BE42F0D1C845EED1514507D0AE
:10136000002DEAD163461E433000461EB041E4E73B
:101370000020E2E7FF070000F0B54546DE4657468D
:101380004E46E0B51F033D0B2C4F0E034C00AB4601
:101390005D008446360B640DC90F90466D0DDB0F62
:1013A000BC422AD0254FBD422DD0002C0FD1304356
:1013B0000700814678427841C0B2002D17D15F46C0
:1013C0003A4314D14B460020002B0AD006E0002DF2
:1013D00002D15846024301D0994218D04842012117
:1013E00008433CBC90469946A246AB46F0BD002857
:1013F000F2D00120013B1843F3E737000743D1D077
:1014000002204042EDE75F461743CED0F8E7AC42FA
:10141000E4DC03DA481E01210843E2E75E45DDD83B
:1014200006D000205E45DCD20123481E1843D8E7D1
:10143000C445D3D80020C445F6D3D2E7FF07000047
:10144000F0B54E464546DE4657465C00E0B51F0304
:10145000DB0F99462A4B0E034D00C90F8446360B0D
:101460006D0D8B4690463F0B640D9D4220D0244B62
:101470009C4222D0002D12D1304343424341DBB283
:10148000002C1FD0002B0CD04B460120013B034306
:1014900018003CBC90469946A246AB46F0BD002CD5
:1014A00016D0CB4517D05B46594201230B43EFE7DB
:1014B000310002230143EBD1D9E739000223114364
:1014C000E6D1D7E73A43DDD100230028E0D0EAE7B0
:1014D0003A43E6D1E7E7A542E5DC05DBBE42E2D8C8
:1014E00007D00023BE42D3D25946012301390B4312
:1014F000CEE7C445D7D80023C445F5D3C8E7C046D6
:10150000FF070000F0B557464546DE464E46E0B5BB
:101510000C0398464E00230B87B0070092469B466B
:10152000760DCD0F002E6BD06D4B9E4235D08024B2
:101530005B46420F2404DB0014431C43C30099465E
:10154000684BA3469C46002300276644029343460B
:101550001C035A00DB0F5046240B520D984600D155
:1015600076E05F4B9A426DD08023410F1B040B4302
:101570005C49E4008C461C43C300002062444146A1
:10158000B6186940721C0191944607430F2F00D989
:10159000B0E0554ABF00D25997465B46034399468F
:1015A00000D087E000239B46023308270293CEE752
:1015B00042460192022867D0032800D10EE201289A
:1015C00000D062E1002300240022994601990140E5
:1015D000CDB2002112030B0D120B1B051343434A1E
:1015E000240513401C436400ED0764082C4348465F
:1015F000210007B03CBC90469946A246AB46F0BDE0
:10160000034399464FD05B46002B00D189E15846F1
:1016100000F0DCFD03000B3B1C2B00DD7AE11D22FA
:10162000D31A3A0001005C46DA4008398C401300B6
:101630008F4023439B46B94600232D4E0027361A80
:10164000029384E7534623432AD10024022096E7DD
:101650005346234320D0002C00D157E1200000F056
:10166000B5FD03000B3B1C2B00DD49E11D21CB1A0E
:1016700051460200D9405346083A944093400C43E7
:101680001B4A121A00207AE70125019B144C1D40C9
:101690000023002299469CE70024002201206EE7E7
:1016A000534603206BE700239B46013304270026A3
:1016B00002934CE7032381460C27029347E78022DD
:1016C0000023002512039946054C82E75C464B46F1
:1016D00002986FE75C464B46019502986AE7C04660
:1016E000FF07000001FCFFFFD86A0008FFFF0F8022
:1016F0000DFCFFFF4A464946170C1A0C1B041B0C35
:1017000008041900000C41431500884619007D4368
:101710007943039589462900150045434D440295B8
:1017200045462D0CAA46029D5544A94506D98A4630
:10173000802149028946CA4451460391290C0491EB
:10174000414609042D04090C88462900250C24046F
:101750004144240C059121004143884621007943EE
:101760008A466843414650448146080C48446F43CA
:10177000824503D98021490289464F44010C89469C
:1017800039004944029141460F0404993F0C8846B0
:101790000004C01980444146049159460F0C0904C5
:1017A000090C884659438A463900514389464146C7
:1017B0004A435146090C8B467B43D2185A44934204
:1017C00003D980235B029B46D94451460904090C86
:1017D0008A46414661437C43130C12044B445244F5
:1017E000A1468A463C0041466C434D4351464D4418
:1017F0000F0C7D19A94503D980214902884644442C
:10180000049F0399B84641448B4683458041414239
:101810008846514608042F04000C3F185846029988
:1018200010188946904292414F44BA465242994616
:101830009346C244D144CB448F42BF41C245894103
:1018400099459B41934592417F4249422D0C52421A
:101850000F435B4213437F19FF185B463C19DB0DB6
:10186000059A64021C43430213435D1EAB415A4672
:10187000C00D034352021343E20156D501205A081A
:1018800003401343E207134364085A4860440028A6
:101890004DDD5A0709D00F221A40042A05D01A1D1F
:1018A0009A429B415B42E4181300E20104D5802078
:1018B000514AC00014406044504A904200DDE3E6C3
:1018C0000125DB0862071A436402019B9146220B43
:1018D0004405640D1D407CE68022594612031142E6
:1018E00008D0144206D122431203120B45469946F2
:1018F000434C6EE65B461A431203120B404C68E6FB
:1019000003005446283B9C400023B9E600F05EFCEF
:101910002030A6E60300283B9F400023BB469946A3
:101920008AE600F053FC203074E6B446ADE70125AA
:101930002A1A382A06DD019B00241D4000230022BC
:10194000994646E61F2A21DC20252000AD1A1E00FC
:10195000AB40A840D6405D1EAB4130431843D44055
:10196000430709D00F230340042B05D00300181DA3
:1019700098429B415B42E418230221D50125019B3B
:1019800001241D4000230022994622E61F25210044
:101990006D42281AC1400800202A1DD05F35AA1ABE
:1019A000944023435C1EA341072503431D400022AE
:1019B000002D09D00F2200241A401800042AD6D185
:1019C000030065076402220BDB082B4301259946BF
:1019D000019B00241D40FCE50024E2E78022012554
:1019E0001203224301991203120B0D409946044C35
:1019F000EFE5C046FF030000FFFFFFFEFE0700000B
:101A0000FF070000F0B54646D6464F460C03C0B56A
:101A1000CD0F4E00610A440F0C43C1005800400D29
:101A200084468A460F001903500F490A0143C648ED
:101A3000760DA846DB0FD200844500D1D8E0012006
:101A40004340AB4200D1A6E06046351A002D00DCD1
:101A500005E1002810D10B00134300D1D7E06B1E25
:101A6000002B00D04BE153469F1ABA458041641ABF
:101A70004042241A01261EE0B34B9E4248D08023E8
:101A80001B041943382D00DD19E11F2D00DD4CE149
:101A900020230F005B1B10009A409F40E840531E1C
:101AA0009A41E940074317435346DF1B611ABA4581
:101AB000A44164420C1B230200D4C5E06402650A01
:101AC000002D00D1F6E0280000F080FB0300083B69
:101AD0001F2B00DDE9E020223C00D21A9D40D440BB
:101AE0009F4025439E4200DDDBE09E1B731C1F2BA5
:101AF00000DD0AE120223800D21A290097402C008C
:101B00009140D8407A1E9741DC40002601430F43A4
:101B10007B0709D00F233B40042B05D03B1DBB4264
:101B2000BF417F42E4191F00230225D5864B0136B1
:101B30009E4200D1AFE0854B01251C404346620721
:101B4000FF08640276051743240B760D1D40002123
:101B50002403230B0C0D7E4A24051C43144033053B
:101B600023435B00ED075B082B43380019001CBCC6
:101B700090469946A246F0BD012543466207FF08FC
:101B80001743E4081D40704B9E4236D0240376056F
:101B9000240B760DDBE76346F31A002B00DC94E0A0
:101BA0006046002835D068488642B1D080273F047F
:101BB0003943382B00DCFDE00A43170000217A1E70
:101BC0009741574457458041091944420C19230253
:101BD0003AD55D4B01369E4200D14BE101225B4B71
:101BE0001C407B0817401F43E207174364088FE738
:101BF0000800104300D024E721E723003B4300D135
:101C0000B9E18022120314432403240B9FE72E0022
:101C10007EE70800104300D1CAE0581E8446002821
:101C200000D0E7E0524452458041641840422418F5
:101C300017000126230207D50226CFE764462C436E
:101C400000D1B3E12C0067467B0700D062E7630751
:101C5000FF081F4301254346E4081D4093E7002D7C
:101C600078D1751C6D056D0D012D00DCF2E050463C
:101C7000801A8245BF41651A7F42ED1B84462802C7
:101C800000D48CE05046171ABA4292410C1B5542C0
:101C9000651B984614E70125434600241D40002794
:101CA00055E72A4CF61A2C4032E73D00283885408B
:101CB000002717E7380000F089FA203006E70A43CA
:101CC000170000217A1E9741EEE6002B00D0E5E0D8
:101CD000731C9C465B055B0D012B00DC9FE01A4BDF
:101CE0009C4500D1C5E052445245804164184042B1
:101CF0002418E707520817436408664608E71248A5
:101D0000854200D185E01D00BCE629001F3EF14060
:101D1000202B00D17FE04022D31A9D402F437D1E0F
:101D2000AF4100240F4300268EE72B000F00203B1D
:101D3000DF40202D71D040235D1BA9400A43511E76
:101D40008A4100211743AFE6FF070000FFFF7FFF36
:101D5000FFFF0F80002E3ED0B34EB44545D0802605
:101D600036046D423443382D00DDA8E01F2D00DD20
:101D70001FE1202627005046761BB740E840074366
:101D80005046B040461EB041EC403843171ABA42A4
:101D900092410C1B5242A41A664698468BE6644652
:101DA00067462C4300D08BE6002500260027EAE694
:101DB0001E00ADE61F2B60DC2027F81A0F008446BA
:101DC00087401000D840074360468240501E824141
:101DD000D9401743F5E626005046064305D0ED43AB
:101DE000002DD3D0904EB445BDD10C0017006646EF
:101DF00098468DE68C4883420BD06346D9E6002D89
:101E000000D096E00800104300D1E2E00C0017007B
:101E10009846854E7CE6002580E700218EE723006A
:101E200050460343002E00D0A8E0002B00D1DEE096
:101E30000B00134300D16BE65244524580416418B5
:101E4000404224181700230200D4FDE6774B664673
:101E50001C405DE6250050460543002ECFD1002DE5
:101E60004FD10C00144300D1A0E00C00170098469D
:101E70004EE666460024002785E61F000800203F46
:101E8000F8400700202B00D18EE04020C31A994073
:101E90000A43511E8A410021174392E6002E14D1B5
:101EA00026005046064362D0DB43002B5CD18718E6
:101EB0009742924164185242A418664687E65046FB
:101EC0002043441EA041002460E7574EB4454ED045
:101ED000802636045B423443382B00DD7FE01F2B25
:101EE00000DD8BE0202627005046F61AB740D84088
:101EF00007435046B040461EB0410743DC40BF1880
:101F0000D6E70D00154300D102E65046801A8245FF
:101F1000BF41651A7F42ED1B8446280200D48DE63E
:101F20005046171ABA4292410C1B5242A41A9846C4
:101F3000EEE50D00154300D16BE750466707C0087A
:101F400007438020E4080003044207D0CD0805427F
:101F500004D12C009846D70849070F437B0FE400B3
:101F60001C43FF00304ED3E52F4EB445B4D10C00D6
:101F700017006646CCE500270024E8E5002B39D0A1
:101F80000B00134300D144E7C008670707438020D4
:101F9000E40800030442E1D0CB080342DED1D708B5
:101FA00049070F431C00D9E7002171E700250027EE
:101FB000E9E52E002700203EF740202D2FD04026B7
:101FC000751BAC4050462043441EA04100243843BA
:101FD000DCE6802400252403134E0027D3E5504679
:101FE00020430700781E87410024BF1860E70C00DB
:101FF00017008DE50C0017000B4E89E51E00270029
:10200000203EF740202B0CD04026F31A9C4050462F
:102010002043441EA04107430024BF1848E7002482
:10202000D0E70024F3E7C046FF070000FFFF7FFF73
:1020300070B50E4E0D031C0349005B002D0B490DBE
:10204000240B5B0DB14204D0084900208B4208D01C
:1020500070BD05430120002DFAD1044900208B42B8
:10206000F6D114432000441EA041F1E7FF07000011
:1020700030B5134D0A034B00120B5B0DC90F002442
:10208000AB4210DD0F4CA3420FDC80240E4D6403E5
:102090002243ED1A1F2D0BDD0C48C31ADA405442BF
:1020A000002900D11400200030BD094BCC18FAE7FC
:1020B000084CE840A44663449A400243EFE7C04618
:1020C000FE0300001D0400003304000013040000A0
:1020D000FFFFFF7FEDFBFFFF70B5002830D0C31777
:1020E000C4185C40C50F200000F070F8174B184A68
:1020F0001B1AD21A1F2A18DD164AD21A944000223F
:1021000024035B05240B5B0D0021100024030A0D42
:10211000240B12052243104C1B05224013435B0085
:10212000ED075B082B43190070BD210091400A00A8
:102130000B21081AC4405B052403240B5B0DE3E765
:102140000025002300240022DEE7C0461E04000014
:102150003304000013040000FFFF0F8010B5041EBD
:1021600028D000F033F8154B154A1B1AD21A1F2A33
:1021700015DD144AD21A9440002224035B05240B77
:102180005B0D0021100024030A0D240B12052243CD
:102190000D4C1B05224013435B00590810BD210064
:1021A00091400A000B21081AC4405B052403240B4C
:1021B0005B0DE6E7002300240022E2E71E04000096
:1021C0003304000013040000FFFF0F801C210123D3
:1021D0001B04984201D3000C10391B0A984201D30A
:1021E000000A08391B09984201D30009043902A2E8
:1021F000105C40187047C04604030202010101014F
:10220000000000000000000010B5002903D1FFF716
:10221000DDFF203002E0081CFFF7D8FF10BDC046EC
:1022200010B5040000F06AFCFA218900FDF792FF66
:1022300000F060F8012000222100404200F020F868
:10224000002010BD1023064A10B5116800200B4372
:102250001360FFF7E5FF01F0E5FA002010BDC0466E
:1022600000200240024A1368013313607047C046E1
:102270000C070020014B18687047C0460C0700206F
:1022800070B58901002814DA0F23C0B20340083B5F
:10229000114A9B089B009B18032210409040FC327F
:1022A0001500114085408140DC69AC432143D96170
:1022B00070BD032583082840A840FC352E00074A3E
:1022C0009B009B18C02286402940814092009C5868
:1022D000B44321439950EBE700ED00E000E100E05A
:1022E0001F2318401E3B8340014A13607047C046BD
:1022F00000E100E0094A431E012093420DD8C021AD
:10230000074A08485360036A09061B021B0A0B436D
:10231000036200200723906013607047FFFFFF00F7
:1023200010E000E000ED00E070B504000120002C9A
:1023300028D002232068A51CEB770268124BA16805
:102340001A4063680B43E1680B4321690B436169E1
:102350000B43A1690B43E1690B43134303600B4B30
:102360001421C018FDF7F6FE094B80002064E363DA
:1023700000200123A062E06220636063A063E41890
:10238000EB77E07770BDC0460FC0FFFFF8FFFDBFE1
:1023900000000240F8B504273E00016CC26B8E407D
:1023A000156803681C682E420DD03C420BD019689A
:1023B000890602D41968B9431960C36A5660002BB4
:1023C00019D0984717E002273E008E402E4213D0C6
:1023D0003C4211D01968890606D40A241968A14321
:1023E00019600121C319D97756600022431CDA779E
:1023F000836A9342E5D1F8BD082637008F403D42FD
:10240000F9D03442F7D00E251C68AC431C60012380
:102410001C008C405460821C8363D3770022C31855
:10242000DA77036BE5E70000F0B50B6887B002933D
:1024300000230191029ADA4001D107B0F0BD0122D8
:102440009A4003920399029A0A40009200D18CE0CC
:10245000019A1021526816008E43022E0ED10725D4
:102460001D40AD000139A940DC08A4000419276A09
:102470008F4301990969A9400F43276203245F0034
:10248000BC40E4430568013E2540AC4603251540A9
:10249000BD4061460D430560012E0FD80199866845
:1024A000CD682640BD4035438560466803991509CF
:1024B0008E4301210D409D4035434560C56801991B
:1024C0002C408D688021BD4049052C43C4600A42E0
:1024D0004BD00121264C0326A5691E400D43A56162
:1024E000A4699D080C400594059C0F242149AD006A
:1024F000B6006D18B4409021AF68C905A743002409
:1025000088420CD01C490134884208D01B49013450
:10251000884204D01A490334884200D1023CB440B6
:1025200000993C430E00AC60164CCD4327683E43F7
:10253000D10301D43E002E4026606768009E3E43D2
:10254000910301D43E002E406660A768009E3E4382
:10255000D10201D43E002E40A660E668009F3743BA
:10256000920201D42E403700E760013362E7C04693
:10257000001002400000014000040048000800482C
:10258000000C00480004014000690840411E8841D9
:10259000C0B27047002A01D0816170478162FCE7B8
:1025A0004369594041617047F0B5036885B0050043
:1025B000DB072FD42B689B0700D581E02B681B0716
:1025C00000D5BCE02B685B0700D5DFE02B68DB069D
:1025D0001AD56A69B54C0423012A00D04BE1616B1E
:1025E00002260B436363636B1A436263FFF742FE89
:1025F0000700636B334200D136E1F821626BAB69AF
:102600008A43DB0013436363296A002900D059E140
:10261000002013E00C21A54C62680A40042A06D071
:1026200063680B40082B0BD16368DB0308D5236874
:102630009B03BFD56B68002BBCD1012005B0F0BD5A
:102640006B68012B13D1802322685B021343236044
:10265000FFF710FE80260700B60223683342A9D197
:10266000FFF708FEC01B6428F7D90320E6E7002B1C
:1026700016D123688E4A80261340236023688D4A32
:10268000B60213402360FFF7F5FD070023683342CD
:1026900000D18FE7FFF7EEFDC01B6428F6D9E4E711
:1026A000052B05D180232268DB0213432360CAE790
:1026B00023687F4A1340236023687E4A1340C6E79D
:1026C0000C227A4C6368134206D063681340082BCF
:1026D00010D16368DB030DD423689B0702D5EB6838
:1026E000012BAAD1F82122682B698A43DB0013430E
:1026F000236063E7EA680123002A0FD022680226DC
:1027000013432360FFF7B6FD070023683342E9D186
:10271000FFF7B0FDC01B0228F7D9A6E72268022602
:102720009A432260FFF7A6FD07002368334200D1D9
:1027300044E7FFF79FFDC01B0228F6D995E7EA6939
:1027400001235A4C002A10D0626A022613436362A6
:10275000FFF790FD0700636A334200D032E7FFF7CE
:1027600089FDC01B0228F6D97FE7626A02269A43D8
:102770006262FFF77FFD0700636A334200D121E701
:10278000FFF778FDC01B0228F6D96EE780220021F2
:10279000464C5205E3690091134208D1E3691343A3
:1027A000E361E36913400393039B012300938027B4
:1027B000414E7F0033683B4206D0AB68012B13D1FA
:1027C000226A1343236230E033683B433360FFF7F0
:1027D00051FD019033683B42EFD1FFF74BFD019B68
:1027E000C01A6428F6D940E70122002B14D1236ACD
:1027F000022793432362236A033293432362FFF742
:1028000039FD0600236A3B4225D0FFF733FD2B4BF1
:10281000801B9842F6D928E7052B0BD1216A013B92
:102820000B432362236A1A432262FFF723FD022728
:1028300006000DE0236A934304222362236A934334
:10284000C0E7FFF717FD1D4B801B984200D90CE72E
:10285000236A3B42F5D0009B012B00D0B6E6E3692A
:10286000174A1340E361B1E6FFF704FDC01B0228DD
:1028700000D8BEE6F9E6053203D1626B9A43626383
:10288000BBE6626B0226134301226363636B9343CF
:102890006363FFF7EFFC0700636B334200D1B3E6DD
:1028A000FFF7E8FCC01B0228F6D9DEE60010024064
:1028B000FFFFFEFFFFFFFBFF0070004088130000DA
:1028C000FFFFFFEF0C22264C012063681340082B0A
:1028D00000D1B3E62368234A1340236002292FD195
:1028E000FFF7C8FC80260700B6042368334221D1D5
:1028F0000F22E36A9343EA6A1343E362696AAB6AAD
:1029000062680B43184980250A40134363608023A3
:1029100022685B0413432360FFF7ACFC0600AD04A0
:1029200023682B4200D073E6FFF7A4FC801B02282B
:10293000F6D99AE6FFF79EFCC01B0228D5D994E68B
:10294000FFF798FC80250600AD0423682B4200D1D8
:102950005EE6FFF78FFC801B0228F6D985E6C046AD
:1029600000100240FFFFFFFEFFFFC2FF70B5144CD6
:1029700088B010222100684601F0D2F8210004AD91
:1029800010221031280001F0CBF80C220D4E736894
:102990001A40082A11D10F206A46990C0140545C54
:1029A000F26A0240A95CDB0305D50748FDF7D2FBBC
:1029B000604308B070BD0548FAE70348F9E7C04630
:1029C000786A00080010024000127A0000093D00F9
:1029D000F7B50122434C060023680F0013408B42D9
:1029E0001CD33268930723D4D30729D40123226848
:1029F0001A40974267D333683B4C5B076AD4FFF7B2
:102A0000B5FF6368394A1B061B0FD35CD840384BAF
:102A100018600020FFF704FC002008E023689343BF
:102A20000B432360236813409942DAD00120FEBD96
:102A3000F0202D494B688343B06803434B60D3E7D4
:102A4000294D72682B68012A1AD19B03EED5032108
:102A50006B688B4313436B60FFF70CFC736801904A
:102A6000012B15D10C226B681340042BBED0FFF74D
:102A700001FC019BC01A1F4B9842F3D90320D6E7F3
:102A8000022A02D19B01E2D4D0E79B07DFD4CDE735
:102A9000022B12D00C226B681342A7D0FFF7EAFB7F
:102AA000019BC01A134B9842F4D9E7E7FFF7E2FB0A
:102AB000019BC01A0F4B9842E0D80C226B68134060
:102AC000082BF3D192E722689A43226022681A42C7
:102AD000ACD190E76368084A1340F268134363601F
:102AE0008DE7C0460020024000100240C86B00087D
:102AF0000000002088130000FFF8FFFF014B18685A
:102B00007047C04600000020044B054A5B685B0527
:102B10005B0FD35C034A1068D84070470010024036
:102B2000D86B000800000020F0B5036885B00500F0
:102B3000DB0328D580220021374C5205E369009140
:102B4000134208D1E3691343E361E369134003933C
:102B5000039B012300938027304E7F0033683B4264
:102B600026D0C022236A920013402D4E32D1236A10
:102B70001E406B681E43009B2662012B03D1E36954
:102B8000284A1340E3612A68D30706D50320224967
:102B90000B6B8343A86803430B630020930617D590
:102BA00010211D4A136B8B43E9680B4313630FE03D
:102BB00033683B433360FFF75DFB019033683B4272
:102BC000CFD1FFF757FB019BC01A6428F6D9032029
:102BD00005B0F0BD69680A409342C8D08023226ADC
:102BE000206A11005B0203432362236A0E483140CE
:102BF000034023622162D307B9D5FFF73BFB0700EF
:102C00000222236A1342B2D1FFF734FB074BC01BE9
:102C10009842F5D9DBE7C046001002400070004042
:102C2000FFFCFFFFFFFFFFEFFFFFFEFF8813000029
:102C300001220368D96800201143D96019680A434A
:102C40001A6070477047704770477047704702229C
:102C5000036810B51969040011420ED0D9681142F9
:102C60000BD0053A1A619B69043202779B0700D1A9
:102C700079E0FFF7E9FF002323770422236819692D
:102C8000114210D0D96811420DD0093A1A610732A9
:102C900022779A69C0239B0020001A4269D0FFF76F
:102CA000D3FF0023237708222368196911420ED02D
:102CB000D96811420BD0113A1A61DB690D322277C3
:102CC00020009B075BD0FFF7BFFF00232377102274
:102CD00023681969114210D0D96811420DD0213AE8
:102CE0001A6119322277DA69C0239B0020001A4248
:102CF0004BD0FFF7A9FF002323770122236819692E
:102D0000114207D0D968114204D0033A1A61200059
:102D1000FFF798FF802223681969114208D0D9680B
:102D2000114205D0023AFF3A1A61200000F098F8EB
:102D3000402223681969114207D0D968114204D092
:102D4000813A1A612000FFF781FF20222368196968
:102D5000114207D0D968114204D0413A1A612000CB
:102D600000F07DF810BDFFF76EFF2000FFF76DFF4C
:102D700081E7FFF768FF2000FFF767FF91E7FFF7A4
:102D800062FF2000FFF761FF9FE7FFF75CFF200075
:102D9000FFF75BFFAFE700001C4A10B503689042E5
:102DA00002D01B4CA04208D17024A3434C6823439B
:102DB00090420ED0164CA0420BD0164CA04208D028
:102DC000154CA04205D0154CA04202D0144CA04294
:102DD00003D1144C2340CC6823438024A3434C6983
:102DE000234303608B68C3620B688362904208D000
:102DF000094B984205D0094B984202D0084B9842A3
:102E000001D10B6903630123436110BD002C014014
:102E10000004004000200040004001400044014008
:102E200000480140FFFCFFFF70B504000120002CAA
:102E300014D025003D352B78DBB2002B05D12200C4
:102E40003C321370200000F005FD022320682B7037
:102E5000211DFFF7A1FF012300202B7070BD7047DB
:102E60007047000070B504000568C2698368006996
:102E70002968034360693F4E03433F4813430140C1
:102E80000B432B606B683D49206A0B40E1680B43A4
:102E90006B60A369A9680343394801400B43AB60E9
:102EA00080231B02B54210D103203649096B014033
:102EB0003548405C9A4213D0082858D8FDF736F9B7
:102EC000375742574B575757500030498D424CD1D6
:102ED0009A422CD1FFF718FE636840005B080BE0B4
:102EE000082821D8FDF718F9F62005201820202001
:102EF0001B0063685808264BC0186168FDF72AF963
:102F000083B200200F22190091430A001B07216899
:102F10005B0F1343CB6070BDFFF728FDDCE76368F0
:102F2000580880235B02E7E701200023EAE7FFF768
:102F3000EBFD61684B081818FDF70CF980B2E860EA
:102F40000020E8E76168134B4808C018FDF702F954
:102F500080B2F060F4E7FFF709FD61684B08F4E721
:102F6000802361681B024808EFE79A42DCD0012009
:102F7000D1E7C04600380140F369FFFFFFCFFFFFF4
:102F8000FFF4FFFF00100240186B000800440040EF
:102F90000024F40000127A00436A30B5DA0706D53F
:102FA0000168284C4A682240846A22434A609A0792
:102FB00006D50168244C4A682240C46A22434A600C
:102FC0005A0706D50168214C4A682240046B224307
:102FD0004A601A0706D501681D4C4A682240446BB6
:102FE00022434A60DA0606D501681A4C8A682240F4
:102FF000846B22438A609A0606D50168164C8A685B
:103000002240C46B22438A605A0610D50168134DD2
:103010004A68046C2A4022434A6080225203944248
:1030200005D14A680E4C2240446C22434A601B067C
:1030300006D502680B4953680B40816C0B43536003
:1030400030BDC046FFFFFDFFFFFFFEFFFFFFFBFFA0
:10305000FF7FFFFFFFEFFFFFFFDFFFFFFFFFEFFF40
:10306000FFFF9FFFFFFFF7FF70B5041E01D1012096
:1030700070BD050069352B78DBB2002B04D102004E
:103080006832137000F002FC2423012122682B70A7
:10309000136820008B431360FFF7E4FE0128E6D09D
:1030A000636A002B02D02000FFF776FF23680B49EC
:1030B0005A6800200A4008215A609A688A439A6038
:1030C000012219680A431A6022002023E0666A324E
:1030D00068342B7013702070CAE7C046FFF7FFFFFB
:1030E000F8B504000E0015001F002268D3693340B4
:1030F0009B1B59424B41AB4201D0002018E0069B7C
:103100000133F3D0069B002B13D123680C491A68B6
:1031100003200A401A609A68A331FF318A439A60FB
:103120002200202369321370537000236834237007
:10313000F8BDFFF79FF8069BC01B8342D5D2E4E79A
:103140005FFEFFFFF0B5070085B0039369373B785A
:1031500004000D0016000220202B46D10138002962
:1031600043D0002A41D08023A2685B019A4204D157
:103170002369002B01D1014237D1230068331A782B
:103180000220012A31D001221A700023E366213384
:103190003B70FFF76FF8230050331E805E8080265F
:1031A00002907601210052310A8892B2002A0DD194
:1031B000039B402100932000029BFFF791FF002812
:1031C00012D1202368343B7020700EE00B8800225F
:1031D000013B9BB20B80039B802100932000029B4C
:1031E000FFF77EFF002802D0032005B0F0BDA368E2
:1031F0002268B34208D12369002B05D12B88023500
:10320000DB05DB0D1385CDE72B7801351385C9E789
:10321000802110B5002209011648FFF7BBF9F520FF
:10322000400000F073F98021012209011148FFF7E5
:10323000B1F9462000F06AF980210E480901FFF734
:10324000A3F98021040009010A48FFF79DF9020053
:1032500001280CD190202021C005FFF79BF9FA200E
:10326000400000F053F9601E8441E0B210BD00221E
:10327000F0E7C0460004004870B580250E4C2D01D3
:10328000290000222000FFF785F9022000F03EF916
:10329000012229002000FFF77DF90D2000F036F90A
:1032A00029002000FFF770F904002D2000F02EF90E
:1032B000601E8441E0B270BD00040048802110B55A
:1032C0000022040009010B48FFF764F90320002CD9
:1032D00000D13E3000F01AF9802106480122090190
:1032E000FFF758F94120002C00D13E3800F00EF9CC
:1032F00010BDC0460004004870B50600002401253A
:10330000300020412840FFF7D9FF0134052000F0AC
:10331000FDF8082CF4D170BDF7B5334B01901B7844
:10332000002B04D1FFF774FFF020FFF7E5FF012722
:1033300000263D000096FFF79FFF0400FFF79CFF6B
:10334000012C1AD1012833D1284B402D44D96A468B
:1033500012781A70009A002A02D1234901320A70A9
:10336000234A1178002937D00023D15C0198C15439
:103370000133082BF9D1012034E01D4B84420FD1D9
:103380001A4A1478A5420FD29C5D3C40621E9441BB
:10339000E4B2002C0CD10095082D01D8154A157007
:1033A0009A5DBA439A5508E02C1B62425441EFE7FC
:1033B00001240F4A935D3B4393557F002000013564
:1033C000FFB2FFF77BFFEDB2002F02D10136F6B25C
:1033D0000137072EAFD9B7E700201870024B1870DD
:1033E000044B1870FEBDC046190700201A070020C4
:1033F0001007002018070020F7B50825002825D160
:10340000FFF706FF041E02D001242000FEBDCC20E1
:10341000FFF772FF4E20FFF76FFF6420FFF76CFF8E
:103420009E20FFF769FF7F20FFF766FFEDE720781A
:103430001C4B0130C0B220700138C000181808229F
:103440006946013D00F06CFB002D05D06846FFF792
:1034500063FF154C0028EAD1012623789E4201DD46
:103460000024D2E7FFF7D4FE051ECDD15520FFF78B
:1034700043FFF700EB190B4A083BD05C0135FFF71F
:103480003BFF082DF6D14E20FFF736FF6420FFF7F3
:1034900033FF9E20FFF730FF7F20FFF72DFF01361F
:1034A000DBE7C046940600202407002070B51026F4
:1034B00094B03022002108A800F03BFB320000212C
:1034C000684600F036FB3200002104A800F031FB12
:1034D000A023022401259B0308A8089410941293AA
:1034E0000B950C96FFF760F8072301940024290040
:1034F0006846009302940394FFF76AFA04A80495BF
:103500000694FFF711FB14B070BD000010B50A213E
:10351000FCF7AAFE024B18601A68002AFCD110BD05
:1035200090060020F0B591B0FEF78CFEFFF7BEFFCD
:10353000142200210BA800F0FCFA8021A24D0903FF
:103540006A6990260A436A616B6990200B4080216A
:103550000793079B6A69C9030A436A616B698027FD
:103560000B4080210893089B6A6989020A436A61BB
:103570006B6976000B4080210993099B6A69C90237
:103580000A436A616B693F010B400A9331000022D4
:10359000C0050A9BFEF7FEFF002239008B48FEF7AC
:1035A000F9FF802300249B010B93894B0BA98948C9
:1035B0000C930D94FEF738FF90200B96203EFF3EB3
:1035C0000BA9C0050D940E940C96FEF72DFF112348
:1035D0000BA90C937D480E3B0B970D940E93FEF7B1
:1035E00023FF6B69220033436B616B692100334019
:1035F0000B930A200B9BFEF743FE0A20FEF770FE9A
:103600007548764B0C27036096239B0143608460CA
:10361000C460046147618461C46104624462FFF76D
:1036200023FD6F4D6F4B28002B6096231B026B60B0
:10363000AC60EC602C616F61AC61EC612C626C621F
:10364000FFF712FD684F694B38003B602F237B600A
:10365000263BFB60BC60BC61FFF7E6FB3800FFF770
:10366000E7FA3000FFF7C8FE614C624B02001870A9
:103670006149200000F066FA2000FCF745FD802338
:1036800082B25B0121002800FFF75CFD5B4B5C49C7
:103690001A78200000F056FA2000FCF735FD802350
:1036A00082B25B0121002800FFF74CFD554B1E70D4
:1036B000544D524B2A781B7893420ED290256424A5
:1036C000ED0520212800013CFEF76AFFE4B20A2044
:1036D000FFF71CFF002CF4D1FEE7454C4A492000BF
:1036E00000F030FA2000FCF70FFD80233C4F82B23F
:1036F0005B0121003800FFF725FD2A78434E013A8F
:10370000D200B118C8794B78925D05908879049001
:103710004879039008790290C87801908978200050
:1037200000913B4900F00EFA2000FCF7EDFC8023ED
:1037300082B25B0121003800FFF704FD2B78354988
:10374000013BDB009A5D200000F0FCF92000FCF753
:10375000DBFC802382B25B0121003800FFF7F2FC22
:1037600029780139C900711848784B798A79039012
:1037700088780290C8780190097920000091264944
:1037800000F0E0F92000FCF7BFFC802382B25B016F
:1037900021003800FFF7D6FC2B782049013BDB00E5
:1037A000F618F279200000F0CDF92000FCF7ACFC0F
:1037B000802382B25B0121003800FFF7C3FC2B7825
:1037C00001332B7074E7C04600100240000400482B
:1037D0000000211000080048B40700200038014014
:1037E000A4080020004400406408002000100040AD
:1037F000250800201C0900201C6B0008240700205D
:103800002E6B0008B00700203E6B000894060020D5
:103810004A6B00087D6B0008936B0008BA6B0008C8
:103820007047000001200A4B82B0996901439961F9
:1038300080219A69490502400092009ADA690A4398
:10384000DA61DB690B400193019B02B07047C0460F
:103850000010024007B50B4B02689A4210D11020AD
:10386000094AD1690143D161D36900220340019320
:1038700001301100019BFEF703FD1120FEF730FD22
:1038800007BDC046001000400010024030B50500E2
:103890008BB01422002105A800F04BF92B68384AA0
:1038A00093424DD18020374BC00199690143996102
:1038B00080219A69890202400192019A5A699020F6
:1038C0000A435A615B69C0050B400293029BC02307
:1038D000DB000593022306930133089305A9023BFD
:1038E0000993FEF7A1FD284C284B8022236000237A
:1038F00020006360A360E26023616361A361E36110
:10390000FEF712FD002801D0FFF78AFF204B6C66FE
:103910006562204C80222360102363600023200016
:10392000A360E26023616361A361E361FEF7FCFCD5
:10393000002801D0FFF774FF2C6665620BB030BD24
:10394000154A9342FAD180220E4B9202D9699020F7
:103950001143D961D969C00511400391039959698F
:10396000114359615B6905A91A400492049B0C2319
:1039700005930A3B0693013B0993FEF755FDDDE7EE
:1039800000380140001002406C0700203000024067
:103990001C00024028070020004400407047FEE75A
:1039A0007047704710B5FEF75DFC10BD10B50348B9
:1039B000FEF7F0FC0248FEF7EDFC10BD28070020E2
:1039C0006C07002010B50548FFF741F9044B1A6851
:1039D000002A02DD1A68013A1A6010BD640800204E
:1039E000900600200A4B10B519680200002901D189
:1039F000084919606946186882188A4206D900F099
:103A000065F80C2303600120404210BD1A60FCE7FA
:103A1000D40600202C0900200121114B11481A68FE
:103A20000A431A605A6802405A601A680E480240F7
:103A30001A601A680D4802401A605A680C48024021
:103A40000F205A60DA6A8243DA621A6B0948024030
:103A50001A635A6B8A435A6300229A607047C046C1
:103A6000001002400CB8FF08FFFFF6FEFFFFFBFF4F
:103A7000FFFFC0FFECFEFFFF0D4885460D480E49D5
:103A80000E4A002302E0D458C4500433C4188C42B8
:103A9000F9D30B4A0B4C002301E013600432A2421D
:103AA000FBD3FFF7B9FF00F017F8FFF73BFDFEE788
:103AB000002000200000002074060020606E000836
:103AC000740600202C090020FEE70000014B186856
:103AD0007047C0460400002070B500260C4D0D4C08
:103AE000641BA410A64209D1002602F0B9FF0A4DBA
:103AF0000A4C641BA410A64205D170BDB300EB585C
:103B000098470136EEE7B300EB5898470136F2E7E5
:103B1000586E0008586E0008586E00085C6E000869
:103B2000002310B59A4200D110BDCC5CC4540133BF
:103B3000F8E703008218934200D1704719700133EF
:103B4000F9E700000EB410B59DB002A9029008611B
:103B50000B48822488604861012040421FABC88125
:103B6000084804CBA400006801938C8100F00CF895
:103B70000023029A13701DB010BC08BC03B0184794
:103B8000FFFFFF7F04000020F0B5C5B009911400CD
:103B90001D000A9001F0DAFE036818001893FCF784
:103BA000B3FA099B12909B891B0618D5099B1B69C8
:103BB0000B93002B13D140210A9801F0DDFE099BE5
:103BC00018601861002807D10C230A9A13600D3B76
:103BD0001393139845B0F0BD4023099A5361002315
:103BE00034AF27972993289311940E931693179324
:103BF0001A9319931393119C2378002B02D0252B31
:103C000000D091E0119BE61A18D03B60299B7E60A2
:103C10009B192993289B08370B9301332893072B73
:103C200009DD27AA09990A9802F0BAFB002801D0F9
:103C300000F0A8FF34AF139B9B1913932378002B3C
:103C400001D100F0BEFF1F22002318A95218012144
:103C500013701E001A00494201340B911493611C29
:103C6000119121780D910D982038582801D900F034
:103C7000A7FCFCF765FACC00A504A504D100A504B7
:103C8000A504A504A504A504A504D4005B00A5040F
:103C9000DC00DE00A50403010501050105010501A5
:103CA00005010501050105010501A504A504A504FB
:103CB000A504A504A504A504A504A504A50435012F
:103CC0004D01A5044D01A504A504A504A5041701F3
:103CD000A504A504AD03A504A504A504A504A50495
:103CE0000704A504A504A300A504A504A504A50430
:103CF000A504A504A504A504A504A50426015F0048
:103D00004D014D014D0119015F00A504A5041B01E2
:103D1000A5048E03AF03D9032201A504EA03A50479
:103D20000904A504A5043004013465E701232B220E
:103D3000119C94E7002B03D01F2318A95B181A705D
:103D4000B30600D4D5E0072307359D432B00083385
:103D50000F932B686C6806930794079A0123002A37
:103D60000CDA0699079A00244B4294410693079473
:103D70001F232D2218A95B181A7001230799069A90
:103D80000A430B99013101D100F03FFF802135003A
:103D90008D43002A01D000F03DFF0B9A002A01D18B
:103DA00000F004FC012B00D1B7E3022B00D1DFE3CC
:103DB000002300240693079400F032FF002B03D069
:103DC0001F2318A95B181A708C4B1A9320233340B9
:103DD00000D188E3072307359D432B0008330F9359
:103DE0002B686C68069307940223F20700D4FFE265
:103DF000069A07990A4300D1FAE2302120AA1170ED
:103E000034206946091809781E435170F0E2002AEF
:103E10008ED1012320228BE701210E4388E72968F8
:103E200004351491002900DB82E7494214910421F2
:103E3000F3E711981199007801310D902A2809D0E3
:103E400000200B900D9C0800303CA446092C0CD996
:103E5000119008E72C68281D0B94002C02DA01242D
:103E600064420B940500119162E70A240B986043A9
:103E700060440B90087801310D90E3E78021CCE796
:103E8000002114910A20149941430D9830384118AB
:103E900014911199481C097811900D913039092914
:103EA000F0D9D5E70821B8E74021B6E7119909789C
:103EB0006C2904D11199013111912021ADE7102114
:103EC000ABE72B1D2A680F932AAB1A701F22002420
:103ED00018A952181470012210940B920C9334E11B
:103EE000002B03D01F2318A95B181A7010231E4340
:103EF00026E72A1DF30605D52B680F920693DB17DC
:103F000007932AE72B680F927106F7D51BB2F5E7E6
:103F1000002B03D01F2318A95B181A70072307353D
:103F20009D432B00012208330F932B6852421693B6
:103F30006B68169D1793179B28005C006408304B34
:103F40002100FEF775F8002801D000F044FE0122A0
:103F50002B4B524228002100FCF792FA002801D096
:103F600000F039FE0022002316981799FCF77EFA1C
:103F7000002804D01F232D2218A95B181A70214B8A
:103F80000C930D9B472B01DC1F4B0C9380230024CB
:103F90009E437D3B0B931094D7E00B9B013324D0C1
:103FA00020230D9A9A43472A02D10B9B002B1FD046
:103FB00080235B0033431C93179C169B1093002CAB
:103FC00018DA8022120623009446634415932D23A9
:103FD0001B9320230D9C9C43462C17D00B9D452CF6
:103FE00001D10B9B5D1C022312E006230B93DFE73C
:103FF0000123FBE715940023EAE7C046F06B0008B5
:10400000FFFFEF7FE46B0008E06B000803230B9DCC
:1040100025AA049222AA039221AA02920093019552
:10402000109A159B0A9800F0A9FE0C90472C03D11A
:10403000F30701D400F0E3FD0C9B5B190E93462CB3
:1040400013D10C9B1B78302B0AD10022002310982F
:104050001599FCF705FA002802D101235D1B219573
:10406000219A0E9B944663440E93002200231098DD
:104070001599FCF7F5F93022002800D13DE10E9B9F
:104080002593259B0C9A9B1A0E93472C00D039E15F
:10409000219BDA1C03DB0B9A9A4200DB62E10D9B49
:1040A000023B0D9369463420219A09180978541E61
:1040B00023AB21941970002C00DB3AE10124A41AEF
:1040C0002D225A70092C00DC3CE13B2518ABED1881
:1040D0006B1E20000A210B93FCF7ACF96B1E3031EC
:1040E000197020000A21FCF7BFF80400092800DD40
:1040F00021E12E233B2118AA023D30342C709B185D
:1041000089181A008D4200D217E123ABD31A1993F4
:10411000199A0E9B944663440B930E9B012B03DC70
:1041200001231E40109606D0129A0B9B94466344BE
:104130000B93002310931B9B002B04D01F232D22D5
:1041400018A95B181A7000241C9E0B9B15949C42A6
:1041500000DA15931F2318AA9B181B785A1E934147
:10416000159AD3181593022333401B9302D0159B45
:1041700002331593842333401C931ED1149B159A4C
:104180009D1A002D19DDCC4B3B60102D00DD30E277
:10419000299B7D605D19289B29951D9301332893E8
:1041A0000837072B09DD27AA09990A9802F0F8F8C1
:1041B000002801D000F0E6FC34AF1F2318AA9B189A
:1041C0001A78002A16D03B6001237B60299B0837B0
:1041D00001332993289B1D9301332893072B09DD75
:1041E00027AA09990A9802F0DBF8002801D000F00C
:1041F000C9FC34AF1B9B002B17D020AB3B600223C4
:104200007B60299B083702332993289B1B9301333A
:104210002893072B09DD27AA09990A9802F0C0F80C
:10422000002801D000F0AEFC34AF1C9B802B1ED1C7
:10423000149B159A9D1A002D19DDA04B3B60102D83
:1042400000DDEDE1299B7D605D19289B29951B937D
:10425000013328930837072B09DD27AA09990A9803
:1042600002F09EF8002801D000F08CFC34AF0B9BCC
:104270001025E41A002C00DDFEE1F30500D515E25F
:104280000C9B3B600B9B7B60299B08370C930C9A23
:104290000B9B944663442993289B0B9301332893EB
:1042A000072B09DD27AA09990A9802F079F8002856
:1042B00001D000F067FC34AF730701D500F041FC7A
:1042C0001499159B994200DA1900139B5B181393FC
:1042D000299B0B93002B08D027AA09990A9802F072
:1042E0005FF8002801D000F04DFC00230F9D2893BB
:1042F00034AF80E4591C25911A70259B0E99994280
:10430000F8D8BEE60D9B652B00DCCBE60D9B662B3B
:1043100028D1219B002B1CDD0B9A002A01D1F2072A
:1043200003D5129A9B180B9A9B18219A0B93109203
:1043300001E72B22C5E60B9DCAE62A7801351A70E3
:104340000133DEE6302223ABA4189A70DC7024AA75
:10435000DBE60B9B002B02D101331E42E5D0129B02
:104360000133E0E7219A0E9B9A4206DBF3070ED554
:10437000129BD31867220D92D7E712990E9B5B18F8
:1043800067210D91002AD0DC9B1A0133CDE7130081
:10439000F0E7002B03D01F2318A95B181A702B1D00
:1043A000B20606D52A6813991160C91751601D001D
:1043B00021E4F20603D52A6813991160F7E7720623
:1043C000F9D569464C2009182A6809881180EEE75A
:1043D00010231E432021314010D0072307359D4371
:1043E0002B0008330F932B686C6806930794002307
:1043F0001F22002118A812181170BFE41022281DD6
:10440000324004D02B680F9006930791EFE74023CA
:104410000F90334004D02B6807929BB20693E6E7D7
:104420002A6807930692E3E72B1D0F932B687820E9
:1044300030210693002320AA11705070204A079360
:1044400002331E431A920D90D2E72B1D0F932B6857
:1044500000240C931F2318AA9B181C700B9B01337C
:104460000BD00B9A21000C9801F08AFCA04200D1DD
:10447000BDE00C9BC31A0B938DE50C98FBF744FE33
:104480000B9088E510231E43202333400BD00723D5
:1044900007359D432B0008330F932B686C680693F8
:1044A00007940123A4E71022291D32400AD00F915E
:1044B0002A6807930692F4E7146C0008246C00083D
:1044C000016C000840230F913340F1D02B68079214
:1044D0009BB20693E5E7002B03D01F2318A95B18B6
:1044E0001A70AA4B71E41022291D324004D00F919A
:1044F0002A680793069277E440230F913340F7D060
:104500002B6807929BB206936EE40C9B8AE3079B91
:10451000002B0AD1069B092B07D8069B2CAA303307
:10452000D3776F2318AA9B189AE334AB0C930C9B98
:1045300006980799013B0C930A220023FBF7BEFF64
:10454000069807990C9B30321A700A220023FBF759
:10455000B5FF06900791069B079A1343E7D10C9A83
:1045600034AB9B1A0B9C0B9300232E001093ECE5AD
:1045700000230024069307940F2034AB0C930C9B6C
:104580001A9A013B0C93069B0340D35C0C9A137060
:10459000079B1907069B1A09079B11431B090793E1
:1045A0000B00079A06911343E9D1D8E734AA0C927D
:1045B000002BD4D1F307D2D530222CABDA77B0E779
:1045C000002B03D01F2318A95B181A700D9B002B1A
:1045D00000D1F6E234216A46521812782AAB1A70DA
:1045E0001F22002418A9521814700F9573E40400B8
:1045F000D1E410237B60299B083710332993289B33
:104600001D9301332893072B08DD27AA09990A98DF
:1046100001F0C6FE002800D0B4E234AF103DB2E590
:1046200010237B60299B083710332993289B1B9309
:1046300001332893072B08DD27AA09990A9801F06E
:10464000AFFE002800D09DE234AF103DF5E5299B78
:104650007D6010332993289B08371B9301332893DF
:10466000072B08DD27AA09990A9801F099FE00286E
:1046700000D087E234AF103C454B3B60102CE6DCA9
:10468000299B7C601C19289B29941B930133289338
:104690000837072B00DCF0E527AA09990A9801F0F2
:1046A0007FFE002800D06DE234AFE6E50D9B652B60
:1046B00000DCB0E10022002316981799FBF7D0FE2A
:1046C000002869D0334B3B6001237B60299B08376E
:1046D00001332993289B0B9301332893072B08DD83
:1046E00027AA09990A9801F05BFE002800D049E248
:1046F00034AF219B0E9A934202DBF30700D4DBE533
:10470000129A189B94463B60129B7B60299B08374A
:1047100063442993289B0B9301332893072B08DDCF
:1047200027AA09990A9801F03BFE002800D029E247
:1047300034AF0E9B10255C1E002C00DCBCE5144B36
:104740003B60102C0BDC7C60299B1C192994289B56
:104750000B9301332893072B00DC86E0A2E5299B0D
:104760007D6010332993289B08370B9301332893DE
:10477000072B08DD27AA09990A9801F011FE0028E5
:1047800000D0FFE134AF103CD9E7C046016C00080F
:10479000246C0008126C0008219B002B7EDCCF4BA0
:1047A0003B6001237B60299B083701332993289BB9
:1047B0000B9301332893072B08DD27AA09990A9840
:1047C00001F0EEFD002800D0DCE134AF219B002B8E
:1047D00005D10E9B002B02D1F30700D46CE5129A91
:1047E000189B94463B60129B7B60299B083763446F
:1047F0002993289B0B9301332893072B08DD27AAC5
:1048000009990A9801F0CCFD002800D0BAE134AF34
:10481000219C002C19DA10256442B14A3A60102C10
:1048200025DC299B7C601C19289B29945A1C08377D
:104830000B932892072A08DD27AA09990A9801F004
:10484000AFFD002800D09DE134AF0E990C9B8C4643
:104850003B600E9B7B60299B63442993289B5A1CD9
:104860000B932892072A00DD1CE5083724E5299BD5
:104870007D601A00289B103229925A1C0B932892B3
:104880000837072A08DD27AA09990A9801F088FD48
:10489000002800D076E134AF103CBEE7109C0E9AA1
:1048A000944200DD1400002C15DD0C9B7C603B6005
:1048B000299B08371B192993289B0B9301332893B5
:1048C000072B08DD27AA09990A9801F069FD00283D
:1048D00000D057E134AFE343DB171C40109B102599
:1048E0001C1B002C7DDC219B0E9A934201DBF307FD
:1048F00018D5129A189B94463B60129B7B60299BAB
:10490000083763442993289B0B9301332893072B83
:1049100008DD27AA09990A9801F042FD002800D075
:1049200030E134AF109A0E9B21999B1A0E9A541ABB
:104930009C4200DD1C00002C18DD109A0C9B944654
:1049400063443B60299B7C601B192993289B083793
:104950000B9301332893072B08DD27AA09990A989E
:1049600001F01EFD002800D00CE134AFE343DB175B
:104970001C40219A0E9B10259B1A1C1B002C00DC4E
:104980009AE4574B3B60102C00DCDCE6299B7D60F1
:1049900010332993289B08370B9301332893072B57
:1049A00008DD27AA09990A9801F0FAFC002800D02E
:1049B000E8E034AF103CE4E7299B7D601033299395
:1049C000289B08370B9301332893072B08DD27AA70
:1049D00009990A9801F0E4FC002800D0D2E034AF35
:1049E000103C3F4B3B60102CE6DC299B7C601C1983
:1049F000289B29940B93013328930837072B00DC5D
:104A000071E727AA09990A9801F0CAFC002800D08A
:104A1000B8E034AF67E70E9B012B03DC01231E4295
:104A200000D187E00C9B3B6001237B60299B08370A
:104A300001332993289B0B9301332893072B08DD1F
:104A400027AA09990A9801F0ABFC002800D099E048
:104A500034AF129A189B94463B60129B7B60299B53
:104A6000083763442993289B0B9301332893072B22
:104A700008DD27AA09990A9801F092FC002800D0C5
:104A800080E034AF0023002216981799FBF7E8FC6A
:104A90000E9B5D1E002825D10C9B0E9A01333B60B6
:104AA000299B7D60013B9B182993289B08370B931A
:104AB00001332893072B07DD27AA09990A9801F0EB
:104AC0006FFC00285ED134AF199A23AB94463B604B
:104AD000199B7B60299B6344299338E6126C00087C
:104AE000246C00081024002DEEDD5E4B3B60102D81
:104AF0000BDC299B7D605D192995289B0B93013365
:104B00002893072BD8DC0837DEE7299B7C6010331D
:104B10002993289B08370B9301332893072B07DD34
:104B200027AA09990A9801F03BFC00282AD134AF42
:104B3000103DDAE77B60299B0C9A01333A60299398
:104B4000DBE7149B159A10259C1A002C01DCFFF75B
:104B5000B7FB454B3B60102C1EDC299B7C601C196D
:104B6000289B29940B9301332893072B01DCFFF733
:104B7000A7FB27AA09990A9801F012FC002801D185
:104B8000FFF79EFB099B9B895B0601D4FFF721F889
:104B900001235B42FFF71CF8299B7D6010332993AA
:104BA000289B08370B9301332893072B07DD27AA8F
:104BB00009990A9801F0F4FB0028E3D134AF103CC6
:104BC000C7E7299B0693002BDCD027AA09990A98EE
:104BD00001F0E6FBD6E7169A179B16981799FDF792
:104BE00027FA002801D1FFF7D8F9204B0C930D9B31
:104BF000472B01DDFFF7CAF91D4BFFF7C6F9259BCF
:104C00000C9A9B1A0E93FFF743FA3500002A01D144
:104C1000FFF7C8F8012B00D179E4022B00D1ABE4F7
:104C2000072634AB5A1E0C92069A591E3240303277
:104C30000A7007994C070699C80807990443C908E0
:104C40000791210007980694014300D05DE4E9072D
:104C500000D484E4302A00D181E43022023B1A706F
:104C60000C937CE4246C0008146C0008EC6B0008C6
:104C7000E86B0008F0B503690C6989B0070005917D
:104C800000269C426DDC0B00013C1433A50003930D
:104C90005B1904930300143302935D19049B286885
:104CA0001B68591C0193FBF755FA0190B0422DD0B7
:104CB000039B02989C460696624608CA9446019A4F
:104CC00099B251431B0C534389190A0C9B18079343
:104CD00002881E0C069B89B2D2180368521A190C5E
:104CE0006B469B8BCB1A11145B18191492B21B04E0
:104CF0001A43049B069104C06345DDD22B68002B48
:104D000004D1029B043DAB422ED33C61059938008F
:104D100001F063FA002823DB0025019B0298013390
:104D20000399019308C9028855199AB2AA1A05680D
:104D30001B0C2D0CEB1A15145B191D1492B21B04DD
:104D4000134308C0049B8B42ECD2029AA300D318F1
:104D50001A68002A04D1029A043B9A4209D33C61A2
:104D6000019E300009B0F0BD2B68002BCDD1013C75
:104D7000C7E71A68002AF2D1013CECE7F0B516004B
:104D80001F00446A9DB00490259D06960797002C4D
:104D900008D1102000F0E6FD049B58624460846056
:104DA0000460C460049B5B6A196800290BD05A68D0
:104DB000012393404A608B60049801F035F800228B
:104DC000049B5B6A1A60079B002B1FDA01232B6090
:104DD0007B005B080793079CB74B220019931A408E
:104DE0009A4216D1B54B249A1360069B002B03D12F
:104DF000240301D100F091FDB14B269A0A93B14BE7
:104E0000002A01D000F08FFD00F08FFD00232B6001
:104E1000E1E7069E079F0022002330003900FBF7E0
:104E20001FFB051E0ED00123249A1360A64B269A61
:104E30000A93002A01D100F078FDA44A26990A605D
:104E400000F073FD1AAB01931BAB009332003B00E3
:104E5000049801F03FFA630005905B0D00D17FE0FC
:104E60003A039B4C120B144321009A4A30001895C8
:104E70009E180022984BFCF7C5FD984A984BFCF70A
:104E800041FB984A984BFBF7F9FB040030000D00FA
:104E9000FDF722F9954A964BFCF734FB02000B0014
:104EA00020002900FBF7EAFB04000D00FDF7E0F805
:104EB00000220390002320002900FBF7D7FA0028E6
:104EC0000ED00398FDF708F90B000200290020001E
:104ED000FBF7C6FA030058425841039B1B1A039381
:104EE00001231693039B162B0FD88249DB00C918A8
:104EF00008684968069A079BFBF7CCFA00284BD054
:104F0000039B013B0393002316931A9B9E1B0023D4
:104F10000B933300013B0C9304D501239B1B0B9394
:104F200000230C93039B002B38DB039A0C9B9446C5
:104F300063440C9300230F920893229B0125092BB5
:104F400000D991E0052B02DD0025043B2293229B32
:104F5000981E032800D991E0FBF7E8F882842976AF
:104F60001A9B1B9A9E18644BF218202A0FDD634B84
:104F70000698F318D84040239B1A9C402043FDF725
:104F8000EDF801235E4C013E0919189371E72023C7
:104F900006989B1A9840F2E71690B6E70B9B039A87
:104FA0009B1A0B935342089300230F93C5E70123E9
:104FB0000E93239B002B65DD1F000D93049A546A0A
:104FC0000022626004321100143199425FD9616895
:104FD000049800F0F1FE049B20605B6A1B680A9352
:104FE0000E2F00D905E1002D00D102E1069B079CA0
:104FF00014931594039B002B00DC85E01A000F210D
:105000003C4B0A40D2009B185C681B6810931194BB
:10501000039B02241D11EB060AD53A4B0D401A6A78
:105020005B6A14981599FBF739FE069007910134D5
:10503000344E002D30D1109A119B06980799FBF73A
:105040002DFE069007917AE00123239A0E93944651
:10505000039B63445F1C0D933B1EAFDC0123ADE754
:105060000023A5E70023F0E700230E952293013BE0
:1050700000220D931F00133323929FE701230E9309
:10508000023BF5E701230D931F001A00F4E7616866
:1050900052000131616096E701231D4208D010984B
:1050A0001199E41832687368FCF72CFA109011918A
:1050B0006D100836BDE7C0460000F07F0F270000E6
:1050C0003D6C0008406C0008126C0008136C00086E
:1050D0000000F03F01FCFFFF0000F83F61436F63F9
:1050E000A787D23FB3C8608B288AC63FFB799F5001
:1050F0001344D33F706C0008320400001204000017
:10510000000010FE486C0008039B0224002B16D000
:10511000149815995D420F23CA4A2B40DB00D3181F
:105120001A685B68FCF7EEF9002306900791C64EFB
:105130002D11002D00D08CE0002B00D081E7169BB4
:10514000002B00D191E0069A079B109211931098C2
:1051500011990022BD4BFBF789F9002800D184E0AA
:10516000002F00D181E00D9B002B3EDD109811999E
:10517000039B00225E1EB64BFCF7C4F90690079114
:105180000D9D01342000FCF7A7FF069A079BFCF752
:10519000B9F90022AF4BFBF771FA12901391129BF1
:1051A000139CAD4A10931194139B9C181194002DDD
:1051B0005ED1069807990022A84BFCF723FC109AB1
:1051C000230006900791FBF765F9002800D001E362
:1051D000A3481399844661440B0006980799109AD6
:1051E000FBF744F9002800D0E8E2149B159C0693D5
:1051F00007941B9B002B00DA57E1039A0E2A00DD6F
:1052000053E1904BD2009B185C681B68089309948B
:10521000239B002B00DBCEE0002F00DDCBE000D095
:10522000CFE20898099900228C4BFCF76BF9069A9B
:10523000079BFBF739F93E000897002800D0A4E24D
:105240000A9B0A9A5D1C31231370039B013303935D
:105250009FE20122154205D0A41832687368FCF75A
:1052600051F901236D10083663E7039E3D0089E77D
:105270000A9A691E521917920E9A724BC900002A97
:105280004AD05B181A685B6800207649FBF706FD78
:10529000109A119BFCF7B6FB0A9B10901191129388
:1052A00006980799FCF7E4FE0400FCF715FF0200DE
:1052B0000B0006980799FCF7A5FB129B30345D1C88
:1052C0001C70109A119B06900791FBF7CFF80028ED
:1052D00065D1069A079B00205C49FCF793FB109A66
:1052E000119BFBF7C3F8002800D0BEE0179B9D423E
:1052F00000D17AE7109811990022554BFCF702F97A
:1053000000221090119106980799514BFCF7FAF87A
:10531000129506900791C3E7591808684968109AD2
:10532000119BFCF7EFF8109011910A9C179D0698BD
:105330000799FCF79DFE1290FCF7CEFE02000B00D1
:1053400006980799FCF75EFB129B06900791303395
:105350002370179B01340022A34224D1414B1098A3
:105360001199FBF78BF902000B0006980799FBF7E0
:1053700091F8002800D078E0109A119B002039495C
:10538000FCF740FB02000B0006980799FBF76EF84C
:10539000002800D129E76B1E1A78302A01D0039625
:1053A0003FE01D00F7E706980799294BFCF7AAF89C
:1053B00006900791BBE70A9E089A099B06980799F1
:1053C000FBF76CFCFCF754FE0400FCF785FE089A22
:1053D000099BFCF797F80B00020006980799FCF769
:1053E00011FB2300303333700A9B751CEB1A9F426C
:1053F0004CD102000B00FBF741F906000F00020040
:105400000B0008980999FBF731F800282CD108986F
:10541000099932003B00FBF723F8002801D0E3078D
:1054200022D40599049800F0FFFC00232B70039B05
:10543000249A01331360269B002B00D175E21D6076
:1054400073E2C046706C0008486C00080000F03F32
:105450000000244000001C400000C0FC000014407C
:105460000000C07C0000E03F039E6B1E1A78392AC2
:1054700006D10A9A9A4207D13023137013000136DD
:105480001A7801321A708AE71D00EEE70022CF4B2E
:10549000FCF738F800220023069007912E00FAF757
:1054A000DFFF002800D187E7BBE70E9A002A00D172
:1054B00087E0229A012A6EDC189A002A67D0C44A33
:1054C0009B18089D0B9C0B9A0121D2180B920C9AE9
:1054D0000498D3180C9300F045FD0600002C0EDD57
:1054E0000C9B002B0BDD0C9A2300944200DD130073
:1054F0000B9AE41AD21A0B920C9AD31A0C93089BAB
:10550000002B1ED00E9B002B5FD0002D11DD310033
:105510002A00049800F0BEFD059A010006000498D8
:1055200000F029FD05991090049800F07DFC109B77
:105530000593089B5A1B04D00599049800F0AAFD16
:1055400005900121049800F00DFD0F9B0890002BA1
:105550003DDD1A000100049800F09CFD229B08909C
:105560000025012B3BDC0025069BAB4233D1079B7A
:105570001B03AB422FD1199B079A13422BD00B9BD5
:10558000013501330B930C9B01330C9323E036233D
:105590001A9A9B1A95E7089B7D1EAB4206DB5D1BA2
:1055A000002F0BDA0B9BDC1B00238CE7089B089574
:1055B000EA1A0F9B00259B180F93F1E70B9C3B0009
:1055C00081E7089D0B9C0E9E88E7089AB4E7229B12
:1055D0000025012BC7DD0F9B0120002B0BD0089B62
:1055E000089A1B690F9303339B00D318586800F087
:1055F00070FC2023181A0C9BC0181F23184000D1E0
:10560000ABE001331B1A042B00DC9BE01C23181AAF
:105610000B9B24181B180B930C9B1B180C930B9BB8
:10562000002B05DD1A000599049800F085FD059012
:105630000C9B002B05DD1A000899049800F07CFDF6
:105640000890169B002B00D189E00899059800F07E
:10565000C4FD002800DB82E0039B0A22013B039388
:1056600005990023049800F0F8FB0E9B0590002B91
:1056700000D15DE1002331000A22049800F0EDFB27
:105680000D9B0600002B02DC229B022B6DDC002C04
:1056900005DD31002200049800F04EFD06003000C8
:1056A000002D11D07168049800F086FB31000400D1
:1056B00033690C319A1C92000C30FEF731FA01224A
:1056C0002100049800F038FD0D9F0A9B013F0B93C9
:1056D000DB19370006000F9308990598FFF7CAFAFF
:1056E00039000D900400059800F077FD32000E900F
:1056F0000899049800F08AFD01230C93C3683034A4
:105700000500002B04D10100059800F066FD0C9007
:105710002900049800F088FB0C9B229A134300D0C8
:1057200089E0069A0133134200D084E0392C00D17D
:10573000A3E00E9B002B01DD0D9C31340B9B5D1C07
:105740001C7027E0042B00D169E70B9A1C33D21898
:105750000B920C9AE418D31860E70300F5E7002FCA
:105760003CDC229B022B39DD0D970D9B002B0CD1CD
:1057700008990522049800F070FB08900100059834
:1057800000F02BFD002800DD5AE5239B0A9DDB433A
:10579000039300270899049800F046FB002E00D1DF
:1057A0003FE6002F05D0B74203D03900049800F03F
:1057B0003BFB3100049800F037FB32E608952E00E1
:1057C000E3E7002308931E00DFE7C0460000244003
:1057D00033040000039608952E0031E50E9B0D97CB
:1057E000002B00D053E70A9D08990598FFF742FA6D
:1057F0000A9B30300D9A287001350400EB1A9A424A
:1058000078DC151E00DC012500270A9B5D1905992F
:105810000122049800F090FC0899059000F0DDFC4E
:1058200000282FDC01D1E3072CD46B1E1A78302A14
:10583000B0D11D00F9E70E9B002B07DB1D00229B5A
:105840001D4326D10123069A134222D10C9B002B23
:1058500000DC73E705990122049800F06DFC0899BB
:10586000059000F0BAFC002804DC00D066E7E307EE
:1058700000D463E7392C00D05EE70B9B0B9A5D1CCC
:10588000392313706B1E1A78392A3BD001321A70F3
:1058900080E70B9B01330D930C9B002B05DD392C0E
:1058A000EBD00D9D01340B9B4AE70B9B0F9A0D9D8E
:1058B0001C709342ABD000230A220599049800F093
:1058C000CCFA002305900A2239000498B74206D189
:1058D00000F0C3FA070006000D9B0B93FCE600F0F6
:1058E000BCFA3100070000230A22049800F0B5FA40
:1058F0000600F1E700230A220599049800F0ADFAAA
:10590000059071E70A9A9A4205D1039B01330393EC
:10591000312313703EE71D00B4E70A4B269A0A9321
:10592000094B002A01D0269A13600A981DB0F0BDD9
:105930000D9B002B00DD56E7229B022B00DC52E77B
:1059400013E7C046346C00083C6C0008034B1B682E
:10595000186A002800D10248F03070470400002087
:105960000805002010B5034B0100186800F004F88A
:1059700010BDC04604000020F0B50D0085B00B3509
:105980000190162D08D907239D4306D50C23019AB3
:105990001360002005B0F0BD10258D42F6D30198AC
:1059A00000F0FAF9F823FF33BA489D421FD82A00C5
:1059B00008328218110054680839EB088C4203D170
:1059C000D4680233A24229D003236268A1689A43B3
:1059D0001300E268E318CA609160012259680A4323
:1059E0005A60019800F0E0F920000830D2E76A0A16
:1059F0003F23002A03D0042A28D8AB0938330322D6
:105A00009446D9000918CC688C4206D06646626874
:105A1000B243571B0F2F31DD013B013301000469F5
:105A200008318C424ED00322666896433200761BC2
:105A30000F2E31DD012763193D4337436560436114
:105A40000361D96099605F60A650CAE7142A02D842
:105A500013005B33D3E7542A02D82B0B6E33CEE707
:105A6000AA235B009A4202D8EB0B7733C7E78A4937
:105A70007E238A42C3D8AB0C7C33C0E7E668002F94
:105A800008DBA368DE60B3600123A21851680B43F2
:105A90005360A6E73400B7E741610161002EF3DAF5
:105AA0007E498A4242D8D208FF399610FF39B14068
:105AB0004668D2003143416010188268E060A260FD
:105AC0008460D460012299108A40724948688242F9
:105AD00000D997E0104205D10324A34352000433B8
