:020000040800F2
:1000000000200020BD230008D9220008DB220008C0
:1000100000000000000000000000000000000000E0
:10002000000000000000000000000000DD220008C9
:100030000000000000000000DF220008E1220008AC
:100040000D240008000000000D2400080D24000805
:100050000D2400080D2400080D2400080D240008BC
:10006000000000000D2400080D2400080D240008E5
:100070000D2400080D2400080D24000800000000D5
:100080000D240008E92200080000000025230008D4
:100090000D2400080D2400080D2400080D2400087C
:1000A0000D2400080D2400080D2400080D2400086C
:1000B0000D24000800000000000000000000000007
:1000C00010B5064C2378002B07D1054B002B02D02E
:1000D000044800E000BF0123237010BD9C000020F5
:1000E0000000000050370008044B10B5002B03D06F
:1000F0000349044800E000BF10BDC04600000000F6
:10010000A00000205037000802B471464908490099
:10011000095649008E4402BC7047C04602B471467D
:1001200049084900095C49008E4402BC7047C0463A
:10013000002243088B4274D303098B425FD3030A26
:100140008B4244D3030B8B4228D3030C8B420DD339
:10015000FF22090212BA030C8B4202D312120902C7
:1001600065D0030B8B4219D300E0090AC30B8B4205
:1001700001D3CB03C01A5241830B8B4201D38B03B3
:10018000C01A5241430B8B4201D34B03C01A524158
:10019000030B8B4201D30B03C01A5241C30A8B429B
:1001A00001D3CB02C01A5241830A8B4201D38B0286
:1001B000C01A5241430A8B4201D34B02C01A52412A
:1001C000030A8B4201D30B02C01A5241CDD2C3099C
:1001D0008B4201D3CB01C01A524183098B4201D318
:1001E0008B01C01A524143098B4201D34B01C01A03
:1001F000524103098B4201D30B01C01A5241C3087B
:100200008B4201D3CB00C01A524183088B4201D3E9
:100210008B00C01A524143088B4201D34B00C01AD5
:100220005241411A00D20146524110467047FFE741
:1002300001B5002000F006F802BDC0460029F7D045
:1002400076E770477047C04670B50500FA200D4B41
:1002500080001978FFF76CFF0B4B01001868FFF75F
:1002600067FF00F053FB04000120002C09D1032D8F
:1002700007D802382200290000F00CFB2000034BB5
:100280001D6070BD0000002034000020040000202C
:100290001023064A10B5116800200B431360FFF7C6
:1002A000D3FF01F021FF002010BDC0460020024016
:1002B000034A044B11681B785B1813607047C046F3
:1002C000F800002000000020014B18687047C0466D
:1002D000F800002070B50400FFF7F6FF0500631C6E
:1002E00002D0044B1B78E418FFF7EEFF401B84425A
:1002F000FAD870BD000000200321036870B59A6829
:1003000004000A40012A01D0002070BD1968114282
:1003100002D1DA681204F7D505229D681540012D37
:100320001AD1022299680A439A6003221A60FFF7E1
:10033000CBFF060023689B682B42E5D0FFF7C4FF84
:10034000801B0228F6D91023A26B01201343A3635C
:10035000E36B1D43E563D8E710230120A26B134331
:10036000A363E36B0343E363CFE70000002373B5AC
:1003700003210193036804009A680A40012A07D107
:100380001968114201D0002076BDDA681204FAD44F
:100390009968194A114208D010230120A26B134317
:1003A000A363E36B0343E363EEE7012299680A4327
:1003B0009A60124B12491868FFF7BAFE0190019B30
:1003C000002B15D1FFF780FF0125060023681B686D
:1003D0002B42D8D1FFF778FF801B0228F6D91023D3
:1003E000A26B01201343A363E36B2B43E363CBE7CF
:1003F000019B013B0193E2E71700008034000020DD
:1004000040420F000422036870B59968040011424D
:1004100001D1002070BD9968114206D09A689207F8
:1004200003D4102299680A439A60FFF74DFF042510
:10043000060023689B682B42EBD0FFF745FF801B2B
:100440000228F6D910230120A26B1343A363E36BA8
:100450000343E363DEE70000F8B504000120002C4D
:1004600073D0A36B002B06D122003432E36320004B
:10047000137001F051FEA36BDB0600D57AE0042275
:1004800023689868104000D074E0A26B4349114083
:1004900002220A430321A2639A680A40012A00D07B
:1004A0006EE01968114202D1DA68120468D5DA6880
:1004B0003B490A40DA60257E627EAD03D2031543D4
:1004C000A26AA17E013A561EB2411603E2684F03AA
:1004D000154322692F43022A00D10420621DD27FD6
:1004E00052003A4332430243E07E012804D10029FE
:1004F0002CD1802149020A43C220E169FF308142A8
:1005000002D0206A01430A438020D9684005114384
:10051000D960E16A814202D0481E062807D8072523
:1005200058692940A8435861586901435961DB68FB
:100530001C490B409A4211D100200322E063A36BB7
:1005400093431A0001231343A363F8BD2021A56B35
:100550002943A163E16B0843E063CDE71222A36B5B
:10056000012093431A0010231343A363E36B034357
:10057000E363EAE71023A26B01201343A363E4E7DC
:100580001821DA688A43A1680A43DA601969626847
:10059000890089081143196189E7C046FDFEFFFF04
:1005A0001902FEFFE7FF3F83036870B59B680400F4
:1005B00002205B071AD4250034352B78012B15D087
:1005C00001232B70637E012B11D1A36B0B4A0020FA
:1005D0001A4080235B0013431C22A3632368E0635B
:1005E00028701A609968183A0A439A6070BD200012
:1005F000FFF7BCFE0028F9D1E7E7C046FEF0FFFF99
:1006000070B506003436337804000220012B12D076
:10061000012520003570FFF7F5FE002809D12000E4
:10062000FFF76AFE002804D1A36B034A13401D4361
:10063000A5630023337070BDFEFEFFFFF8B545696A
:1006400004000E00082D0DD003680120DB680C2586
:10065000034207D02023A26B34341343636000238A
:100660002370F8BDFFF730FE070023681A682A429E
:1006700023D08022A16B92000A43A263C022D968D2
:100680001201114212D1A27E002A0FD11A6812075C
:100690000CD59A68520723D40C215A688A435A60B1
:1006A000A26B1449114001220A43A2630020227E5A
:1006B0008242D6D10C221A60D3E7721CD6D0002E0B
:1006C00008D10423A26B3434134363600023032056
:1006D0002370C6E7FFF7F8FDC01B8642C5D2F0E7DE
:1006E0002022A16B0A43A2630122E16B0A43E26369
:1006F000DCE7C046FEFEFFFF0368186C7047000091
:10070000F7B5002304000193343423780500022058
:10071000012B2BD001232A68EE6A906823704007D2
:1007200052D42C484F680D6887423BD0AB4018002C
:100730008023976A5B05384390629E420FD0013E4A
:10074000062E0CD98B68072150690840834206D0D9
:1007500050690B40884350615069034353612B003B
:10076000103B012B03D9002000232370FEBD1A4B40
:1007700080221968102D13D0D2030A431A60102D5D
:10078000F1D1164B16491868FFF7D2FC0A235843DB
:100790000190019B002BE6D0019B013B0193F8E700
:1007A0001204EAE7AB40916A99432B00103B916237
:1007B000012BD8D8084B1A68102D03D009490A40DC
:1007C0001A60D0E70849FAE72022A96B18000A430B
:1007D000AA63C9E701100000082701403400002087
:1007E00040420F00FFFFBFFFFFFF7FFFF8B506008D
:1007F0003436337804000220012B42D00123032138
:10080000337023689A680A40012A05D11968114299
:1008100038D1DA68120435D4A26B1D491140022286
:100820000A430321A263DD68DA688A43DA60802222
:10083000996812060A439A60FFF746FD070023688D
:100840009A68002A0EDB0322D96815400D43DD604B
:10085000A36B002093431A0001231343A3630023D7
:1008600033700EE0FFF730FDC01B0228E7D91222DB
:10087000A36B012093431A0010231343A3630023A7
:100880003370F8BD2023A26B01201343A363E6E776
:10089000FDFEFFFF70B58901002812DB8308134AB3
:1008A00003249B009B18FF222040A0401400C02579
:1008B000844011408140AD005E59A64331435951F7
:1008C00070BD03240F23C0B203402040A040FC347D
:1008D0002500214085408140083B054A9B089B003C
:1008E0009B18DA69AA431143D961E9E700E100E006
:1008F00000ED00E0002805DB1F2318401E3B83406D
:10090000014A13607047C04600E100E0094A431EF7
:10091000012093420DD8C021074A08485360036A5A
:1009200009061B021B0A0B43036200200723906089
:1009300013607047FFFFFF0010E000E000ED00E0F3
:10094000F0B50B6887B0029300230191029ADA4058
:1009500001D107B0F0BD01229A4003920399029A97
:100960000A40009200D18CE0019A102152681600D2
:100970008E43022E0ED107251D40AD000139A9403E
:10098000DC08A4000419276A8F4301990969A9406A
:100990000F43276203245F00BC40E4430568013E27
:1009A0002540AC4603251540BD4061460D4305601A
:1009B000012E0FD801998668CD682640BD40354389
:1009C00085604668039915098E4301210D409D40BD
:1009D00035434560C56801992C408D688021BD4034
:1009E00049052C43C4600A424BD00121264C032602
:1009F000A5691E400D43A561A4699D080C4005949E
:100A0000059C0F242149AD00B6006D18B44090211B
:100A1000AF68C905A743002488420CD01C490134A3
:100A2000884208D01B490134884204D01A49033453
:100A3000884200D1023CB44000993C430E00AC60B7
:100A4000164CCD4327683E43D10301D43E002E40CF
:100A500026606768009E3E43910301D43E002E400D
:100A60006660A768009E3E43D10201D43E002E403E
:100A7000A660E668009F3743920201D42E403700FB
:100A8000E760013362E7C046001002400000014009
:100A90000004004800080048000C00480004014021
:100AA00000690840411E8841C0B27047002A01D049
:100AB000816170478162FCE7F0B5040085B00028D1
:100AC00002D1012005B0F0BD0368DB072ED42368F6
:100AD0009B077ED423681B0700D5BAE023685B0719
:100AE00000D5DDE02368DB061AD56269B44D042326
:100AF000012A00D049E1696B02260B436B636B6BE3
:100B00001A436A63FFF7E0FB07006B6B334200D1C7
:100B100034E1F8216A6BA3698A43DB0013436B63FA
:100B2000236A002B00D057E10020CBE70C21A44D15
:100B30006A680A40042A06D06B680B40082B09D16A
:100B40006B68DB0306D52B689B03C0D56368002B5D
:100B5000BDD1B6E76368012B13D180232A685B02FD
:100B600013432B60FFF7B0FB80260700B6022B680B
:100B70003342ACD1FFF7A8FBC01B6428F7D9032090
:100B8000A0E7002B15D12B688E4A802613402B60DE
:100B90002B688D4AB60213402B60FFF795FB0700C8
:100BA0002B68334293D0FFF78FFBC01B6428F7D923
:100BB000E5E7052B05D180232A68DB0213432B6070
:100BC000CBE72B687F4A13402B602B687E4A13408B
:100BD000C7E70C227A4D6B68134206D06B6813404E
:100BE000082B11D16B68DB030ED42B689B0703D550
:100BF000E368012B00D064E7F8212A6823698A435F
:100C0000DB0013432B6065E7E2680123002A0FD065
:100C10002A68022613432B60FFF756FB07002B6858
:100C20003342E9D1FFF750FBC01B0228F7D9A6E7F2
:100C30002A6802269A432A60FFF746FB07002B68C2
:100C4000334200D146E7FFF73FFBC01B0228F6D92D
:100C500095E7E26901235A4D002A10D06A6A0226FC
:100C600013436B62FFF730FB07006B6A334200D01F
:100C700034E7FFF729FBC01B0228F6D97FE76A6A31
:100C800002269A436A62FFF71FFB07006B6A334232
:100C900000D123E7FFF718FBC01B0228F6D96EE747
:100CA00080220021464D5205EB690091134208D184
:100CB000EB691343EB61EB6913400393039B01233F
:100CC00000938027414E7F0033683B4206D0A368E3
:100CD000012B13D12A6A13432B6230E033683B4364
:100CE0003360FFF7F1FA019033683B42EFD1FFF731
:100CF000EBFA019BC01A6428F6D940E70122002BC9
:100D000014D12B6A022793432B622B6A033293433D
:100D10002B62FFF7D9FA06002B6A3B4225D0FFF77A
:100D2000D3FA2B4B801B9842F6D928E7052B0BD121
:100D3000296A013B0B432B622B6A1A432A62FFF795
:100D4000C3FA022706000DE02B6A934304222B62AC
:100D50002B6A9343C0E7FFF7B7FA1D4B801B9842FD
:100D600000D90CE72B6A3B42F5D0009B012B00D049
:100D7000B8E6EB69174A1340EB61B3E6FFF7A4FA54
:100D8000C01B022800D8C0E6F9E6053203D16A6B21
:100D90009A436A63BDE66A6B0226134301226B63C2
:100DA0006B6B93436B63FFF78FFA07006B6B3342F8
:100DB00000D1B5E6FFF788FAC01B0228F6D9DEE6B7
:100DC00000100240FFFFFEFFFFFFFBFF007000402E
:100DD00088130000FFFFFFEF0C20354A5168150013
:100DE0000140082947D0334A022B32D12B68802694
:100DF00013402B60FFF768FA0700B6042B683342F4
:100E000021D10F22EB6A9343E26A1343EB62616ADA
:100E1000A36A6A680B43284980240A4013436B6025
:100E200080232A685B0413432B60FFF74DFA06000A
:100E3000A4042B68234200D076E6FFF745FA801B16
:100E40000228F6D99BE6FFF73FFAC01B0228D5D946
:100E500095E62B68802413402B60FFF735FA0600D7
:100E6000A4042B68234200D15EE6FFF72DFA801B15
:100E70000228F6D983E61800012B00D122E6802152
:100E80005368656A4902D26A19400120A94200D01C
:100E900018E60F210A40E16A8A4200D012E6F020EB
:100EA00080030340A06A1B1A581E8341D8B209E68A
:100EB00000100240FFFFFFFEFFFFC2FF70B5144CA1
:100EC00088B010222100684601F0CCFA210004AD60
:100ED00010221031280001F0C5FA0C220D4E736863
:100EE0001A40082A11D10F206A46990C0140545C1F
:100EF000F26A0240A95CDB0305D50748FFF718F941
:100F0000604308B070BD0548FAE70348F9E7C046FA
:100F1000683700080010024000127A0000093D0006
:100F2000F7B505000F00002801D10120FEBD012208
:100F3000374C236813408B421CD329688B0722D47B
:100F4000CB072FD4012322681A40974251D32B6834
:100F5000304C5B0754D4FFF7B1FF63682E4A1B0681
:100F60001B0FD35CD8402D4B18600020FFF76CF9A5
:100F70000020DBE7236893430B432360236813407F
:100F80009942D2D1D9E7234A4B0704D5E0235068D0
:100F9000DB0003435360F02053688343A868034396
:100FA0005360CDE71B4E6A683368012A19D19B0351
:100FB000BBD5032173688B4313437360FFF784F938
:100FC00001900C2372681A406B689B009A42B9D05A
:100FD000FFF77AF9019BC01A114B9842F1D903200F
:100FE000A4E7022A02D19B01E3D49EE79B07E0D449
:100FF0009BE722689A43226022681A4295D1A6E7AD
:101000006368084A1340EA6813436360A3E7C04675
:1010100000200240001002409F37000834000020EA
:1010200088130000FFF8FFFF044B054A5B685B056F
:101030005B0FD35C034A1068D84070470010024031
:10104000AF370008340000200122036A70B59343D3
:101050000362036A44688569723295430A681543DE
:10106000022293438A681343144A904208D0144ED4
:10107000B04205D0134EB04202D0134EB04216D14A
:101080000826B343CE6833430426B343904208D0C6
:101090000B4A904205D00B4A904202D00A4A904235
:1010A00005D10A4A8E6922404C69344314434A6888
:1010B000446085614263036270BDC046002C0140FC
:1010C000004001400044014000480140FFFCFFFF98
:1010D00070B57325036A174A13400362036A4268B6
:1010E000C469AC430D682C43134D2B408D682D0211
:1010F0002B43124DA8420ED1114D1D40CB681B024F
:101100002B43104D2B40104D4E6915408A693243D8
:1011100012012A4308E00D4DA842F4D00C4DA8421C
:10112000F1D00C4DA842EED042604A68C461C2635F
:10113000036270BDFFFEFFFFFFFDFFFF002C0140BB
:10114000FFF7FFFFFFFBFFFFFFCFFFFF0040014066
:101150000044014000480140036A144A30B513407E
:101160000362026A124C4368C56925400C68240278
:101170002543104C22408C68240322430E4CA0428D
:1011800008D00E4CA04205D00D4CA04202D00D4C10
:10119000A04204D10C4C23404C69A401234343607A
:1011A0004B68C5610364026230BDC046FFEFFFFFBC
:1011B000FF8CFFFFFFDFFFFF002C014000400140DC
:1011C0000044014000480140FFBFFFFF01220368C7
:1011D0000720D9681143D96099680140062902D0D7
:1011E00019680A431A6000207047704770477047BB
:1011F0007047704770470222036810B519690400F0
:1012000011420ED0D96811420BD0053A1A619B6980
:10121000043202779B0700D179E0FFF7E9FF002352
:101220002377042223681969114210D0D96811422A
:101230000DD0093A1A61073222779A69C0239B00C0
:1012400020001A4269D0FFF7D3FF0023237708223A
:101250002368196911420ED0D96811420BD0113A96
:101260001A61DB690D32227720009B075BD0FFF704
:10127000BFFF00232377102223681969114210D081
:10128000D96811420DD0213A1A6119322277DA69F0
:10129000C0239B0020001A424BD0FFF7A9FF002378
:1012A0002377012223681969114207D0D9681142B6
:1012B00004D0033A1A612000FFF798FF80222368C8
:1012C0001969114208D0D968114205D0023AFF3A93
:1012D0001A61200000F069FA40222368196911425E
:1012E00007D0D968114204D0813A1A612000FFF773
:1012F00081FF202223681969114207D0D968114261
:1013000004D0413A1A61200000F04EFA10BDFFF7F8
:101310006EFF2000FFF76DFF81E7FFF768FF2000F9
:10132000FFF767FF91E7FFF762FF2000FFF761FF1C
:101330009FE7FFF75CFF2000FFF75BFFAFE70000D0
:101340001C4A10B50368904202D01B4CA04208D141
:101350007024A3434C68234390420ED0164CA04205
:101360000BD0164CA04208D0154CA04205D0154C0D
:10137000A04202D0144CA04203D1144C2340CC68AC
:1013800023438024A3434C69234303608B68C362D7
:101390000B688362904208D0094B984205D0094BF4
:1013A000984202D0084B984201D10B690363012394
:1013B000436110BD002C01400004004000200040AB
:1013C000004001400044014000480140FFFCFFFF95
:1013D00070B504000120002C14D025003D352B7879
:1013E000DBB2002B05D122003C321370200000F04C
:1013F000C1FE022320682B70211DFFF7A1FF0123EE
:1014000000202B7070BD70B504000120002C14D09A
:1014100025003D352B78DBB2002B05D122003C3274
:1014200013702000FFF7E1FE022320682B70211DBE
:10143000FFF786FF012300202B7070BD1022036A86
:1014400070B593430362026A164D436884692C4069
:101450000D682D022C432025AA438D682D012A43B7
:10146000114DA8420FD18025AA431500CA68120168
:101470002A434025AA430D4D4E691D408B693343D5
:101480009B002B4308E00A4DA842F4D0094DA84226
:10149000F1D0094DA842EED043604B68846183636C
:1014A000026270BDFF8CFFFF002C0140FFF3FFFFC5
:1014B000004001400044014000480140F8B50600EA
:1014C00002233C360D00317804001800012925D094
:1014D000270001213D3731703B700C2A1AD81000CB
:1014E000FEF71CFE071818181D1818182F181818C2
:1014F000410029002068FFF7A7FD082223689969A9
:101500000A4304219A619A698A439A619A6929690E
:101510000A439A61012300203B703070F8BD290016
:101520002068FFF78BFF80222368120199690A4324
:101530009A619A6915490A409A612A699969120261
:10154000E6E729002068FFF7C3FD08222368D96970
:101550000A430421DA61DA698A43DA61DA692969BE
:101560000A43DA61D6E729002068FFF7F5FD8022FB
:1015700023681201D9690A43DA61DA6903490A402A
:10158000DA612A69D9691202EAE7C046FFFBFFFF68
:1015900030B58468034D0A431B022C401343234398
:1015A000836030BDFF00FFFFF8B5050002233C3526
:1015B0002A7804001800012A16D026000127206886
:1015C0003D362F7033708368404A134083600B6848
:1015D000402B65D014D8102B0BD006D8002B08D088
:1015E0000123002033702870F8BD202B01D0302B50
:1015F000F6D1702281689143693A13430B431AE094
:10160000602B35D019D8502BEAD14A68CB68016AD3
:10161000046A1B01BC43F02704628469BC43234372
:101620000A24A1430A4383610262702283689343C0
:101630001A00572313438360D2E7702B0DD080220A
:1016400092019342CCD1CB684A688968FFF7A0FF2A
:1016500080232268DB01916807E0CB684A688968CB
:10166000FFF796FF7723226891680B439360B7E7F3
:1016700010244B68CA68016A154FA143016284694E
:1016800012033C402243A024016A82617022A143DC
:101690001B010B430362836893431A006723C9E766
:1016A0004A68CB68016A046A1B01BC43F0270462E4
:1016B0008469BC4323430A24A1430A438361026231
:1016C0007022836893431A004723B3E78800FFFF23
:1016D000FF0FFFFF1F2310B5012419408C408A40E3
:1016E000036AA3430362036A1A43026210BD000047
:1016F00010B5040001220068FFF7ECFF23680E4AD2
:10170000934213D00D4A934210D00D4A93420DD00C
:101710000C4A93420AD007219A680A40062A03D04D
:10172000012219680A431A60002010BD8022596CFA
:1017300012020A435A64EEE7002C014000400140C7
:10174000004401400048014070B5040002223C34CE
:10175000257803001000012D1ED01D0070261B6887
:1017600001383D3520702A7058689A68B0430E6879
:10177000304358600948834205D00948834202D06B
:101780000848834204D18020496882430A439A6012
:10179000012300202B70207070BDC046002C01403A
:1017A00000040040004001407047704770B50400DD
:1017B0002569A36802682B436569C1692B431068DA
:1017C000434D0B4328400343136053684148256A47
:1017D0000340E06803435360A36990682B433E4D88
:1017E00028400343936080233C481B02824210D16F
:1017F00003203B4A126B02403A48805C994213D066
:10180000082828D8FEF78AFC41274627572727278C
:101810005A003548824256D1994236D1FFF704FC2E
:10182000636840005B080BE008281ED8FEF76CFCDC
:10183000F61D051D151D1D1D1800636858082B4B4E
:10184000C0186168FEF774FC83B200201A002849B2
:10185000103A8A420CD9012013E0FFF72FFBDFE793
:101860006368580880235B02EAE701200023EDE764
:101870000F22190091430A001B0721685B0F1343D5
:10188000CB6000232366636670BDFFF7CDFB636802
:101890005B0802E063685808164BC0186168FEF7E1
:1018A00047FC83B200201A001149103A8A42D2D86C
:1018B0002268D360E5E7FFF701FBE8E763685808B3
:1018C00080231B02E9E79942CFD001200023EAE7F9
:1018D000F369FFFFFFCFFFFFFFF4FFFF0038014078
:1018E0000010024088370008004400400024F40043
:1018F000EFFF000000127A00436A30B5DA0706D520
:101900000168284C4A682240846A22434A609A0748
:1019100006D50168244C4A682240C46A22434A60C2
:101920005A0706D50168214C4A682240046B2243BD
:101930004A601A0706D501681D4C4A682240446B6C
:1019400022434A60DA0606D501681A4C8A682240AA
:10195000846B22438A609A0606D50168164C8A6811
:101960002240C46B22438A605A0610D50168134D89
:101970004A68046C2A4022434A60802252039442FF
:1019800005D14A680E4C2240446C22434A601B0633
:1019900006D502680B4953680B40816C0B435360BA
:1019A00030BDC046FFFFFDFFFFFFFEFFFFFFFBFF57
:1019B000FF7FFFFFFFEFFFFFFFDFFFFFFFFFEFFFF7
:1019C000FFFF9FFFFFFFF7FFF7B5802704000E0022
:1019D000150001933F012268D36933409B1B594294
:1019E0004B41AB4201D000201CE0089B0133F3D0F7
:1019F000FEF76AFC019B089AC01A2368824201D351
:101A0000002A10D11A6813490A401A609A68A33153
:101A1000FF318A439A6020236367A3670023032072
:101A200070342370FEBD04211A680A42D3D0DA69EB
:101A30003A42D0D01F621A6806490A401A609A6872
:101A4000A331FF318A439A6020236367A367E3676A
:101A5000E4E7C0465FFEFFFFF0B587B00593436F34
:101A600004000D0017000220202B49D10138002965
:101A700046D0002A44D08023A2685B019A4204D158
:101A80002369002B01D101423AD1230070331A7827
:101A90000220012A34D0012200261A702123E66791
:101AA0006367FEF711FC230050331F80023303935A
:101AB0001F808023A26804905B019A4204D12369AD
:101AC000B34201D12E001D00230052331A88059B1A
:101AD00092B20093049B002A0AD140212000FFF714
:101AE00073FF00280BD1202370346360207007E05F
:101AF000002280212000FFF767FF002802D003208A
:101B000007B0F0BD2268002D0BD133880236DB050B
:101B1000DB0D1385039B039A1B88013B9BB213804B
:101B2000D2E72B7801351385F4E7000073B5002662
:101B30000400C667FEF7C8FB236805001B681B0787
:101B400015D423681B685B070AD580210E4B002241
:101B50000093C9032B002000FFF736FF002811D1A6
:101B6000202300206367A367703420700BE080217E
:101B7000054B32000093890303002000FFF724FF88
:101B80000028DED0032076BDFFFFFF0110B5041E44
:101B900001D1012010BD436F002B04D1020070322F
:101BA000137000F06BFB2423012122686367136824
:101BB00020008B431360FFF7F9FD0128E9D0636A29
:101BC000002B02D02000FFF797FE236807495A68D0
:101BD00020000A4008215A609A688A439A600122CC
:101BE00019680A431A60FFF7A1FFD3E7FFF7FFFF69
:101BF00030B5102591B03022002104A800F03BFC44
:101C00002A000021684600F036FC12230493A0232A
:101C1000012408950A959B030E3D04A80E93079492
:101C200009940C95FEF748FF072300930023210039
:101C30006846019502930393FFF772F911B030BD26
:101C4000F0B595B0FEF724FBFFF7D2FF1422002178
:101C50000DA800F010FC8020CF4B0003596900252F
:101C6000014359615A691124024080200392039A6A
:101C70005969C003014359615A690C270240802009
:101C80000492049A596980020143596180215A697A
:101C9000C90202400592059A5A6990200A435A6186
:101CA0005B6900220B40D82106938900C005069B82
:101CB000FEF7FCFE00226821B848FEF7F7FE8023FD
:101CC0009B010D93B64B0DA9B6480E930F95FEF7E9
:101CD00037FE902012230DA9C0050D930E950F9588
:101CE000FEF72EFE902060230DA9C0050D930E94E3
:101CF0000F951095FEF724FE01230DA9A7480D931B
:101D00000E950F95FEF71CFEC02390209B000D93AF
:101D100001230DA9C0050E930F951095FEF710FE37
:101D200048230DA99D480D930E940F951095FEF72D
:101D300007FE20230DA90D9398481F3B0E930F9586
:101D40001095FEF7FDFD9848984B8026036096237A
:101D50001B0243608560C560056147618561C5619F
:101D600005624562FFF712FF2900102209A800F062
:101D700082FB2900082207A800F07DFB1C22290015
:101D80000DA800F078FB8A4C8A4B20002360656028
:101D9000A560E5602561A5617601FFF719FB09A93A
:101DA00020000996FFF700FC2000FFF72CFB07A995
:101DB000200007950895FFF7C7FC60232A000DA9AE
:101DC00020000D930E950F951195FFF777FB2000DE
:101DD00000F012FA3A0029000DA800F04CFB764CF6
:101DE000764B200023600123236103336361C22308
:101DF000FF33E361631DDD7701236560A560E56066
:101E000025766576A576E5762562A362FEF724FB46
:101E100080230DA95B0520000D950E960F93FEF70C
:101E20006FFC674F674B38003B60674BBD607B6062
:101E30000123BD61FB60FFF7CBFA29001C220DA82E
:101E400000F019FB614E624B30003360614B7560EE
:101E5000F360B5603561B561FFF7BAFA3000FFF79E
:101E6000D2FA60232A000DA930000D930E950F952C
:101E70001195FFF723FB300000F0BEF93800FFF7A3
:101E8000A5F929003000FFF733FC2000FEF7AEFC77
:101E9000514800F073FB2A00902508213F48FEF7C7
:101EA00005FE9620FEF716FA012208213B48FEF7B0
:101EB000FDFD474BED050093464B01932000FEF7D7
:101EC00073FB64212000FEF7B9FB2000FEF714FC31
:101ED000424E30802000FEF793FB328801991301B7
:101EE000CB1A3F4F009938004B633E4900F050FB3E
:101EF000380000F0C9FA3C4B32889A4244D901229A
:101F000020212800FEF7D2FD002240212800FEF704
:101F1000CDFD02212800FEF7C3FD021E0BD10821D2
:101F20001E48FEF7C3FD9620FEF7D4F901220821D2
:101F30001A48FEF7BBFD10212800FEF7B1FD021E76
:101F40000BD108211548FEF7B1FD9620FEF7C2F926
:101F5000012208211148FEF7A9FD01210F48FEF7D3
:101F60009FFD021E0BD108210C48FEF79FFD962015
:101F7000FEF7B0F9012208210848FEF797FDFA2084
:101F80008000FEF7A7F999E7012240212800FEF71B
:101F90008DFD00222021B9E7001002400004004816
:101FA00000002110000800487C010020004400408F
:101FB000FC000020000400403C02002000240140FE
:101FC0003C010020001000407FBB0000FC0100200D
:101FD00000200040FFFF00008C370008B800002000
:101FE000BA0000209A370008CF07000007B5044B5D
:101FF0000190012201A90348FFF72EFD01980EBDB3
:10200000FFFF00007C010020F7B50F00FA218900D6
:102010000400FEF78DF80A2180B2FEF70FF901AD3A
:10202000297020006421FEF783F80A2180B2FEF7B0
:1020300005F9200069700A21FEF77AF80A2180B2BA
:10204000FEF7FCF800249026A970EC70F6058021BC
:10205000002249003000FEF729FDEB5D1F4A5B00BE
:102060009B5A01222341134200D0002280213000DC
:102070008900FEF71BFD8021012249003000013458
:10208000FEF714FD082CE2D180269025002476006E
:10209000ED05002231002800FEF708FD104B7A0004
:1020A000D25A012122410A4000D00A008021280092
:1020B0008900FEF7FBFC0134012231002800FEF705
:1020C000F5FC082CE5D1012220210648FEF7EEFCA4
:1020D000002220210348FEF7E9FCF7BD080000209C
:1020E0002C0000200004004801200A4B82B09969AE
:1020F0000143996180219A69490502400092009A42
:10210000DA690A43DA61DB690B400193019B02B093
:102110007047C0460010024010B5040088B0142279
:10212000002103A800F0A7F9104B22689A421BD1A6
:1021300080200F4B800099690143996180219A6941
:10214000890202400192019A5A6990200A435A6119
:102150005B69C0050B400293029B012303A9039313
:1021600002330493FEF7ECFB08B010BD00240140DD
:10217000001002401FB503681B4A93420AD1022097
:102180001A4AD1690143D161D36903400193019B8C
:1021900005B000BD164A934211D11020134AD169EF
:1021A0000143D161D3690022034002930130110041
:1021B000029BFEF76FFB1120FEF79CFBE8E70D4A40
:1021C0009342E5D18020094A4000D1690143D161A1
:1021D000D369002203400393ED381100039BFEF7FF
:1021E00059FB1320E8E7C0460004004000100240FD
:1021F000001000400020004010B5040088B01422F8
:10220000002103A800F037F92368184A934215D13A
:102210008020174AC002516901435161536903A9E3
:1022200003400193019B102303930E3B0493114839
:10223000013B0793FEF784FB08B010BD0E4A9342A2
:10224000FAD180200A4A80025169014351615369E1
:1022500003A903400293029B8023902003937E3BBB
:10226000049302330793C005E4E7C046000400402E
:1022700000100240000400480020004010B5040097
:1022800088B01422002103A800F0F5F8104B226852
:102290009A421BD180220F4B9202D96990201143A0
:1022A000D961D969C005114001910199596911435A
:1022B00059615B6903A91A400292029B0C230393A4
:1022C0000A3B0493013B0793FEF73AFB08B010BDAD
:1022D00000440040001002407047FEE7704770471E
:1022E00010B5FDF7E5FF10BD70B50B48FEF783FF95
:1022F0000A4D2800FEF700FA094C2178FFF784FE0A
:102300002800FEF77DF923780133DBB2032B01D8D7
:10231000237070BD0023FBE73C0100203C0200203D
:102320007C02002010B50248FEF765FF10BDC046D4
:10233000FC01002070B50E0015000C00A31B9D428F
:1023400001DC280070BD00E000BF20700134F5E71B
:1023500070B50E0015000C00A31B9D4201DC280087
:1023600070BD2078FFF742FE0134F5E70A4B10B547
:1023700019680200002901D10849196069461868E6
:1023800082188A4206D900F043F80C23036001202A
:10239000404210BD1A60FCE7EC00002084020020DF
:1023A00001204042704780239B0100204B60704712
:1023B0000120704700207047704700000D48854697
:1023C0000D480E490E4A002302E0D458C45004338D
:1023D000C4188C42F9D30B4A0B4C002301E0136064
:1023E0000432A242FBD3FFF7E7FF00F017F8FFF734
:1023F00027FCFEE700200020000000209C000020B9
:10240000583800089C00002084020020FEE70000ED
:10241000014B18687047C0463800002070B5002690
:102420000C4D0D4C641BA410A64209D1002601F0EE
:102430008FF90A4D0A4C641BA410A64205D170BD49
:10244000B300EB5898470136EEE7B300EB589847D6
:102450000136F2E7503800085038000850380008BC
:1024600054380008002310B59A4200D110BDCC5C4E
:10247000C4540133F8E703008218934200D1704737
:1024800019700133F9E700000FB40B4B13B51C684A
:10249000002C05D0A369002B02D1200000F05EFAC9
:1024A00005AB049AA1682000019300F08FFD16BCD3
:1024B00008BC04B01847C0463800002070B50500BD
:1024C0000E00002804D08369002B01D100F046FAE9
:1024D000AB69AC68002B02D1280000F03FFA244B16
:1024E0009C420FD16C68A3891B0702D52369002B7E
:1024F00020D12100280000F0C3F800281AD00120C4
:10250000404270BD1B4B9C4201D1AC68EBE71A4BBB
:102510009C42E8D1EC68E6E7013B0136A360002B62
:1025200004DAA269934216DB0A2914D023685A1CE4
:10253000226019703178A3680029EDD1013BA360B6
:10254000002B0FDA22000A31280000F043F8431C68
:10255000D5D00A20D5E72200280000F03BF8431C24
:10256000E8D1CCE70A2023685A1C22601870C8E71B
:10257000DC370008FC370008BC37000810B5034BF7
:1025800001001868FFF79AFF10BDC0463800002010
:102590000EB410B59DB002A9029008610B488224C8
:1025A00088604861012040421FABC881084804CBC5
:1025B000A400006801938C8100F0DCFB0023029AE8
:1025C00013701DB010BC08BC03B01847FFFFFF7F9D
:1025D00038000020F8B505000E001400002804D0D3
:1025E0008369002B01D100F0B9F9224B9C422DD117
:1025F0006C68A369A360A3891B0731D52369002BED
:102600002ED023682269F7B2981A6369F6B298420D
:1026100005DB2100280000F033F9002826D1A3684B
:102620000130013BA36023685A1C22601F7063695C
:10263000984204D0A389DB071AD50A2E18D12100AD
:10264000280000F01DF9002812D00FE00A4B9C4230
:1026500001D1AC68CDE7094B9C42CAD1EC68C8E710
:102660002100280000F00CF80028CAD0012676428C
:102670003000F8BDDC370008FC370008BC37000824
:10268000364B70B51D6806000C00002D05D0AB69F7
:10269000002B02D1280000F061F9314B9C420FD190
:1026A0006C680C23E25E93B219072DD4D90611D4BD
:1026B00009230120336037331343A381404270BDA7
:1026C000284B9C4201D1AC68EBE7274B9C42E8D1F8
:1026D000EC68E6E75B0713D5616B002908D023009F
:1026E0004433994202D0300000F03AFA0023636389
:1026F0002422A3899343A381002363602369236079
:102700000823A2891343A3812369002B0BD1A021A5
:102710008022A389890092000B40934203D02100BC
:10272000300000F0D9F90123A289134011D0002311
:10273000A36063695B42A361002023698342BED129
:102740000C23E25E1306BAD540231343A38101385C
:10275000B5E7920700D46369A360EDE73800002075
:10276000DC370008FC370008BC370008F7B58A8959
:1027700005000C00130760D44B68002B04DC0B6CC5
:10278000002B01DC0020FEBDE76A002FFAD00023F9
:102790002E682B6080235B011A4034D0606DA389C2
:1027A0005B0706D56368C01A636B002B01D0236CEE
:1027B000C01A0200216A00232800E76AB847A189ED
:1027C000431C06D12B681D2B31D82C4ADA40D30785
:1027D0002DD50023636023692360CB0405D5431CFA
:1027E00002D12B68002B00D16065616B2E6000293F
:1027F000C8D023004433994202D0280000F0B0F939
:1028000000206063BFE70123216A2800B847431C0A
:10281000C5D12B68002BC2D01D2B01D0162B01D1A6
:102820002E60AFE74023A2891343A381ABE7402387
:102830000B430120A3814042A5E70F69002FA1D0DF
:102840000B680F60DB1B01930023920700D14B69DB
:10285000A360019B002B00DC94E7019B3A00216AF6
:102860002800A66AB047002803DC4023A28913434E
:10287000DFE7019B3F181B1A0193EAE701004020A4
:102880000B6970B505000C00002B01D1002070BD54
:10289000002804D08369002B01D100F05FF80B4BB6
:1028A0009C4209D16C680C22A35E002BEED0210063
:1028B0002800FFF75BFFEAE7054B9C4201D1AC68BB
:1028C000F1E7044B9C42EED1EC68ECE7DC37000802
:1028D000FC370008BC37000810B5024900F0B2F818
:1028E00010BDC04681280008002310B50400036015
:1028F0004360836081814366C28103614361836178
:10290000190008225C30FFF7B6FD054B24626362B4
:10291000044BA362044BE362044B236310BDC04627
:10292000393500086135000899350008C5350008BB
:1029300070B568254A1E55430E002900743100F019
:1029400059F9041E08D000212A00016046600C30AD
:10295000A0606832FFF78FFD200070BD836913B55A
:102960000400002B28D18364C3640365134B144A0D
:102970001B6882620193984201D101238361200088
:1029800000F020F86060200000F01CF8A06020003B
:1029900000F018F80022E06004216068FFF7A4FF4F
:1029A00001220921A068FFF79FFF02221221E0689F
:1029B000FFF79AFF0123A36113BDC046B837000893
:1029C000D9280008F8B51E4B07001E68B369002B14
:1029D00002D13000FFF7C2FF4836B4687368013B8C
:1029E00004D53368002B07D03668F6E70C22A55EC5
:1029F000002D0DD06834F2E704213800FFF798FF6E
:102A000030600028F0D10C2304003B602000F8BDAA
:102A1000012320005B42E3810233A38165662560C8
:102A2000A560656025616561A561082229005C30AB
:102A3000FFF721FD6563A563A564E564E6E7C0468D
:102A4000B8370008F7B504000700002601914834A4
:102A5000002C01D13000FEBD6368A5680093009B87
:102A6000013B009301D52468F2E7AB89012B08D91B
:102A70000E22AB5E013304D029003800019B984739
:102A800006436835EBE7000070B50E001D000E230D
:102A9000C95E90B01400002907DA00232B60B389C7
:102AA0001B0611D48023DB000FE001AA00F0B6FD65
:102AB0000028F2DBF022029B12021340054A9B1809
:102AC0005A4253412B60EDE740230020236010B0B1
:102AD00070BDC04600E0FFFFF7B502268B890500F8
:102AE0000C00334206D023004733236023610123C7
:102AF0006361F7BD01AB6A46FFF7C6FF00990700A7
:102B0000280000F077F8002808D10C22A35E9A056F
:102B1000EFD4032293431E43A681E4E70F4BAB623D
:102B20008023A28920601343A381009B20616361FD
:102B3000019B002B0DD00E23E15E280000F080FDEC
:102B4000002806D00322A38993431A0001231343CC
:102B5000A381A0893843A081CBE7C046D9280008CB
:102B600070B50500002910D00C1F2368002B00DA77
:102B7000E418280000F0A7FD1D4A1368002B05D1BA
:102B800063601460280000F09FFD70BDA34209D966
:102B9000216860188342F3D118685B68411821608E
:102BA000EEE713005A68002A01D0A242F9D9196849
:102BB0005818A0420BD12068091858181960824291
:102BC000E0D110685268411819605A60DAE7A042F3
:102BD00002D90C232B60D5E721686018824203D10B
:102BE000106852684118216062605C60CAE7C046A4
:102BF000F0000020032370B5CD1C9D43083506006E
:102C00000C2D1ED20C25A9421DD8300000F05BFD12
:102C1000254A14682100002919D1244C2368002B6F
:102C200003D1300000F076FC20602900300000F075
:102C300071FC431C2CD10C233000336000F044FDA8
:102C400003E0002DDFDA0C233360002070BD0B6839
:102C50005B1B1AD40B2B03D90B60CC18256003E047
:102C60008C420ED163681360300000F02DFD20000F
:102C700007220B30231D9043C31AE7D05A42E2507B
:102C8000E4E74B6863600C00EEE70C004968C2E7BC
:102C90000323C41C9C43A042E0D0211A300000F062
:102CA00039FC431CDAD1C6E7F0000020F400002014
:102CB000F0B58E6885B007000C00039201939E4228
:102CC00039D890238A89DB001A4234D00325096958
:102CD00023685B1A0293636902985D43EB0F5D19E9
:102CE000019B6D1001331B18AB4200D91D00530529
:102CF00032D529003800FFF77DFF061E09D10C23CD
:102D00003B6040230120A28940421343A38105B0C8
:102D1000F0BD029A2169FFF7A5FBA389144A1A4066
:102D200080231343A381029B2661F6182660656108
:102D3000019EED1AA560019BB34200D21E00320035
:102D40000399206800F0ADFCA36800209B1BA360E2
:102D500023689E192660DAE72A00380000F0B5FCE7
:102D6000061EE0D121693800FFF7FAFEC7E7C0462A
:102D70007FFBFFFFF0B59FB0029005938B890F009A
:102D800016001B0611D50B69002B0ED14021FFF751
:102D900031FF38603861002805D10C23029A0138D0
:102DA00013601FB0F0BD40237B61002306AD6B6153
:102DB00020336B761033AB7634002378002B47D169
:102DC000A31B04930DD0A31B320039000298FFF718
:102DD0006FFF431C00D1B5E06A69049B94466344CD
:102DE0006B612378002B00D1ACE00122002352421A
:102DF0006A6002A95432521801342B60EB60AB6058
:102E00001370AB65584E05222178300000F03EFC6F
:102E1000621C002820D12968CB0604D5532302AEBA
:102E200020309B1918700B0704D553232B2002AEBA
:102E30009B19187023782A2B16D000200A21099B91
:102E40002278303A092A55D9002815D0099313E081
:102E5000252BB5D00134B0E70123801B83402968BE
:102E600014000B432B60CDE7059B181D1B680590D4
:102E7000002B39DB0993140023782E2B0BD16378B8
:102E8000621C2A2B3ED1059B02341A1D1B68059239
:102E9000002B34DB0793354E21780322300000F0FD
:102EA000F5FB002806D04023801B83402A680134AC
:102EB00013432B60217806222D48661C297600F0EA
:102EC000E5FB002846D02B4B002B2FD12968059B12
:102ED0000722C90528D59B189343083305936B69CE
:102EE000039A9B186B6167E75B42EB6002230B431D
:102EF0002B60C0E74B4301349B180120A0E701235E
:102F00005B42C7E7002314000A201A006B60217897
:102F10003039092903D9002BBDD00792BBE74243C2
:102F2000013452180123F2E70733D5E705AB0093CC
:102F30003A00114B2900029800E000BF0390039B68
:102F40000133CCD1BB890B985B0600D429E7012063
:102F5000404226E705AB00933A00074B2900029850
:102F600000F0BEF9EAE7C0461C3800082238000825
:102F70002638000800000000B12C0008936810B546
:102F8000013B9360002B05DA9469A34208DBCBB2C6
:102F90000A2B05D01368581C10601970C8B210BDF8
:102FA000FFF718FBFBE7F8B506000F001400D51873
:102FB000AC4201D1002007E021783A003000FFF751
:102FC000DDFF0134431CF3D1F8BD0000F0B59FB024
:102FD00006000F0014000593002804D08369002B1D
:102FE00001D1FFF7BBFC7F4B9F425CD17768BB8967
:102FF0001B0762D53B69002B5FD0002306AD6B61D8
:1030000020336B761033AB760294029C2378002B2E
:103010005DD1029BE31A04930DD0049B029A390000
:103020003000FFF7C0FF431C00D1CCE06A69049B6D
:10303000944663446B612378002B00D1C3E00122E6
:10304000002352426A6002A95432521801342B60A4
:10305000EB60AB601370AB6521780522624800F02D
:1030600015FB631C9C46002835D12968CB0604D586
:10307000532302AA20309B1818700B0704D5532342
:103080002B2002AA9B18187023782A2B2CD0002002
:103090000A21099B2278303A092A00D86BE00028DF
:1030A0002AD0099328E0514B9F4201D1B7689EE78F
:1030B0004F4B9F429BD1F76899E739003000FFF7EB
:1030C000DFFA002899D0012040421FB0F0BD252B27
:1030D0009FD001349AE7444B2968C01A01238340EA
:1030E0000B432B606446B7E7059B181D1B680590D2
:1030F000002B3ADB0993644623782E2B0BD163789F
:10310000621C2A2B3FD1059B02341A1D1B680592B5
:10311000002B35DB079321780322364800F0B6FAFE
:10312000002807D0334B2A68C01A4023834013433A
:103130002B6001342178631C06222F4802932976E4
:1031400000F0A4FA002844D02C4B002B2FD1296882
:10315000059B0722C90528D59B189343083305937F
:103160006B69039A9B186B614FE75B42EB6002232C
:103170000B432B60BFE74B4301349B18012089E7C9
:1031800001235B42C6E7002314000A201A006B608B
:1031900021783039092903D9002BBCD00792BAE72E
:1031A0004243013452180123F2E70733D5E705AB58
:1031B00000933A00124B2900300000E000BF03905A
:1031C000039B0133CCD1BB895B0600D57BE70B9811
:1031D0007BE705AB00933A00094B2900300000F073
:1031E0007FF8ECE7DC3700081C380008FC370008E3
:1031F000BC3700082238000826380008000000000C
:10320000A72F0008F7B5150001938A680B69009095
:103210000C00934200DA130022002B604332127834
:10322000002A01D001332B6023689B0602D52B684E
:1032300002332B60062723681F4027D02300433327
:103240001B785A1E93412268920630D422000199BD
:1032500043320098089EB047431C25D006232068BF
:103260002A68E16803400025042B03D18D1AEB4343
:10327000DB171D40A3682269934201DD9B1AED18FC
:103280000027BD4220D1002010E00137E3682A6802
:103290009B1A9F42D2DA2200012319320199009829
:1032A000089EB047431CF0D101204042FEBD3020B3
:1032B000E1184331087021005A1C45310978A218E1
:1032C000433202331170C1E7220001231A320199FF
:1032D0000098089EB047431CE6D00137D1E70000B4
:1032E000F0B58BB006920A00433207930590049222
:1032F0000A7E0C00109B6E2A00D18FE017D8632A3B
:103300002CD008D8002A00D199E0582A54D02600A1
:103310004236327029E0642A01D0692AF7D1216847
:103320001A68080623D5111D1960156825E0732A4F
:1033300000D188E008D86F2A29D0702AE7D120224E
:1033400009680A43226003E0752A20D0782ADED17A
:1033500022007821453211706C4A30E00E001A6864
:103360004236111D196013683370012379E0490654
:10337000D9D5111D19600023D55E002D03DA2D2348
:10338000049A6D421370624B0A2703932FE0206862
:103390001968050603D5081D18600D6805E040068C
:1033A000F9D50D68081D1860ADB2594B0827039375
:1033B0006F2A18D00A2716E045310A70544A039242
:1033C0001A682168101D18601568080622D5CB07F9
:1033D00002D52023194321601027002D03D120237B
:1033E00022689A4322602300002243331A706368E4
:1033F000A360002B5CDB0422216891432160002D37
:1034000058D1049E002B64D02600039B42361B78C3
:1034100033705EE04806DAD5ADB2D8E709681A68BD
:10342000080605D5111D1960136862691A6006E067
:103430004906F7D5111D19601368A28A1A80002366
:10344000049E236154E01A68111D1960166800215A
:103450006268300000F01AF9002801D0801B60601B
:10346000636823610023049A137041E023693200EA
:1034700006990598079DA847431C43D0236800255B
:103480009B070FD4099BE06898423DDA18003BE0A7
:1034900022000123193206990598079EB047431C64
:1034A00030D00135E368099A9B1A9D42F0DBE9E7C9
:1034B000002DA9D0049E28003900FCF7BFFE039B15
:1034C000013E5B5C280033703900FCF731FE051EBD
:1034D000F1D1082F09D12368DB0706D5636822697B
:1034E000934202DC3023013E3370049B9B1B23611B
:1034F000079B09AA00932100069B0598FFF782FE0F
:10350000431CB3D1012040420BB0F0BD3E3800084F
:103510002D380008002370B5064C05000800236014
:10352000FEF724FF431C03D12368002B00D02B603F
:1035300070BDC0468002002070B50C000E25495FAA
:1035400000F0EAF8002803DB636D1B18636570BDAB
:10355000A389024A1340A381F9E7C046FFEFFFFFAA
:10356000F8B51F008B8905000C001600DB0505D59A
:103570000E23C95E0022022300F074F8A389054AD5
:1035800028001340A38132000E23E15E3B0000F0CF
:103590001FF8F8BDFFEFFFFF70B50C000E25495F67
:1035A00000F060F8A389421C03D1054A1340A381AF
:1035B00070BD802252011343A3816065F8E7C046C5
:1035C000FFEFFFFF10B50E23C95E00F015F810BD28
:1035D00070B50500080011000022064C22601A0098
:1035E000FEF7B6FE431C03D12368002B00D02B60EE
:1035F00070BDC04680020020002370B5064C050057
:1036000008002360FEF7CCFE431C03D12368002B87
:1036100000D02B6070BDC04680020020002370B532
:10362000064C0500080011002360FEF7BCFE431C99
:1036300003D12368002B00D02B6070BD80020020D6
:10364000002370B5064C050008002360FEF7B0FEAD
:10365000431C03D12368002B00D02B6070BDC046F3
:103660008002002070B50500080011000022064C01
:1036700022601A00FEF79EFE431C03D12368002B34
:1036800000D02B6070BDC04680020020C9B28218F5
:10369000904201D10020704703788B42FBD001306B
:1036A000F6E710B5884202D98B18984208D3002358
:1036B0009A4207D0CC5CC4540133F9E78B5C835445
:1036C000013AFBD210BD70477047F8B507000D00F6
:1036D0001600002905D11100FFF78CFA0400200024
:1036E000F8BD002A03D1FFF73BFA3400F7E700F0FA
:1036F00027F82C008642F2D931003800FFF77AFA19
:10370000041EECD029003200FEF7ACFE2900380080
:10371000FFF726FAE3E7000070B505000800110086
:103720000022064C22601A00FEF704FE431C03D15F
:103730002368002B00D02B6070BDC04680020020A3
:103740000B1F1B68181F002B01DA0B58C01870479D
:10375000F8B5C046F8BC08BC9E467047F8B5C046F0
:08376000F8BC08BC9E4670474E
:1037680002030405060708090A0B0C0D0E0F1010BA
:103778000102030405060708090A0B0C0D0E0F10B9
:103788000004080253746172742073797374656D50
:103798000D0025640D0A0000000000000000000173
:1037A80002030406070809000000000102030400E0
:1037B8003C000020000000000000000000000000A5
:1037C80000000000000000000000000000000000F1
:1037D80000000000000000000000000000000000E1
:1037E80000000000000000000000000000000000D1
:1037F80000000000000000000000000000000000C1
:1038080000000000000000000000000000000000B0
:1038180000000000232D302B2000686C4C006566EA
:103828006745464700303132333435363738394109
:10383800424344454600303132333435363738391F
:08384800616263646566000023
:04385000E900000883
:04385400C1000008A7
:103858000100000004000000FC006000DA00F20033
:103868006600B600BE00E000FE00F6001E009E00E6
:10387800B6000100000000000000000080004000C9
:103888002000100000127A003C0000200000000018
:10389800DC370008FC370008BC37000800000000CF
:1038A8000000000000000000000000000000000010
:1038B8000000000000000000000000000000000000
:1038C80000000000000000000000000000000000F0
:1038D80000000000000000000000000000000000E0
:0C38E800000000000000000000000000D4
:04000005080023BD0F
:00000001FF
