:020000040800F2
:100000000020002001190008691800086B1800087A
:1000100000000000000000000000000000000000E0
:100020000000000000000000000000006D18000843
:1000300000000000000000006F18000871180008A0
:10004000511900080000000051190008511900085A
:1000500051190008511900085119000851190008D8
:10006000000000005119000851190008511900083A
:10007000511900085119000851190008000000002A
:10008000511900085119000800000000511900081A
:100090005119000851190008511900085119000898
:1000A0005119000851190008511900085119000888
:1000B00051190008000000000000000000000000CE
:1000C00010B5064C2378002B07D1054B002B02D02E
:1000D000044800E000BF0123237010BD7C00002015
:1000E0000000000030280008044B10B5002B03D09E
:1000F0000349044800E000BF10BDC04600000000F6
:10010000800000203028000802B4714649084900E8
:10011000095649008E4402BC7047C04602B471467D
:1001200049084900095C49008E4402BC7047C0463A
:10013000002243088B4274D303098B425FD3030A26
:100140008B4244D3030B8B4228D3030C8B420DD339
:10015000FF22090212BA030C8B4202D312120902C7
:1001600065D0030B8B4219D300E0090AC30B8B4205
:1001700001D3CB03C01A5241830B8B4201D38B03B3
:10018000C01A5241430B8B4201D34B03C01A524158
:10019000030B8B4201D30B03C01A5241C30A8B429B
:1001A00001D3CB02C01A5241830A8B4201D38B0286
:1001B000C01A5241430A8B4201D34B02C01A52412A
:1001C000030A8B4201D30B02C01A5241CDD2C3099C
:1001D0008B4201D3CB01C01A524183098B4201D318
:1001E0008B01C01A524143098B4201D34B01C01A03
:1001F000524103098B4201D30B01C01A5241C3087B
:100200008B4201D3CB00C01A524183088B4201D3E9
:100210008B00C01A524143088B4201D34B00C01AD5
:100220005241411A00D20146524110467047FFE741
:1002300001B5002000F006F802BDC0460029F7D045
:1002400076E770477047C04670B50500FA200D4B41
:1002500080001978FFF76CFF0B4B01001868FFF75F
:1002600067FF00F079F804000120002C09D1032D6C
:1002700007D802382200290000F03EF82000034B86
:100280001D6070BD0000002014000020040000204C
:100290001023064A10B5116800200B431360FFF7C6
:1002A000D3FF01F05FFA002010BDC04600200240DD
:1002B000034A044B11681B785B1813607047C046F3
:1002C000A400002000000020014B18687047C046C1
:1002D000A400002070B50400FFF7F6FF0500631CC2
:1002E00002D0044B1B78E418FFF7EEFF401B84425A
:1002F000FAD870BD0000002070B58901002812DB1B
:100300008308134A03249B009B18FF222040A0402F
:100310001400C025844011408140AD005E59A643C1
:100320003143595170BD03240F23C0B20340204014
:10033000A040FC342500214085408140083B054A0F
:100340009B089B009B18DA69AA431143D961E9E72E
:1003500000E100E000ED00E0094A431E0120934265
:100360000DD8C021074A08485360036A09061B02DA
:100370001B0A0B4303620020072390601360704741
:10038000FFFFFF0010E000E000ED00E0F0B50B68BB
:1003900087B0029300230191029ADA4001D107B09D
:1003A000F0BD01229A4003920399029A0A400092FA
:1003B00000D18CE0019A1021526816008E43022E63
:1003C0000ED107251D40AD000139A940DC08A4006D
:1003D0000419276A8F4301990969A9400F432762CD
:1003E00003245F00BC40E4430568013E2540AC4661
:1003F00003251540BD4061460D430560012E0FD811
:1004000001998668CD682640BD40354385604668C1
:10041000039915098E4301210D409D4035434560E8
:10042000C56801992C408D688021BD4049052C4349
:10043000C4600A424BD00121264C0326A5691E4008
:100440000D43A561A4699D080C400594059C0F24EB
:100450002149AD00B6006D18B4409021AF68C905C0
:10046000A743002488420CD01C490134884208D09C
:100470001B490134884204D01A490334884200D110
:10048000023CB44000993C430E00AC60164CCD4396
:1004900027683E43D10301D43E002E4026606768A2
:1004A000009E3E43910301D43E002E406660A76843
:1004B000009E3E43D10201D43E002E40A660E66875
:1004C000009F3743920201D42E403700E76001338A
:1004D00062E7C046001002400000014000040048EE
:1004E00000080048000C0048000401400069084072
:1004F000411E8841C0B27047002A01D08161704717
:100500008162FCE74369194200D0090481617047A8
:10051000F0B5040085B0002802D1012005B0F0BD7F
:100520000368DB072ED423689B077ED423681B0750
:1005300000D5BAE023685B0700D5DDE02368DB0661
:100540001AD56269B44D0423012A00D049E1696BD0
:1005500002260B436B636B6B1A436A63FFF7B4FEAF
:1005600007006B6B334200D134E1F8216A6BA36959
:100570008A43DB0013436B63236A002B00D057E1EF
:100580000020CBE70C21A44D6A680A40042A06D05B
:100590006B680B40082B09D16B68DB0306D52B6811
:1005A0009B03C0D56368002BBDD1B6E76368012B00
:1005B00013D180232A685B0213432B60FFF784FE6C
:1005C00080260700B6022B683342ACD1FFF77CFED1
:1005D000C01B6428F7D90320A0E7002B15D12B6896
:1005E0008E4A802613402B602B688D4AB60213403A
:1005F0002B60FFF769FE07002B68334293D0FFF7AB
:1006000063FEC01B6428F7D9E5E7052B05D18023DD
:100610002A68DB0213432B60CBE72B687F4A134029
:100620002B602B687E4A1340C7E70C227A4D6B681B
:10063000134206D06B681340082B11D16B68DB03A3
:100640000ED42B689B0703D5E368012B00D064E729
:10065000F8212A6823698A43DB0013432B6065E78E
:10066000E2680123002A0FD02A68022613432B6078
:10067000FFF72AFE07002B683342E9D1FFF724FE7B
:10068000C01B0228F7D9A6E72A6802269A432A60E7
:10069000FFF71AFE07002B68334200D146E7FFF749
:1006A00013FEC01B0228F6D995E7E26901235A4DD3
:1006B000002A10D06A6A022613436B62FFF704FE19
:1006C00007006B6A334200D034E7FFF7FDFDC01B23
:1006D0000228F6D97FE76A6A02269A436A62FFF720
:1006E000F3FD07006B6A334200D123E7FFF7ECFD0F
:1006F000C01B0228F6D96EE780220021464D520524
:10070000EB690091134208D1EB691343EB61EB698C
:1007100013400393039B012300938027414E7F00E6
:1007200033683B4206D0A368012B13D12A6A1343D6
:100730002B6230E033683B433360FFF7C5FD019027
:1007400033683B42EFD1FFF7BFFD019BC01A64281D
:10075000F6D940E70122002B14D12B6A02279343DC
:100760002B622B6A033293432B62FFF7ADFD060029
:100770002B6A3B4225D0FFF7A7FD2B4B801B9842ED
:10078000F6D928E7052B0BD1296A013B0B432B62D5
:100790002B6A1A432A62FFF797FD022706000DE035
:1007A0002B6A934304222B622B6A9343C0E7FFF723
:1007B0008BFD1D4B801B984200D90CE72B6A3B42F6
:1007C000F5D0009B012B00D0B8E6EB69174A134027
:1007D000EB61B3E6FFF778FDC01B022800D8C0E646
:1007E000F9E6053203D16A6B9A436A63BDE66A6B28
:1007F0000226134301226B636B6B93436B63FFF71A
:1008000063FD07006B6B334200D1B5E6FFF75CFD7B
:10081000C01B0228F6D9DEE600100240FFFFFEFFF3
:10082000FFFFFBFF0070004088130000FFFFFFEF99
:100830000C20354A516815000140082947D0334A39
:10084000022B32D12B68802613402B60FFF73CFD32
:100850000700B6042B68334221D10F22EB6A934381
:10086000E26A1343EB62616AA36A6A680B43284930
:1008700080240A4013436B6080232A685B0413437F
:100880002B60FFF721FD0600A4042B68234200D053
:1008900076E6FFF719FD801B0228F6D99BE6FFF7E5
:1008A00013FDC01B0228D5D995E62B688024134080
:1008B0002B60FFF709FD0600A4042B68234200D13A
:1008C0005EE6FFF701FD801B0228F6D983E61800DB
:1008D000012B00D122E680215368656A4902D26A61
:1008E00019400120A94200D018E60F210A40E16A10
:1008F0008A4200D012E6F02080030340A06A1B1A4F
:10090000581E8341D8B209E600100240FFFFFFFEE7
:10091000FFFFC2FF70B5144C88B01022210068465A
:1009200001F042F8210004AD10221031280001F03E
:100930003BF80C220D4E73681A40082A11D10F2083
:100940006A46990C0140545CF26A0240A95CDB03E0
:1009500005D50748FFF7ECFB604308B070BD0548BC
:10096000FAE70348F9E7C0464828000800100240AB
:1009700000127A0000093D00F7B505000F000028BD
:1009800001D10120FEBD0122374C236813408B4268
:100990001CD329688B0722D4CB072FD401232268CC
:1009A0001A40974251D32B68304C5B0754D4FFF761
:1009B000B1FF63682E4A1B061B0FD35CD8402D4B3A
:1009C00018600020FFF740FC0020DBE7236893431A
:1009D0000B432360236813409942D2D1D9E7234ABD
:1009E0004B0704D5E0235068DB0003435360F0203D
:1009F00053688343A86803435360CDE71B4E6A687E
:100A00003368012A19D19B03BBD5032173688B433B
:100A100013437360FFF758FC01900C2372681A406F
:100A20006B689B009A42B9D0FFF74EFC019BC01A3D
:100A3000114B9842F1D90320A4E7022A02D19B016D
:100A4000E3D49EE79B07E0D49BE722689A432260A9
:100A500022681A4295D1A6E76368084A1340EA68FB
:100A600013436360A3E7C046002002400010024029
:100A7000702800081400002088130000FFF8FFFF12
:100A8000044B054A5B685B055B0FD35C034A106847
:100A9000D840704700100240802800081400002051
:100AA0000122036A70B593430362036A446885694F
:100AB000723295430A681543022293438A681343AE
:100AC000144A904208D0144EB04205D0134EB042A2
:100AD00002D0134EB04216D10826B343CE6833433A
:100AE0000426B343904208D00B4A904205D00B4AEB
:100AF000904202D00A4A904205D10A4A8E692240A9
:100B00004C69344314434A6844608561426303621C
:100B100070BDC046002C014000400140004401402F
:100B200000480140FFFCFFFF70B57325036A174AB8
:100B300013400362036A4268C469AC430D682C43E6
:100B4000134D2B408D682D022B43124DA8420ED120
:100B5000114D1D40CB681B022B43104D2B40104DF7
:100B60004E6915408A69324312012A4308E00D4D4F
:100B7000A842F4D00C4DA842F1D00C4DA842EED0C2
:100B800042604A68C461C263036270BDFFFEFFFF3A
:100B9000FFFDFFFF002C0140FFF7FFFFFFFBFFFF02
:100BA000FFCFFFFF004001400044014000480140EA
:100BB000036A144A30B513400362026A124C436858
:100BC000C56925400C6824022543104C22408C68DE
:100BD000240322430E4CA04208D00E4CA04205D064
:100BE0000D4CA04202D00D4CA04204D10C4C23402D
:100BF0004C69A401234343604B68C56103640262EE
:100C000030BDC046FFEFFFFFFF8CFFFFFFDFFFFFA0
:100C1000002C0140004001400044014000480140D8
:100C2000FFBFFFFF704700001C4A10B503689042E9
:100C300002D01B4CA04208D17024A3434C6823432C
:100C400090420ED0164CA0420BD0164CA04208D0B9
:100C5000154CA04205D0154CA04202D0144CA04225
:100C600003D1144C2340CC6823438024A3434C6914
:100C7000234303608B68C3620B688362904208D091
:100C8000094B984205D0094B984202D0084B984234
:100C900001D10B6903630123436110BD002C0140A6
:100CA000000400400020004000400140004401409A
:100CB00000480140FFFCFFFF70B504000120002C3C
:100CC00014D025003D352B78DBB2002B05D1220056
:100CD0003C321370200000F05DFD022320682B7071
:100CE000211DFFF7A1FF012300202B7070BD70B5FF
:100CF00004000120002C14D025003D352B78DBB2F8
:100D0000002B05D122003C3213702000FFF78AFF30
:100D1000022320682B70211DFFF786FF012300208E
:100D20002B7070BD1022036A70B593430362026A90
:100D3000164D436884692C400D682D022C432025F4
:100D4000AA438D682D012A43114DA8420FD1802559
:100D5000AA431500CA6812012A434025AA430D4D33
:100D60004E691D408B6933439B002B4308E00A4DBD
:100D7000A842F4D0094DA842F1D0094DA842EED0C6
:100D800043604B6884618363026270BDFF8CFFFF28
:100D9000002C0140FFF3FFFF0040014000440140F0
:100DA00000480140F8B5060002233C360D003178BA
:100DB00004001800012925D0270001213D3731709A
:100DC0003B700C2A1AD81000FFF7A8F9071818185A
:100DD0001D1818182F181818410029002068FFF74F
:100DE0005FFE0822236899690A4304219A619A697F
:100DF0008A439A619A6929690A439A61012300200A
:100E00003B703070F8BD29002068FFF78BFF80220F
:100E10002368120199690A439A619A6915490A403F
:100E20009A612A6999691202E6E729002068FFF7AA
:100E30007BFE08222368D9690A430421DA61DA6952
:100E40008A43DA61DA6929690A43DA61D6E7290057
:100E50002068FFF7ADFE802223681201D9690A439A
:100E6000DA61DA6903490A40DA612A69D96912024A
:100E7000EAE7C046FFFBFFFF30B58468034D0A4335
:100E80001B022C4013432343836030BDFF00FFFF50
:100E9000F8B5050002233C352A7804001800012A21
:100EA00016D02600012720683D362F7033708368E6
:100EB000404A134083600B68402B65D014D8102B38
:100EC0000BD006D8002B08D00123002033702870E7
:100ED000F8BD202B01D0302BF6D1702281689143D0
:100EE000693A13430B431AE0602B35D019D8502BC5
:100EF000EAD14A68CB68016A046A1B01BC43F02747
:100F000004628469BC4323430A24A1430A438361E6
:100F100002627022836893431A005723134383604D
:100F2000D2E7702B0DD0802292019342CCD1CB68B6
:100F30004A688968FFF7A0FF80232268DB01916877
:100F400007E0CB684A688968FFF796FF7723226835
:100F500091680B439360B7E710244B68CA68016A35
:100F6000154FA1430162846912033C402243A0242F
:100F7000016A82617022A1431B010B4303628368F3
:100F800093431A006723C9E74A68CB68016A046A79
:100F90001B01BC43F02704628469BC4323430A2439
:100FA000A1430A43836102627022836893431A005B
:100FB0004723B3E78800FFFFFF0FFFFF1F2310B594
:100FC000012419408C408A40036AA3430362036AE8
:100FD0001A43026210BD000010B504000C290ED89F
:100FE0000800FFF79BF8070C0C0C280C0C0C2C0CC1
:100FF0000C0C300002232268D0680343D360012226
:101000002068FFF7DBFF2368144A93421FD0144A7D
:1010100093421CD0134A934219D0134A934216D0DC
:1010200007219A680A40062A03D0012219680A4358
:101030001A60002010BD22680423D068DDE7226812
:101040000823D068D9E722681023D068D5E780222A
:10105000596C12020A435A64E2E7C046002C014070
:1010600000400140004401400048014070B50400C8
:1010700002223C34257803001000012D1ED01D00F3
:1010800070261B6801383D3520702A7058689A68B0
:10109000B0430E68304358600948834205D0094880
:1010A000834202D00848834204D1802049688243A9
:1010B0000A439A60012300202B70207070BDC04647
:1010C000002C0140000400400040014070B50400C5
:1010D0002569A36802682B436569C1692B431068C1
:1010E000434D0B4328400343136053684148256A2E
:1010F0000340E06803435360A36990682B433E4D6F
:1011000028400343936080233C481B02824210D155
:1011100003203B4A126B02403A48805C994213D04C
:10112000082828D8FEF7FAFF412746275727272700
:101130005A003548824256D1994236D1FFF7A0FC79
:10114000636840005B080BE008281ED8FEF7DCFF50
:10115000F61D051D151D1D1D1800636858082B4B35
:10116000C0186168FEF7E4FF83B200201A00284926
:10117000103A8A420CD9012013E0FFF7CBFBDFE7DE
:101180006368580880235B02EAE701200023EDE74B
:101190000F22190091430A001B0721685B0F1343BC
:1011A000CB6000232366636670BDFFF769FC63684C
:1011B0005B0802E063685808164BC0186168FEF7C8
:1011C000B7FF83B200201A001149103A8A42D2D8E0
:1011D0002268D360E5E7FFF79DFBE8E763685808FE
:1011E00080231B02E9E79942CFD001200023EAE7E0
:1011F000F369FFFFFFCFFFFFFFF4FFFF003801405F
:101200000010024068280008004400400024F40058
:10121000EFFF000000127A00436A30B5DA0706D506
:101220000168284C4A682240846A22434A609A072F
:1012300006D50168244C4A682240C46A22434A60A9
:101240005A0706D50168214C4A682240046B2243A4
:101250004A601A0706D501681D4C4A682240446B53
:1012600022434A60DA0606D501681A4C8A68224091
:10127000846B22438A609A0606D50168164C8A68F8
:101280002240C46B22438A605A0610D50168134D70
:101290004A68046C2A4022434A60802252039442E6
:1012A00005D14A680E4C2240446C22434A601B061A
:1012B00006D502680B4953680B40816C0B435360A1
:1012C00030BDC046FFFFFDFFFFFFFEFFFFFFFBFF3E
:1012D000FF7FFFFFFFEFFFFFFFDFFFFFFFFFEFFFDE
:1012E000FFFF9FFFFFFFF7FFF7B5802704000E0009
:1012F000150001933F012268D36933409B1B59427B
:101300004B41AB4201D000201CE0089B0133F3D0DD
:10131000FEF7DAFF019B089AC01A2368824201D3C4
:10132000002A10D11A6813490A401A609A68A3313A
:10133000FF318A439A6020236367A3670023032059
:1013400070342370FEBD04211A680A42D3D0DA69D2
:101350003A42D0D01F621A6806490A401A609A6859
:10136000A331FF318A439A6020236367A367E36751
:10137000E4E7C0465FFEFFFF73B500260400C667C2
:10138000FEF7A2FF236805001B681B0715D423681E
:101390001B685B070AD580210E4B00220093C9030E
:1013A0002B002000FFF7A0FF002811D120230020F0
:1013B0006367A367703420700BE08021054B320017
:1013C0000093890303002000FFF78EFF0028DED082
:1013D000032076BDFFFFFF0110B5041E01D10120DF
:1013E00010BD436F002B04D102007032137000F067
:1013F0000DFA2423012122686367136820008B43C0
:101400001360FFF763FE0128E9D0636A002B02D066
:101410002000FFF701FF236807495A6820000A40AF
:1014200008215A609A688A439A60012219680A431F
:101430001A60FFF7A1FFD3E7FFF7FFFF30B5074CB6
:10144000655C205CA15CE25C054B1870054B1D706F
:10145000054B1970054B1A7030BDC04608000020BE
:10146000A8000020AA000020AB000020A900002056
:1014700070B5102690B03022002104A800F09DFA2B
:1014800032000021684600F098FAA02302240125CA
:101490009B0304A80E930494079508960C94FFF7F9
:1014A00037F807230093002329006846019402932C
:1014B0000393FFF761FA10B070BD000070B592B0F1
:1014C000FEF7E6FEFFF7D4FF142200210BA800F080
:1014D00074FA80209A4B0003596900240143596132
:1014E0005A691125024080200192019A5969C0036E
:1014F000014359615A690126024080200292029AF2
:10150000596980020143596180215A69C902024028
:101510000392039A5A6990200A435A615B69002238
:101520000B40F82104938900C005049BFEF7E4FFFB
:10153000002268218348FEF7DFFF80239B010B9385
:10154000814B0BA981480C930D94FEF71FFF90204F
:1015500012230BA9C0050B930C940D94FEF716FFF4
:101560009020E0230BA9C0050B930C950D940E94CD
:10157000FEF70CFF0BA973480C940D940B96FEF725
:1015800005FFC02390209B000BA9C0050B930D9471
:101590000E940C96FEF7FAFE48230BA969480B93AC
:1015A0000C950D940E94FEF7F1FE20230BA96548CF
:1015B0000B930D940E940C96FEF7E8FE6448654B71
:1015C0008460036096231B0243600C23C460436164
:1015D00004618461C46104624462FFF7FDFE21007E
:1015E000102207A800F0E9F92100082205A800F060
:1015F000E4F91C2221000BA800F0DFF9564D574BEF
:1016000028002B606C60AC60EC602C61AC61FFF773
:1016100053FB802307A95B0128000793FFF738FCE1
:101620002800FFF764FB05A9280005940694FFF73E
:101630001DFD602322000BA928000B930C940D9430
:101640000F94FFF7AFFB280000F0B8F82100280046
:10165000FFF7C2FC220008213A48FEF74DFF962012
:10166000FEF738FEFA25320008213648FEF744FF1F
:1016700005346D00E0B2030002000100FFF7DEFE5A
:101680002100374800F0A2F9013C2800FEF722FEB5
:10169000002CEFD164259024E40520212000FEF7E2
:1016A00031FF2800FEF716FE40212000FEF72AFF3A
:1016B0002800FEF70FFE80212000FEF723FF280000
:1016C000FEF708FE40211F48FEF71CFF2800FEF72A
:1016D00001FE02212000FEF709FF021E0BD10821A6
:1016E0001848FEF709FF9620FEF7F4FD01220821B5
:1016F0001448FEF701FF10212000FEF7F7FE021E3E
:101700000BD108210F48FEF7F7FE9620FEF7E2FD09
:10171000012208210B48FEF7EFFE01210948FEF7E0
:10172000E5FE021EB9D108210648FEF7E5FE962027
:10173000FEF7D0FD012208210248FEF7DDFEAAE7F0
:10174000001002400004004800002110000800487A
:10175000EC00002000440040AC00002000040040E9
:101760006C28000801200A4B82B0996901439961F5
:1017700080219A69490502400092009ADA690A4379
:10178000DA61DB690B400193019B02B07047C046F0
:1017900000100240074B026882B09A4208D1022032
:1017A000054AD1690143D161D36903400193019B8B
:1017B00002B07047000400400010024010B5040061
:1017C00086B01422002101A800F0F7F80C4B226823
:1017D0009A4213D180200B4AC002516901435161E2
:1017E000536901A903400093009B102301930E3B12
:1017F00002930548013B0593FEF7C8FD06B010BDF6
:1018000000040040001002400004004810B504002D
:1018100088B01422002103A800F0CFF8104B2268F2
:101820009A421BD180220F4B9202D969902011431A
:10183000D961D969C00511400191019959691143D4
:1018400059615B6903A91A400292029B0C2303931E
:101850000A3B0493013B0793FEF798FD08B010BDC7
:1018600000440040001002407047FEE77047704798
:1018700010B5FEF71DFD10BD70B50E0015000C0073
:10188000A31B9D4201DC280070BD00E000BF20705A
:101890000134F5E770B50E0015000C00A31B9D4246
:1018A00001DC280070BD207800E000BF0134F5E7BE
:1018B0000A4B10B519680200002901D108491960C6
:1018C0006946186882188A4206D900F043F80C234A
:1018D00003600120404210BD1A60FCE79800002020
:1018E0007001002001204042704780239B010020AE
:1018F0004B60704701207047002070477047000020
:101900000D4885460D480E490E4A002302E0D45882
:10191000C4500433C4188C42F9D30B4A0B4C002337
:1019200001E013600432A242FBD3FFF7E7FF00F0AF
:1019300017F8FFF7C3FDFEE700200020000000209D
:101940007C000020282900087C0000207001002075
:10195000FEE70000014B18687047C04618000020E1
:1019600070B500260C4D0D4C641BA410A64209D185
:10197000002600F05DFF0A4D0A4C641BA410A6422D
:1019800005D170BDB300EB5898470136EEE7B300C0
:10199000EB5898470136F2E7202900082029000873
:1019A0002029000824290008002310B59A4200D1FC
:1019B00010BDCC5CC4540133F8E703008218934295
:1019C00000D1704719700133F9E700000FB40B4BD9
:1019D00013B51C68002C05D0A369002B02D1200090
:1019E00000F050F805AB049AA1682000019300F0C4
:1019F00065F916BC08BC04B01847C04618000020A2
:101A000010B5024900F0B2F810BDC046B925000873
:101A1000002310B504000360436083608181436646
:101A2000C281036143618361190008225C30FFF7C2
:101A3000C4FF054B24626362044BA362044BE36260
:101A4000044B236310BDC046292200085122000820
:101A500089220008B522000870B568254A1E554342
:101A60000E002900743100F0A3F8041E08D00021F4
:101A70002A00016046600C30A0606832FFF79DFFCD
:101A8000200070BD836913B50400002B28D1836446
:101A9000C3640365134B144A1B6882620193984226
:101AA00001D101238361200000F020F86060200054
:101AB00000F01CF8A060200000F018F80022E060A0
:101AC00004216068FFF7A4FF01220921A068FFF745
:101AD0009FFF02221221E068FFF79AFF0123A36112
:101AE00013BDC04688280008011A0008F8B51E4B2F
:101AF00007001E68B369002B02D13000FFF7C2FF58
:101B00004836B4687368013B04D53368002B07D0AE
:101B10003668F6E70C22A55E002D0DD06834F2E79A
:101B200004213800FFF798FF30600028F0D10C2323
:101B300004003B602000F8BD012320005B42E381EC
:101B40000233A38165662560A560656025616561D6
:101B5000A561082229005C30FFF72FFF6563A563AC
:101B6000A564E564E6E7C04688280008F7B50400E8
:101B70000700002601914834002C01D13000FEBD41
:101B80006368A5680093009B013B009301D524681E
:101B9000F2E7AB89012B08D90E22AB5E013304D0EA
:101BA00029003800019B984706436835EBE70000A1
:101BB000032370B5CD1C9D43083506000C2D1ED2A5
:101BC0000C25A9421DD8300000F0ADFD254A14684F
:101BD0002100002919D1244C2368002B03D13000A7
:101BE00000F010FB20602900300000F00BFB431CCC
:101BF0002CD10C233000336000F096FD03E0002D63
:101C0000DFDA0C233360002070BD0B685B1B1AD435
:101C10000B2B03D90B60CC18256003E08C420ED14E
:101C200063681360300000F07FFD200007220B3056
:101C3000231D9043C31AE7D05A42E250E4E74B68B1
:101C400063600C00EEE70C004968C2E70323C41C84
:101C50009C43A042E0D0211A300000F0D3FA431C8C
:101C6000DAD1C6E79C000020A0000020936810B5E0
:101C7000013B9360002B05DA9469A34208DBCBB2E9
:101C80000A2B05D01368581C10601970C8B210BD1B
:101C900000F016FBFBE7F8B506000F001400D5189E
:101CA000AC4201D1002007E021783A003000FFF774
:101CB000DDFF0134431CF3D1F8BD0000F0B59FB047
:101CC00006000F0014000593002804D08369002B40
:101CD00001D1FFF7D7FE7F4B9F425CD17768BB896C
:101CE0001B0762D53B69002B5FD0002306AD6B61FB
:101CF00020336B761033AB760294029C2378002B52
:101D00005DD1029BE31A04930DD0049B029A390023
:101D10003000FFF7C0FF431C00D1CCE06A69049B90
:101D2000944663446B612378002B00D1C3E0012209
:101D3000002352426A6002A95432521801342B60C7
:101D4000EB60AB601370AB6521780522624800F050
:101D5000DFFC631C9C46002835D12968CB0604D5DE
:101D6000532302AA20309B1818700B0704D5532365
:101D70002B2002AA9B18187023782A2B2CD0002025
:101D80000A21099B2278303A092A00D86BE0002802
:101D90002AD0099328E0514B9F4201D1B7689EE7B2
:101DA0004F4B9F429BD1F76899E73900300000F014
:101DB000F1FA002899D0012040421FB0F0BD252B38
:101DC0009FD001349AE7444B2968C01A012383400D
:101DD0000B432B606446B7E7059B181D1B680590F5
:101DE000002B3ADB0993644623782E2B0BD16378C2
:101DF000621C2A2B3FD1059B02341A1D1B680592D9
:101E0000002B35DB079321780322364800F080FC55
:101E1000002807D0334B2A68C01A4023834013435D
:101E20002B6001342178631C06222F480293297607
:101E300000F06EFC002844D02C4B002B2FD12968D9
:101E4000059B0722C90528D59B18934308330593A2
:101E50006B69039A9B186B614FE75B42EB6002234F
:101E60000B432B60BFE74B4301349B18012089E7EC
:101E700001235B42C6E7002314000A201A006B60AE
:101E800021783039092903D9002BBCD00792BAE751
:101E90004243013452180123F2E70733D5E705AB7B
:101EA00000933A00124B2900300000E000BF03907D
:101EB000039B0133CCD1BB895B0600D57BE70B9834
:101EC0007BE705AB00933A00094B2900300000F096
:101ED0007FF8ECE7AC280008EC280008CC280008C4
:101EE0008C280008F2280008F628000800000000EE
:101EF000971C0008F7B5150001938A680B690090DC
:101F00000C00934200DA130022002B604332127857
:101F1000002A01D001332B6023689B0602D52B6871
:101F200002332B60062723681F4027D0230043334A
:101F30001B785A1E93412268920630D422000199E0
:101F400043320098089EB047431C25D006232068E2
:101F50002A68E16803400025042B03D18D1AEB4366
:101F6000DB171D40A3682269934201DD9B1AED181F
:101F70000027BD4220D1002010E00137E3682A6825
:101F80009B1A9F42D2DA220001231932019900984C
:101F9000089EB047431CF0D101204042FEBD3020D6
:101FA000E1184331087021005A1C45310978A21804
:101FB000433202331170C1E7220001231A32019922
:101FC0000098089EB047431CE6D00137D1E70000D7
:101FD000F0B58BB006920A00433207930590049245
:101FE0000A7E0C00109B6E2A00D18FE017D8632A5E
:101FF0002CD008D8002A00D199E0582A54D02600C5
:102000004236327029E0642A01D0692AF7D121686A
:102010001A68080623D5111D1960156825E0732A72
:1020200000D188E008D86F2A29D0702AE7D1202271
:1020300009680A43226003E0752A20D0782ADED19D
:1020400022007821453211706C4A30E00E001A6887
:102050004236111D196013683370012379E0490677
:10206000D9D5111D19600023D55E002D03DA2D236B
:10207000049A6D421370624B0A2703932FE0206885
:102080001968050603D5081D18600D6805E04006AF
:10209000F9D50D68081D1860ADB2594B0827039398
:1020A0006F2A18D00A2716E045310A70544A039265
:1020B0001A682168101D18601568080622D5CB071C
:1020C00002D52023194321601027002D03D120239E
:1020D00022689A4322602300002243331A70636807
:1020E000A360002B5CDB0422216891432160002D5A
:1020F00058D1049E002B64D02600039B42361B78E7
:1021000033705EE04806DAD5ADB2D8E709681A68E0
:10211000080605D5111D1960136862691A6006E08A
:102120004906F7D5111D19601368A28A1A80002389
:10213000049E236154E01A68111D1960166800217D
:102140006268300000F0E4FA002801D0801B606073
:10215000636823610023049A137041E0236932000D
:1021600006990598079DA847431C43D0236800257E
:102170009B070FD4099BE06898423DDA18003BE0CA
:1021800022000123193206990598079EB047431C87
:1021900030D00135E368099A9B1A9D42F0DBE9E7EC
:1021A000002DA9D0049E28003900FEF747F8039BB4
:1021B000013E5B5C280033703900FDF7B9FF051E56
:1021C000F1D1082F09D12368DB0706D5636822699E
:1021D000934202DC3023013E3370049B9B1B23613E
:1021E000079B09AA00932100069B0598FFF782FE32
:1021F000431CB3D1012040420BB0F0BD0E290008B2
:10220000FD280008002370B5064C05000800236077
:10221000FFF74EFB431C03D12368002B00D02B603B
:1022200070BDC0466C01002070B50C000E25495FE2
:1022300000F0C6FA002803DB636D1B18636570BDF0
:10224000A389024A1340A381F9E7C046FFEFFFFFCD
:10225000F8B51F008B8905000C001600DB0505D5BD
:102260000E23C95E0022022300F0D2F9A389054A99
:1022700028001340A38132000E23E15E3B0000F0F2
:1022800075F8F8BDFFEFFFFF70B50C000E25495F34
:1022900000F0BEF9A389421C03D1054A1340A38173
:1022A00070BD802252011343A3816065F8E7C046E8
:1022B000FFEFFFFF10B50E23C95E00F0E1F810BD7F
:1022C000F8B505000E001400002804D08369002B27
:1022D00001D1FFF7D7FB224B9C422DD16C68A3693B
:1022E000A360A3891B0731D52369002B2ED0236857
:1022F0002269F7B2981A6369F6B2984205DB2100A9
:10230000280000F059F9002826D1A3680130013BCC
:10231000A36023685A1C22601F706369984204D02E
:10232000A389DB071AD50A2E18D12100280000F056
:1023300043F9002812D00FE00A4B9C4201D1AC684F
:10234000CDE7094B9C42CAD1EC68C8E721002800C0
:1023500000F020F80028CAD0012676423000F8BDEF
:10236000AC280008CC2800088C28000870B50500AF
:10237000080011000022064C22601A00FFF78AFABA
:10238000431C03D12368002B00D02B6070BDC046D6
:102390006C010020364B70B51D6806000C00002D46
:1023A00005D0AB69002B02D12800FFF76BFB314B46
:1023B0009C420FD16C680C23E25E93B219072DD4B6
:1023C000D90611D409230120336037331343A38185
:1023D000404270BD284B9C4201D1AC68EBE7274BD3
:1023E0009C42E8D1EC68E6E75B0713D5616B0029F6
:1023F00008D023004433994202D0300000F096F90F
:10240000002363632422A3899343A3810023636091
:10241000236923600823A2891343A3812369002B26
:102420000BD1A0218022A389890092000B40934206
:1024300003D02100300000F027F90123A2891340C6
:1024400011D00023A36063695B42A361002023696C
:102450008342BED10C23E25E1306BAD54023134358
:10246000A3810138B5E7920700D46369A360EDE763
:1024700018000020AC280008CC2800088C28000890
:10248000002370B5064C050008002360FFF72AFA08
:10249000431C03D12368002B00D02B6070BDC046C5
:1024A0006C010020F7B58A8905000C00130760D481
:1024B0004B68002B04DC0B6C002B01DC0020FEBD04
:1024C000E76A002FFAD000232E682B6080235B017F
:1024D0001A4034D0606DA3895B0706D56368C01AC3
:1024E000636B002B01D0236CC01A0200216A002309
:1024F0002800E76AB847A189431C06D12B681D2B29
:1025000031D82C4ADA40D3072DD5002363602369E4
:102510002360CB0405D5431C02D12B68002B00D1CE
:102520006065616B2E600029C8D023004433994256
:1025300002D0280000F0FAF800206063BFE7012312
:10254000216A2800B847431CC5D12B68002BC2D094
:102550001D2B01D0162B01D12E60AFE74023A2899D
:102560001343A381ABE740230B430120A3814042E7
:10257000A5E70F69002FA1D00B680F60DB1B01934B
:102580000023920700D14B69A360019B002B00DC64
:1025900094E7019B3A00216A2800A66AB047002808
:1025A00003DC4023A2891343DFE7019B3F181B1A7A
:1025B0000193EAE7010040200B6970B505000C00AB
:1025C000002B01D1002070BD002804D08369002BAE
:1025D00001D1FFF757FA0B4B9C4209D16C680C22D2
:1025E000A35E002BEED021002800FFF75BFFEAE797
:1025F000054B9C4201D1AC68F1E7044B9C42EED103
:10260000EC68ECE7AC280008CC2800088C2800080F
:1026100070B50500080011000022064C22601A0067
:10262000FFF76AF9431C03D12368002B00D02B600D
:1026300070BDC0466C01002070B50E001D000E2359
:10264000C95E90B01400002907DA00232B60B3891B
:102650001B0611D48023DB000FE001AA00F0C4F8B0
:102660000028F2DBF022029B12021340054A9B185D
:102670005A4253412B60EDE740230020236010B005
:1026800070BDC04600E0FFFFF7B502268B8905004C
:102690000C00334206D0230047332360236101231B
:1026A0006361F7BD01AB6A46FFF7C6FF00990700FB
:1026B0002800FFF77DFA002808D10C22A35E9A05B6
:1026C000EFD4032293431E43A681E4E70F4BAB6292
:1026D0008023A28920601343A381009B2061636152
:1026E000019B002B0DD00E23E15E280000F08EF838
:1026F000002806D00322A38993431A000123134321
:10270000A381A0893843A081CBE7C046011A000805
:10271000C9B28218904201D10020704703788B42E1
:10272000FBD00130F6E770477047000070B5050038
:10273000002910D00C1F2368002B00DAE4182800B1
:10274000FFF7F1FF1D4A1368002B05D16360146089
:102750002800FFF7E9FF70BDA34209D9216860187E
:102760008342F3D118685B6841182160EEE71300DB
:102770005A68002A01D0A242F9D919685818A04213
:102780000BD120680918581819608242E0D11068EE
:102790005268411819605A60DAE7A04202D90C2346
:1027A0002B60D5E721686018824203D11068526817
:1027B0004118216062605C60CAE7C0469C0000204E
:1027C00070B50500080011000022064C22601A00B6
:1027D000FFF752F8431C03D12368002B00D02B6075
:1027E00070BDC0466C010020002370B5064C05008A
:1027F000080011002360FFF778F8431C03D1236819
:10280000002B00D02B6070BD6C010020002370B540
:10281000064C050008002360FFF76CF8431C03D149
:102820002368002B00D02B6070BDC0466C010020D7
:10283000F8B5C046F8BC08BC9E467047F8B5C0461F
:08284000F8BC08BC9E4670477D
:1028480002030405060708090A0B0C0D0E0F1010E9
:102858000102030405060708090A0B0C0D0E0F10E8
:102868000004080225640A000000000000000000BF
:10287800010203040607080900000000010203041E
:102888001C00002000000000000000000000000004
:102898000000000000000000000000000000000030
:1028A8000000000000000000000000000000000020
:1028B8000000000000000000000000000000000010
:1028C8000000000000000000000000000000000000
:1028D80000000000000000000000000000000000F0
:1028E80000000000232D302B2000686C4C0065662A
:1028F8006745464700303132333435363738394149
:10290800424344454600303132333435363738395E
:08291800616263646566000062
:04292000E9000008C2
:04292400C1000008E6
:102928000100000004000000C0F9A4B0999282F8E8
:102938008090000000127A001C00002000000000B7
:10294800AC280008CC2800088C28000800000000EB
:10295800000000000000000000000000000000006F
:10296800000000000000000000000000000000005F
:10297800000000000000000000000000000000004F
:10298800000000000000000000000000000000003F
:0C29980000000000000000000000000033
:0400000508001901D5
:00000001FF
