:020000040800F2
:10000000B8060020C9000008D1000008D30000088D
:1000100000000000000000000000000000000000E0
:10002000000000000000000000000000452C000857
:100030000000000000000000ED290008492C000825
:10004000DB00000800000000DB000008DB00000807
:10005000DB000008DB000008DB000008DB00000814
:1000600000000000BD090008DB000008DB000008FC
:10007000DB000008DB000008DB00000800000000D7
:10008000DB0000082D2D000800000000DB00000848
:10009000DB000008DB000008DB000008DB000008D4
:1000A000DB000008DB000008DB000008DB000008C4
:1000B000DB0000080348854600F062FB004800476B
:1000C000F93B0008B8060020044880470448004770
:1000D000FEE7FEE7FEE7FEE7FEE7FEE7D12C0008BD
:1000E000B500000830B50B4601460020202201244F
:1000F00009E00D46D5409D4205D31D469540491B5C
:100100002546954040191546521E002DF1DC30BDA4
:1001100070B500242546002801DA01244042002958
:1001200001DA01254942FFF7DDFFAC4200D0404231
:10013000002C00D0494270BD10B5202A04DB0846CF
:10014000203AD040002110BD0B46D340D04020249F
:10015000A21A91400843194610BDD2B201E00270C4
:10016000401C491EFBD270470022F6E710B513462B
:100170000A4604461946FFF7F0FF204610BDF8B5C1
:1001800002464A40D40F42004B0052085B089A4294
:1001900002D20246084611464A0023D0C30D4A0047
:1001A000DDB2120EAD1A202D35DA49020126490AB8
:1001B000F6058A19002C00D0524220214F1B11460F
:1001C000B9402A411018C20D9A4221D0002C17D0F4
:1001D000012D08DCDA05801AD20F8019D207DBB2B4
:1001E00000F0CFF8F8BDDA05801A012340001B06A5
:1001F000C01880185A428018CA0F1043490007E0FF
:100200004908C2071143DA05801A8019400880188E
:1002100000F0AFF8F8BD61000122511A001BF7E7AA
:100220000122D2075140AAE70122D2075040A6E797
:1002300070B502464A40D50F40004A00ED0740081D
:100240005208002814D0002A12D0C40DD30D410248
:100250000120C0055202490A520AE41A091812186C
:100260007D34914201D3641C00E04900002C01DA86
:10027000002070BD0023914201D3891A0343400836
:1002800049000028F7D100290AD0914202D101216A
:10029000C90705E0914201D2012101E00121C943D2
:1002A000E005C018401900F064F870BDC217C10F16
:1002B000504010B54018CA079623002100F061F89D
:1002C00010BD410040020122400AD205090E8018EB
:1002D0007F2901DA00207047962903DC9622511A03
:1002E000C8407047963988407047C20FD207400017
:1002F00040080BD0C10D0723DB01C91840020905D6
:10030000400A1143C20840071143704700200146CC
:100310007047F0B51FB40646002082B00546402461
:10032000019100901BE0019922460F463046FFF7ED
:1003300003FF049A059B801A994110D31046194671
:10034000224600F02FFA361A8F41019722460120EB
:100350000021009F00F026FA38184D4100902046F9
:10036000641E0028DFDC019B00982946324607B056
:10037000F0BD002904DA401C490001D140084000CA
:10038000704770B40024050C05D11024000402D17C
:10039000002921D01124050E01D100020834050FD7
:1003A00001D10001241D850F01D18000A41C00286B
:1003B00001DB4000641C002908D020252E1B0D46BF
:1003C000F540A14000D001212943084301061B1B31
:1003D000000ADB1D02D5002070BC7047DB05181831
:1003E00080180029F8DA401C4900F5D170BC40089B
:1003F00040007047F0B507460846584087B0C00F28
:10040000049048000E46590040084908BC1A88412B
:1004100005D2384631461E4617460B46024658005E
:10042000400810434CD0300D039040055900400D5A
:10043000490D0590401A0290402872DA18030121F4
:10044000000B09050843019004980092002805D08C
:100450000199524200208841009201900298402167
:100460000A1A0199009800F09DF905460C466B4662
:1004700007CB00F0A7F9C0197141039A0E0D0023B4
:10048000D71756401A467A40164344D0049A002A99
:100490002DD0029A012A039A15DC1205C01A914147
:1004A00001263605001C7141D20F059ED20700932C
:1004B000019202962A46234600F0A4F907B0F0BD47
:1004C00038463146FAE71605224A0F46B218C01AD6
:1004D000B74101210905001C4F4100187F41114619
:1004E00018187941E20F10436D19644113E0E207D7
:1004F0006D0815436408C2071443039A01261205C8
:10050000C01A91413605001C7141CE0740083043A6
:100510004908C01851412A46234600F066F9CDE744
:10052000FFE7049801224000C117121A00238B41F3
:1005300004983146C417381AA141EEE730B40124BB
:10054000E407634030BC55E730B40124E407614060
:1005500030BC4FE70000E0FFF0B51FB488B00B9946
:100560000998002448400999C00F49004908099199
:10057000C0070B990090490049080B910999089808
:10058000A64608431CD00B990A98084318D009982E
:1005900001244000420D4800410D09982405000344
:1005A000000B204309900B980003000B20430B9095
:1005B00050181C494018002201901446104605E0CE
:1005C000002001460DB0F0BD032801DA034600E02B
:1005D00003239C46C11A0AAE0AE05F0008ADED5B3A
:1005E0004F00F75B7D430027AA187C41491C5B1E26
:1005F0006145F2DD410004AB5A522104120C0A435A
:10060000240C401C0828DFDB0198029000997046FA
:1006100001910090059B049A0799069800F0F2F862
:10062000D0E700000DFCFFFFF0B50C465C4085B044
:10063000E40FE40703944C00002664085900944634
:10064000490802460296224321D062460A431ED040
:100650006200570D4A000E032303550D0124024684
:100660002C492405781B1B0B360B401823432643CB
:10067000614600901C46501AB44103D30098401CB8
:10068000009002E0921800985B41002803DA0020F5
:10069000014605B0F0BD0020012109050746864648
:1006A00011E064461D46141BB54106D36546521B36
:1006B000B341744607430C43A646CD07400849089A
:1006C000284392185B4105460D43EAD11046184372
:1006D00013D06046194650407140084306D060462A
:1006E000101AB34106D20122002306E000220123A2
:1006F000DB0702E00122D243531000987446010543
:10070000381C6141029C039D0019694100F06DF89D
:10071000BFE70000FD0300004A0009030123090BA5
:100720001B0519430A4B10B5520D9A4202DA0020FC
:10073000014610BD064B34339A4203DC9A1AFFF788
:10074000FBFC10BD034BD21800F02CF810BD0000CC
:10075000FF030000CDFBFFFF10B5002904DB0124DF
:10076000E40740428C412146002B04DB1C46012358
:10077000DB075242A341994200D1904210BD0000D4
:10078000064C0125064E05E0E36807CC2B430C3CE4
:1007900098471034B442F7D3FFF790FC683E000846
:1007A000883E000810B5202A04DB0146203A91401B
:1007B000002010BD914020239C1A0346E3401943BA
:1007C000904010BD10B5202A06DBCB170846203A12
:1007D0001041C1170B4306E00B461341D0402024C3
:1007E000A21A91400843194610BD10B5002B08DA33
:1007F0000024401C614192185B411A4301D140081A
:10080000400010BDF0B51FB482B005460C0003D007
:10081000084602F05DFD02E002F05AFD203002467B
:10082000009021462846FFF7BDFF049B059A044629
:100830000F4618431143084314D0184610431BD0E9
:10084000009840210A1A18460599FFF775FC0546DD
:100850000E46009A05990498FFF7A4FF084305D0B7
:10086000012004E02046394607B0F0BD0020C11742
:1008700005430E432C43374300990E986305401AF5
:100880007905E40A00220C43FD0A0A3002D5002053
:100890000146E9E70105101969410C9C0D9D0019FD
:1008A0006941FFF7A2FFDFE710B50146406A426CDD
:1008B00050231A420AD1416C012252021143416471
:1008C0000168CA681205920F05D020E0C06B026B68
:1008D0000846904710BD026A002A18D10A6812071C
:1008E00015D58A6801235207002A09DB4A680C24BF
:1008F000A2434A60416C1A0291431943416406E0E5
:10090000416C202211434164816C1943816400F0E1
:1009100049F910BD10B5406A416C40221143416451
:10092000816C04221143816400F03EF910BD10B5C2
:10093000406A00F038F910BDF8B504460020009078
:10094000206881688907890F012905D10168C907D5
:100950002CD1C168090429D48168154A1026114098
:100960000125002915D18168294381601248114968
:100970000068FFF7B7FB00E0401E00900028FBD1A5
:1009800000F0DAFB07460CE000F0D6FBC01B0228A3
:1009900007D9606C30436064A06C2843A0640120D8
:1009A000F8BD20680068C043C007EDD10020F8BD45
:1009B0001700008040420F002800002010B50248B8
:1009C00000F052FA10BD00007002002010B504467D
:1009D0000068054940181421FFF784FB800020645B
:1009E0000248E06310BD0000F8FFFDBF00000240B8
:1009F00030B5056C0124AC40C56B6C600468636065
:100A00004368102B036803D099600068C26030BD52
:100A10009A600068C16030BD10B5044C205C615C18
:100A2000A25CE35C00F004F810BD000005000020AB
:100A300010B5034C6070A170E270237110BD00000E
:100A40000000002070B57D210446C900FFF74AFB75
:100A5000C5B27D20C0006843201A06466421FFF716
:100A600057FBC4B264206043361A0A213046FFF7B0
:100A70004FFBC2B20A205043044B301AC6B2585D35
:100A8000195D9A5C9B5DFFF7D3FF70BD05000020E8
:100A900070470000F8B500250446403400952278E0
:100AA000012A39D00123237002689668760767D43B
:100AB000384F4E68BE424DD0966A0F78BB401E43F9
:100AC00096620123826B1B079A421FD0012A1DD018
:100AD000022A1BD0032A19D0042A17D0052A15D0C0
:100AE000062A13D0072A11D002688B685669760748
:100AF000760FB3420AD05369DB08DB00536100680C
:100B000042690B7A5B075B0F1A4342610868102841
:100B100004D0112802D038E00220F8BD1E4B9A689C
:100B2000102807D00120800502439A600868102829
:100B300003D02AE00120C005F6E7194817490068EC
:100B4000FFF7D0FA0A21484300E0401E0090002839
:100B5000FBD11AE0906A0E78B3409843906208681F
:100B6000102801D0112810D10B498A68102804D010
:100B70000120800582438A6007E00120C005F9E773
:100B8000416C202211434164012500202070284639
:100B9000F8BD0000011000000027014040420F0096
:100BA000280000207047704770470000F8B5002506
:100BB0000446002803D0606C002802D008E0012021
:100BC000F8BD0020A06440210855204600F0A8F898
:100BD000606C1022C006002870DB2068816849071D
:100BE0006CD4616C130199430223194361648168D9
:100BF0008907890F012905D10168C9070FD1C1688B
:100C000009040CD4C16818239943A3681943C1602F
:100C100020680169636889008908194301612068B7
:100C2000C1683D4B1940C160A0698103E069C00300
:100C30000143206A43031943636B012B02D0012354
:100C40001B0300E000231943E36819432369022BC7
:100C500009D000231943236B666A5B001943012303
:100C6000012E02D00AE00423F4E7002827D0606CAC
:100C7000202630436064A06C1843A064A06A064636
:100C8000FF3EC23E02D0E66A304301432068C66898
:100C90000E43C6600126A06B3607B04213D0012870
:100CA00011D002280FD003280DD004280BD005281E
:100CB00009D0062807D0072805D010E028E0012039
:100CC00000040143DAE720684669F608F600466149
:100CD00020684669278F7F077F0F3E434661206863
:100CE000C0680E4E3040884207D10020A064606C7E
:100CF00080088000401C606408E0606C022188432A
:100D000010436064A06C1843A06401252846F8BD18
:100D1000606C10436064F8E71902FEFFE7FF3F8351
:100D200070B586B0064614216846FFF71DFA2149C2
:100D3000306888423CD120498A69401502438A6163
:100D40008A69024005924A69800202434A614A69FF
:100D5000024005924A69801002434A6149690324AE
:100D600001400591022000256A4631C269461348B8
:100D700000F038F901206A4631C209206946C006F0
:100D800000F030F90E480F4C21C4802025606060CF
:100D90004000A060256180006561E0600948083C72
:100DA00000F0B0F8002801D0FFF772FEF46366622D
:100DB00006B070BD00240140001002400008004849
:100DC0000800024070020020F7B5044600680025C4
:100DD000806840073DD426464036307801280AD046
:100DE00001273770E069012807D02046FFF7A4FDEE
:100DF000050002D02EE00220FEBD606C16490840BE
:100E0000FF210131084360640020A0643070E16B71
:100E100012488862E16B1248C862E16B11480863AE
:100E200021681C200860206841681022114341603D
:100E30002068C1683943C1602168E06B4031029B82
:100E4000019A00F08BF820688168042211438160C8
:100E500000E002252846FEBDFEF1FFFFA9080008BC
:100E60002F09000815090008F0B4C16B0C6801686F
:100E70000B680422056C1646AE4026420DD05E0774
:100E80000BD50B689B0602D40B6893430B60016C77
:100E90008A40C16B4A60C16A19E00227AF4002462E
:100EA000274001262032002F15D09F0713D50B684D
:100EB0009B0604D40B680A24A3430B605670036C92
:100EC00002219940C36B596000211170816A002989
:100ED00016D0F0BC08470827AF40274210D01B07A8
:100EE0000ED50B680E24A3430B60036C314699406A
:100EF000C36B59608663567000211170016BE6E781
:100F0000F0BC704770B5040023D002202546203580
:100F1000687020680168104AA368114062682669F9
:100F20001A43E36833431A4363691A43A3691A43B4
:100F3000E3691A430A4302602046FFF747FD002099
:100F4000A062E06220636063A06301216970287081
:100F500070BD012070BD00000FC0FFFFF8B5044652
:100F60008C46203001780025012909D00126067021
:100F700047780021012F05D0017002252846F8BDD1
:100F80000220F8BD02274770A16320680168490864
:100F90004900016061462046FFF72AFDE06A00280B
:100FA0002068016802D00E22114306E00A22114394
:100FB0000160206801680422914301602068016893
:100FC00031430160DAE731B500F0B6F8009C054620
:100FD000601C00D0641C00F0AFF8401BA042FAD3A4
:100FE00038BD0000F8B500228DE001249440A446ED
:100FF00023407DD04C68022C01D0122C0CD1D40897
:10100000A4002618356A5407E40E0F27A740BD43F5
:101010000F69A7402F433762066855000324AC4090
:101020000F79A643BF07BF0FAF40374307604E6835
:10103000012E05D0022E03D0112E01D0122E0ED17A
:101040008668CF68A643AF403743876047686646E7
:10105000B7430E79F606F60F96403E434660C668E3
:10106000A6438C68AC403443C4604C68E40049D566
:10107000284CA56901263543A561A469950834402B
:101080000094254CAD002F19BD689407240F0F263E
:10109000A640B5430926F606B04201D100260FE06E
:1010A0001E4EB04201D101260AE01D4EB04201D1D0
:1010B000022605E01B4EB04201D1032600E00526C2
:1010C000A6402E43BE60184D2C684E689C43F60324
:1010D00000D51C432C606C684E689C43B60300D559
:1010E0001C436C60AC684E689C43F60202D500E07D
:1010F00008E01C43AC60EC684E689C43B60200D527
:101100001C43EC60521C0B681C46D44000D06CE7BA
:10111000F8BD00000010024000000140000400483B
:1011200000080048000C004800040140002A01D0DB
:101130008161704781627047014800687047000014
:101140002400002070B5024640325378202B1CD179
:101150001378012B19D001241470242353700368D1
:101160001D68A5431D6003681D682603B5431D6007
:1011700003681D680D431D6000680168214301601C
:10118000202050700020107070BD022070BD70B51E
:10119000024640325378202B1BD11378012B18D0F4
:1011A000012515702423537003681C68AC431C6030
:1011B00003681C680F263602B443090221431960F4
:1011C00000680168294301602020507000201070E1
:1011D00070BD022070BD000070B5040006D0254629
:1011E000403568780026002802D005E0012070BD57
:1011F0002E70204600F0F0F9242068702068016805
:101200004908490001600F21606809068843216888
:101210000861206882680121C9038A438260E0680E
:101220000128A06808D02122920210432268906011
:10123000E068022802D005E00843F7E701202268B1
:10124000C0025060206842680F4B1A434260206819
:10125000C2688A43C260616920690843A1690902C2
:1012600008432168C860216AE06908432168086072
:1012700020680168012211430160666420206870C3
:101280002663AE70002070BD00800002FFB50446EA
:10129000002083B02546403501906A781F46202AF9
:1012A0007ED122689269D243120479D52A78012A24
:1012B00076D001222A7024226A7060648805800D2D
:1012C0000290E068012802980BD00521C90240185D
:1012D00001218902884321684860FFF72DFF0646F7
:1012E0000FE03049F3E7781C0BD0002F04D0FFF754
:1012F00023FF801BB84204D920206870002028708A
:1013000043E020688169C943890606D58069C043E6
:10131000C00602D56878A028E5D1206880693B46E0
:10132000C043C00600960ED500222021204601F0C1
:1013300013F9002829D121682020C8616870002095
:10134000287007B0F0BD00222021204601F004F9EA
:1013500000281AD121681020C86121682020C861A6
:101360000198411C01910599884214D12068416877
:1013700001229203114341603B4600222021204676
:10138000009601F0E9F8002802D00320D9E707E031
:1013900021682020C86101990598814291D3ABE76B
:1013A0000220CEE700200002FFB505460446403586
:1013B000687881B020287ED1287801287BD0012050
:1013C0002870FFF7B9FE0746012200901923D103C8
:1013D000204601F0C1F800283FD12220687010207B
:1013E000A87000266664039860620498608566634E
:1013F000618D09208002FF2903D9FF2222850090F8
:1014000034E0618D2185009036E02046029901F09C
:1014100091F836E001F0C4F8002803D0606C04288D
:1014200047D01AE02068416A606A421C626201701B
:10143000208D401E80B22085618D491E6185002867
:101440001FD1608D00281CD00097002280212046EB
:101450000A9B01F081F8002802D0032005B0F0BDFE
:10146000608DFF2805D9FF222285009601231B06E7
:10147000CBE7608D20850096208D0123C2B25B06EC
:10148000C3E7608D0A9900283A462046C2D101F090
:10149000C3F80028C2D120682022C26120684168B8
:1014A000064B194041606A70AE702E700020D5E77F
:1014B00001E00120D2E70220D0E7000000E800FEB2
:1014C000FFB5054604464035687881B020287ED1B6
:1014D000287801287BD001202870FFF72DFE0746D1
:1014E000012200901923D103204601F035F800288D
:1014F0003FD1212068701020A870002666640398F0
:101500006062049860856663618D01204003FF2955
:1015100003D9FF222285009034E0618D218500905F
:1015200036E02046029901F005F836E001F09BF81C
:10153000002803D0606C042847D01AE0606A411C80
:101540006162216800788862608D401E6085208D10
:10155000401E0004000C20851FD1608D00281CD087
:1015600000970022802120460A9B00F0F5FF00280A
:1015700002D0032005B0F0BD608DFF2805D9FF2201
:101580002285009601231B06CBE7608D20850096FF
:10159000208D0123C2B25B06C3E7608D0A99002843
:1015A0003A462046C2D101F037F80028C2D120685F
:1015B0002022C26120684168064B194041606A7070
:1015C000AE702E700020D5E701E00120D2E70220A6
:1015D000D0E7000000E800FE10B586B004461421F4
:1015E0006846FEF7C1FD1249206888421ED1114CA1
:1015F00061690120800401436161616901400591D5
:10160000032000020090122001210190032002918A
:101610000491039069460848FFF7E4FCE169012062
:1016200040050143E161E1690140059106B010BD4B
:1016300000540040001002400004004802480168C5
:10164000491C0160704700002400002010B50648C6
:101650000168102211430160002000F007F800F03B
:1016600017F8002010BD00000020024010B504460D
:1016700000F03CF97D21C900FEF734FD00F034FB99
:1016800000222146501E00F021F8002010BD00006D
:1016900008B50848816901221143816181691140BF
:1016A0000091C26901040A43C261C0690840009008
:1016B00008BD000000100240C106C90E012088408C
:1016C000014908607047000000E100E010B501F03A
:1016D0006BF910BDF8B504460068364DC00354D50B
:1016E000E8690026C00007D4E86929040843E861D6
:1016F000E8690840012600902F480168C90511D407
:10170000014608688A1510430860FFF715FD074673
:1017100004E0FFF711FDC01B642823D826480068A9
:10172000C005F6D5286A0321090208401FD0626867
:101730000A4082421BD0286A2A6A88430121090490
:101740000A432A622A6A8A432A622862C0070ED0A4
:10175000FFF7F2FC074607E0FFF7EEFCC11B174856
:10176000814201D90320F8BD286A8007F4D5286A90
:10177000032109028843616808432862002E04D0CF
:10178000E869012109078843E8612078C00705D08E
:10179000286BA168800880000843286320788006B1
:1017A00005D5286B10218843E16808432863002091
:1017B000F8BD0000001002400070004088130000D7
:1017C000F8B5044644480E460068C007C00FB04252
:1017D0000AD2414801684908490031430160006864
:1017E000C007C00FB0425CD120783C4F800705D5C0
:1017F0007868F0218843A168084378602078C007A2
:101800003FD06068012813D03968022813D08907B7
:10181000002946DA79688908890001437960FFF771
:101820008BFC0546606801280DD0022817D024E003
:1018300039688903ECE78901EAE7FFF77DFC411B82
:101840002748814217D878680007800F0128F4D113
:1018500017E0FFF771FC411B214881420BD87868E3
:101860000007800F0228F4D10BE0FFF765FC411B55
:101870001B48814201D90320F8BD78680007800F1A
:10188000F3D115480168C907C90FB1420BD90168E6
:1018900049084900314301600068C007C00FB042E9
:1018A00001D00120F8BD2078400706D578680721CF
:1018B00009028843E1680843786000F02DF87968F0
:1018C000084A0906090F515CC84007490860002012
:1018D000FFF7CCFE0020F8BD0020024000100240BF
:1018E00088130000503E00082800002001480068CE
:1018F0007047000028000020044805490068496836
:10190000044A4905490F515CC8407047280000202F
:1019100000100240603E000810B513A00FC888B048
:101920006C460FC414A00FC80FC4174B5A680C2084
:1019300011460140154804290FD008290DD1910204
:10194000090F6C46645CD96A04AB0907090F595C3E
:10195000D20304D5FEF7C6FB604308B010BD0C49A6
:1019600020464843F9E7000002030405060708097A
:101970000A0B0C0D0E0F10100102030405060708D8
:10198000090A0B0C0D0E0F100010024000127A0015
:1019900000093D00FEB504460078D04DC00746D092
:1019A00068680007800F012807D068680007800F6B
:1019B000022809D16868C00306D52868800336D597
:1019C000606800287ED032E00121606809040128A7
:1019D0000AD08A00002801D005280FD02868884343
:1019E00028602868904301E0286808432860606800
:1019F000002810D0FFF7A0FB064608E02868104337
:101A00002860F1E7FFF798FB801B64286FD82868EF
:101A10008003F7D50BE0FFF78FFB064604E0FFF7E6
:101A20008BFB801B6428F1D828688003F7D42078CA
:101A30000126800700283BDA68680007800F07D07E
:101A400068680007800F022809D16868C00306D4BF
:101A50002868800715D5E068012833D111E0E068D7
:101A60000028286815D030432860FFF765FB07463B
:101A700004E0FFF761FBC01B0228C7D82868800775
:101A8000F7D52868F82188432169C90008432860F0
:101A90000EE0400840002860FFF74EFB074604E0D8
:101AA000FFF74AFBC01B0228B0D828688007F7D48C
:101AB0002078000724D5E0690028686A10D03043F8
:101AC000686200E007E1FFF737FB074604E0FFF735
:101AD00033FBC01B022899D8686A8007F7D50FE04E
:101AE000400840006862FFF727FB074605E09DE0DD
:101AF000FFF722FBC01B022888D8686A8007F7D44A
:101B0000207804274007002860DA00200190E86967
:101B1000C00008D4E969B8060143E961E9690140F8
:101B20000120009101906E480168C90511D4016837
:101B3000821511430160FFF7FFFA009005E0FFF7FF
:101B4000FBFA0099401A642870D865480068C005FF
:101B5000F5D5A06801280AD0002801D0052810D0AA
:101B6000286A400840002862286AB84301E0286AD1
:101B700030432862A068002812D0FFF7DDFA0090F9
:101B80000AE0286A38432862F1E7FFF7D5FA00999E
:101B9000411A5448814249D8286A8007F5D50DE09A
:101BA000FFF7CAFA009006E0FFF7C6FA0099411A5B
:101BB0004C4881423AD8286A8007F5D40198002819
:101BC00004D0E969012000078143E9612078C0065B
:101BD00035D5606901280CD0401D686B23D038438F
:101BE0006863686B400840006863FFF7A5FA064623
:101BF00022E0686B38436863686B30436863FFF7C3
:101C00009BFA064604E0FFF797FA801B02285BD890
:101C1000686B8007F7D5686BF8218843A169C90014
:101C2000084368630BE0B8436863F4E74CE0FFF7F0
:101C300083FA801B022847D8686B8007F7D4206A94
:101C4000002846D069680907890F022943D0012777
:101C50003F060228286805D0B8432860FFF76CFAD1
:101C6000044633E0B8432860FFF766FA064604E00E
:101C7000FFF762FA801B022826D828688001F7D473
:101C8000E86AE16A000900010843E862616AA06A43
:101C9000084369683D22120491430843686028683C
:101CA00038432860FFF748FA044604E0FFF744FA97
:101CB000001B022808D828688001F7D509E0FFF743
:101CC0003BFA001B022801D90320FEBD28688001D1
:101CD000F5D40020FEBD0120FEBD00000010024032
:101CE0000070004088130000094910B5401E88426A
:101CF00001D9012010BD074C60610321081F00F0CD
:101D000053FE0020A06107202061002010BD0000CC
:101D1000FFFFFF0000E000E07047704770B502462B
:101D20002032137F012B27D001241477022353770D
:101D30000326CB683602B3438E6800253343A602E0
:101D4000B3434E6800683343E602B3430E6833433F
:101D50002603B3430E6933436603B3434E6989696F
:101D60003343A603B3430B43E603B3430B4343643C
:101D700054771577002070BD022070BD70B5024603
:101D80002032137F012B1BD00124147702235377B9
:101D900003685D687026B5435D6003685D680E6822
:101DA00035435D6003689D688026B5439D6000688B
:101DB000836849680B43836054770020107770BDB7
:101DC000022070BD70B5040005D025462035687F1F
:101DD000002802D006E0012070BD002028772046B0
:101DE00000F00AF802206877211D206800F0A8FFA3
:101DF00001206877002070BD08B50068174A1849AF
:101E0000904202D1CA69022017E0164A90420FD1CF
:101E1000CA6910200243CA61C969002201400091C9
:101E200011461120FFF752FC1120FFF745FC08BDB9
:101E30000D4A904207D1CA6980150243CA61C96937
:101E40000140009108BD094A9042FBD18A690120F6
:101E5000400402438A618969F2E7000000040040FF
:101E600000100240001000400020004000440140EB
:101E70000168CA6801231A43CA60006801681943EF
:101E8000016000207047F8B5054604462035287FDC
:101E9000012817D001272F770220687720688268F1
:101EA0007726FF23B2431B029A43826008685028BA
:101EB00036D00EDC202856D006DC00284DD0102865
:101EC0003FD14DE00220F8BD30284FD0402838D116
:101ED0003BE060282CD0702816D001221203801A13
:101EE0000DD090422DD1CB684A688968206800F0F7
:101EF00076FF206881680122920311430EE020687A
:101F00008168C908C90009E0CB684A688968206807
:101F100000F065FF20688168B1433143816010E0C3
:101F2000CA684968206801F069F85021206806E015
:101F3000CA684968206801F072F86021206800F0E2
:101F400059FF6F7700202877F8BDCA684968206874
:101F500001F054F840212068F1E700212068EEE705
:101F600010212068EBE720212068E8E73021206875
:101F7000E5E7704770B50446006801690025C9436C
:101F80008907002915DBC168C943890711D4E91EF7
:101F9000016101202077206880698007204602D0F7
:101FA000FFF7E7FF04E000F0E9F8204600F06AF9E7
:101FB000257720680169C943490717D4C168C94317
:101FC000490713D40421C943016102202077206806
:101FD00080698005800F204602D0FFF7CAFF04E029
:101FE00000F0CCF8204600F04DF925772068016913
:101FF000C943090716D4C168C943090712D4082187
:10200000C9430161042020772068C0698007204609
:1020100002D0FFF7AEFF04E000F0B0F8204600F079
:1020200031F9257720680169C943C90617D4C16809
:10203000C943C90613D41021C94301610820207780
:102040002068C0698005800F204602D0FFF791FF0D
:1020500004E000F093F8204600F014F9257720689A
:102060000169C943C90708D1C168C943C90704D177
:10207000891E0161204600F045F920680169C943C5
:10208000090609D4C168C943090605D48021C9439A
:1020900001612046FFF740FE20680169C9434906F7
:1020A00009D4C168C943490605D44021C943016127
:1020B000204600F028F920680169C943890609D43F
:1020C000C168C943890605D42021C943016120465E
:1020D000FFF723FE70BD000070B586B004461421E2
:1020E0006846FEF741F82048216800221F4B8142D4
:1020F00011D1596900130143596159690292014094
:10210000059110200090022001900120049003927C
:102110006946174812E0174E12253401A806B1424D
:1021200010D15969214359615969029221400591A1
:102130008021009101950392042112E0FEF752FFE5
:1021400006B070BD0C4EB142FAD1596921435961B4
:102150005969029221400591402100910195039215
:10216000052104916946E9E700040040001002409F
:102170000004004800200040004401407047F8B5CA
:10218000054604462035287F0E4601280DD0012043
:102190002877022068770427002A08D0042A16D05E
:1021A000082A2AD00C2A4DD137E00220F8BD206839
:1021B00000F028FE206881690822114381612068AF
:1021C0008169B943816120688169326912E02068C0
:1021D00000F05CFE206882690121C9020A43826125
:1021E000206881690122920291438161206881699E
:1021F000326912021143816124E0206800F086FEFA
:102200002068C26908210A43C2612068C169B943D4
:10221000C1612068C169326912E0206800F0B8FE2F
:102220002068C1690122D2021143C1612068C269DC
:10223000012189028A43C2612068C16932691202A0
:102240001143C1610120687700202877F8BD70B57F
:10225000040005D025462035687F002802D006E01E
:10226000012070BD00202877204600F00AF80220E7
:102270006877211D206800F063FD01206877002049
:1022800070BD70477047000010B502680446002911
:1022900006D0042907D0082926D00C2907D126E02A
:1022A000D068022301E0D06804231843D0600122E3
:1022B000206800F089FD0F482168814208D00E484F
:1022C000814205D00D48814202D00D48814204D19F
:1022D000486C0122D203104348642068016801223F
:1022E00011430160002010BDD0680823DDE7D068ED
:1022F0001023DAE7002C0140004001400044014077
:10230000004801407047704770B5040005D025466D
:102310006035687A002802D006E0012070BD0020F8
:102320002872204600F026F8242068722068016890
:10233000490849000160204600F0F2FE0128EDD076
:10234000606A002802D0204600F07CFE20684168C8
:102350000122D202914341602068816808229143A2
:10236000816020680168012211430160204600F06D
:10237000CEFE70BD10B586B0044614216846FDF748
:10238000F3FE1249206888421DD11148C26901211B
:1023900049040A43C261C2690A40059242690A437C
:1023A00042614069084005900C2000900220019095
:1023B0000020029003200390012004900920694628
:1023C000C006FEF70FFE06B010BD0000004400403E
:1023D00000100240FFB5074605466037787A83B0A3
:1023E0000C46202858D1002C0CD00598002809D084
:1023F0000120A9680003814207D12869002804D17F
:10240000E00702D0012007B0F0BD387A012843D0A0
:10241000012038720020E86621207872FEF78CFED9
:1024200001902E464036059830820598708218E05B
:10243000708A401E708206980090002280212846F3
:10244000019B00F005FF002818D10120A9680003B6
:10245000814202D12869002812D029682078088595
:10246000641C708A0028E3D1069800900022402165
:102470002846019B00F0ECFE002808D00320C2E7AC
:1024800020882968C005C00D0885A41CE9E7202024
:10249000787200203872B6E70220B4E701688A69D2
:1024A000D243920701D400228A6200688169C9433D
:1024B000C90703D08169012211438161704700007F
:1024C000F8B504460068174680690E46C043C0064A
:1024D0002CD42546403520688069C04380060FD53E
:1024E000701CF8D0002E04D0FEF726FEC01BB042B0
:1024F000F1D9202068700020A87028700320F8BD52
:1025000021681020C86120682026C6612046FFF798
:10251000C5FF20684168064A11404160042060649C
:102520006E700020A87028700120F8BD0020F8BD52
:1025300000E800FE70B50068049D44688905890DB7
:102540001204044E1143194334402943214341608E
:1025500070BD0000009800FCF8B51C4617460E46FA
:10256000054611E0601C0FD0002C05D0FEF7E4FDFD
:102570000699401AA04207D92020403568700020F3
:10258000A87028700320F8BD286881693046884308
:1025900004D00020B842E5D00020F8BD0120F9E7C2
:1025A000F8B5054617460E46044640352BE03A4638
:1025B00031462046FFF784FF002801D00120F8BDF6
:1025C00020688069C04380060DD420682022C26143
:1025D000206841680F4B19404160002060646A70B8
:1025E000A8702870EAE7002E04D0FEF7A5FDC01BF6
:1025F000B04208D9616C20200143616468700020FA
:1026000028700320F8BD20688069C0434007CED4FD
:102610000020F8BD00E800FE70B516460D460446E1
:102620001AE0324629462046FFF74AFF002801D02B
:10263000012070BD002D04D0FEF77EFD801BA84256
:102640000AD9616C2020014361644034607000202D
:10265000A0702070032070BD20688069C043800690
:10266000DFD4002070BD70B516460C4605461CE050
:10267000324621462846FFF723FF002801D00120DB
:1026800070BD601C11D0002C04D0FEF755FD801BDE
:10269000A0420AD9696C2020014369644035687002
:1026A0000020A8702870032070BD28688069C0438E
:1026B0008007DDD4002070BD3EB50024164800948C
:1026C000019414490294016084600905C46041606A
:1026D000034601210822103316C3C4614462C46258
:1026E000FF220162C232046382624163FEF75EFA36
:1026F00001200003019000040290009469460648FE
:10270000FEF7C8F90B20009069460348FEF7C2F9AE
:102710003EBD0000002401402C000020F0B587B031
:1027200014216846FDF720FD2F4842690121C904A4
:102730000A43426142690A400592426989100A438C
:10274000426142690A400592426949000A43426176
:10275000406909260840F6060590012220213046EE
:10276000FEF7E4FC0321002209023046FEF7DEFCFE
:102770001E4F012248213846FEF7D8FC00222021B6
:102780003846FEF7D3FC12200024009001946946DD
:1027900002943046FEF726FC1920400101250090E6
:1027A00002946946019503943046FEF71BFC0194A0
:1027B0006946384600950294FEF714FC0820009004
:1027C000112001906946029503943846FEF70AFCF1
:1027D0006020009002946946019503943846FEF704
:1027E00001FC07B0F0BD00000010024000040048EA
:1027F00010B50D480B4901600C4941600021816012
:102800000161416181610122C161C2600162FEF723
:10281000E3FC00210448FEF795FC00210248FEF786
:10282000B6FC10BD0054004078000020FE090020D6
:1028300010B588B01C216846FDF796FC10480F497A
:10284000016000240221846041600461C902846146
:10285000C160FFF7B7FA0A48FFF7F9FC6020009063
:10286000019402940022694604940548FFF787FC0E
:102870000348FFF731FC08B010BD00000020004005
:102880004401002030B58FB01C216846FDF76CFC78
:102890001C2107A8FDF768FC1748164900240225EB
:1028A000846022C08460C460891404614160083877
:1028B000FFF788FA1048FFF7CAFC6020694631C16B
:1028C000039404940594002269460B480694FFF78C
:1028D00056FC0794280308940C9009940A940B94CE
:1028E00007A90D940448FFF719FA0348FFF7F4FB12
:1028F0000FB030BD004401408401002010B58EB0FF
:1029000000240794089409940A940B941C216846A7
:102910000C94FDF729FC164814490160402184609D
:102920004160046113498461C160FFF74BFA0120E3
:102930000003079007A90E48FFF7A5FA0C48FFF718
:1029400086FC0B940BA90A480C94FFF717FA602039
:102950000090019402940022694604940448FFF711
:102960000EFC0348FFF7B8FB0EB010BD000400409A
:10297000C40000208713000010B50A480849016010
:102980004B21C901416000218160C1600161816109
:10299000C1610C22016242614162FFF7B5FC10BDCA
:1029A00000440040C40100208307FF22DB0E9A4050
:1029B0008907090E994000280BDA0007000F083834
:1029C000830808489B001818C36993430B43C361ED
:1029D0007047830804489B001818036893430B430F
:1029E0000360704700ED00E000E400E07047FFB5D1
:1029F00085B00F460646752069460872D02002430E
:102A000015463A700523022229463046FEF73EFC61
:102A1000002829D17D24E400012302AA294630465A
:102A20000094FEF74DFD00281ED1012303AA29467C
:102A300030460094FEF7B8FC002815D102E00320D0
:102A400009B0F0BD6846007B6828F8D16B20694664
:102A5000087100204871022301AA294630460094DB
:102A6000FEF72EFD002801D00120E9E707223946B4
:102A7000304600F092F839463046089A00F04CF89B
:102A8000394630460E9A00F097F80020D8E700004B
:102A9000F0B587B00C4605463B21684601712678A3
:102AA0007D27FF00012301AA314628460097FEF743
:102AB00007FD0E2302AA314628460097FEF774FC54
:102AC0006846008940BAA0816846408940BAE081E2
:102AD0006846808940BA20826846C08940BA00B200
:102AE000FDF7E4FB0A49FDF7A3FB0A49FDF747FBA5
:102AF000A0616846008A40BA60826846408A40BA4F
:102B0000A0826846808A40BAE082002007B0F0BD0B
:102B10000000AA43B81E1242F0B585B007460878F7
:102B20000C4602901C20694608737D261546F60067
:102B3000012303AA009638460299FEF7C1FC01233F
:102B400001AA009638460299FEF72EFC69460879DC
:102B5000E7210840E900084369460871012301AAFA
:102B6000009638460299FEF7ABFC002D06D0012DE9
:102B700007D0022D0BD0032D06D10BE07120C0052C
:102B800001E039200006A060002005B0F0BD7320F0
:102B9000C005F8E71D204006F5E71CB509781923A4
:102BA0006C46237162717D22D2000092022301AA39
:102BB000FEF786FC00201CBDF0B585B007460878FE
:102BC0000C4602901B20694608737D261546F600C8
:102BD000012303AA009638460299FEF771FC0123EF
:102BE00001AA009638460299FEF7DEFB694608798D
:102BF000E7210840E900084369460871012301AA5A
:102C0000009638460299FEF75BFC002D06D0012D98
:102C100006D0022D09D0032D04D108E0054800E0BC
:102C200005486060002005B0F0BD0448F9E704489D
:102C3000F7E700002D23FA3B2D237A3C90C1F93CA5
:102C400090C1793D7047000010B5084801880A46D8
:102C5000FF3AF33A04D100210180054A01211170A5
:102C60000188491C0180FEF7E9FC10BD200000200E
:102C70001400002030B595B030216846FDF774FA95
:102C800000240D94129401200E94039013940225B5
:102C9000102009940F9404900095C0030C94109494
:102CA0000A90119408950B946846FEF773FE07206E
:102CB0000C900E9400210D950F940CA8FEF780FD4A
:102CC00020201090139410A8FEF704FD15B030BD1D
:102CD000134801680122114301604168114A114003
:102CE00041600168104A11400160016801229204AC
:102CF0009143016041683F22120491434160C16ADF
:102D000009090901C162016BFF2214329143016379
:102D1000416B490849004163002181607047000010
:102D2000001002400CB8FF08FFFFF6FE10B501F0DE
:102D300057F80248FFF71EF910BD000004010020FB
:102D4000F0B502681A4B1B4C984201D0A04203D147
:102D50007025AA434D682A43174D184E184F9842C4
:102D60000AD0A04208D0174CA04205D0A84203D0F8
:102D7000B04201D0B84204D103242402A243CC685B
:102D800022438024A2434C69224302608A68C262C3
:102D90000A688262984205D0A84203D0B04201D0AE
:102DA000B84201D10969016301214161F0BD000010
:102DB000002C01400004004000400140004401405C
:102DC000004801400020004010B50123046A8B40F8
:102DD0009C430462036A8A401343036210BD30B50A
:102DE0008468FF252D021B021343AC430B4323438E
:102DF000836030BD826870239A430A4307210A43E7
:102E000082607047F0B5026A520852000262056A99
:102E1000436882697024A24392080C6892001443AC
:102E2000022295438A68154E2A43154FB04207D0B7
:102E3000B84205D0134DA84202D0134DA84206D186
:102E40000825AA43CD681543042295432A46B0427B
:102E500007D0B84205D00B4DA84202D00A4DA84277
:102E600006D103252D02AB434D691D438B692B43CE
:102E700043608461496841630262F0BD002C0140F7
:102E8000004001400044014000480140F0B5026AA2
:102E900010239A430262056A4368826973242402FC
:102EA000A2430C68154E24021443202295438A68DD
:102EB00012012A43B04206D18025AA43CD6840279B
:102EC0002D012A43BA43B04208D00D4DA84205D087
:102ED0000C4DA84202D00C4DA84208D10325AD02EA
:102EE000AB434D69AD001D438B699B002B43436091
:102EF0008461496881630262F0BD0000002C0140DA
:102F0000004001400044014000480140F0B5026A21
:102F1000FF2301339A430262046A4368C269702541
:102F2000AA4392080D68920015430122520294436D
:102F30008A68134E12022243B04207D11446CA686F
:102F4000C714BC43120222430415A243B04208D066
:102F50000C4CA04205D00C4CA04202D00B4CA0421D
:102F600008D103242403A3434C6924011C438B6927
:102F70001B0123434360C5614968C1630262F0BD20
:102F8000002C014000400140004401400048014045
:102F900070B5026A01231B039A430262046A426805
:102FA000C36973252D02AB430D682D021D43012318
:102FB0005B039C438B681E030C4B2643984208D04E
:102FC0000B4B984205D00B4B984202D00A4B9842CB
:102FD00006D101241346A4034A69A34392011A436C
:102FE0004260C56149680164066270BD002C014001
:102FF00000400140004401400048014030B5036AF0
:10300000046A6408640004628469F025AC43120118
:1030100022430A24A3430B438261036230BD30B5CF
:10302000036A1024A34303628369046A0F252D03F6
:103030001203AB431A43A0239C430901214382613D
:10304000016230BD10B5818CC90707D001684A689C
:1030500001235B049A43836A1A434A60818C89077F
:1030600007D501684A6801231B049A43C36A1A43BF
:103070004A60818C490707D501684A6801239B048F
:103080009A43036B1A434A60818C090707D501688C
:103090004A680123DB039A43436B1A434A60818CDD
:1030A000C90607D501688A6801231B039A43836B0D
:1030B0001A438A60818C890607D501688A680123D2
:1030C0005B039A43C36B1A438A60818C490612D50D
:1030D00001684B6801221205046C934323434B6043
:1030E000016C914207D101684A6803235B059A434A
:1030F000436C1A434A60818C090607D501684A6807
:103100000123DB04806C9A4302434A6010BD002215
:10311000C26620216030417281720272104670478F
:10312000F8B50446A3682269E56913436269102073
:1031300000212A43134322680E4615683E4F3D4046
:103140001D4315602268536803252D03AB43E568D2
:103150002B435360A369226A1343226895680B27A7
:103160003F02BD431D439560344A2568954210D106
:10317000334A126B9207920F0ED0012A05D0022A11
:1031800005D0032A09D1022007E0042005E0082029
:1031900003E02C4A954200D100200122E369D203CA
:1031A000934224D100280CD002280DD0042813D03B
:1031B000082817D001260A0912010807400F1043FA
:1031C0002FE0FEF799FB09E061681F4A4808801864
:1031D000FCF788FF81B2EEE7FEF79EFB61684000D6
:1031E0004A08F4E76168012248081204EFE7002862
:1031F00008D0022809D004280BD0082814D00126B2
:103200003046F8BDFEF778FB05E061680F4A4808D4
:103210000CE0FEF781FB61684A088018FCF762FF4A
:1032200080B22168C860EBE7616848088018FCF745
:1032300059FF80B2E860E3E7F369FFFF003801401F
:1032400000100240004400400024F40000127A0004
:10325000FFB581B01E46174605460A9C1CE0601C5F
:103260001AD0002C04D0FDF767FF801BA04213D9B1
:1032700028680168FF22A1329143016028688168B3
:10328000490849008160202060356872A8720020DA
:103290002872032005B0F0BD2868C16902988843F0
:1032A00004D00020B842DAD00020F3E70120F9E78B
:1032B0000FB410B503A9044B044A029800F0E8F8D3
:1032C00010BC08BC04B01847C93B0008100000201F
:1032D0002021020C01D010211046020A01D0104614
:1032E0000839020901D01046091F820801D0104692
:1032F000891E420801D0881E7047081A704702E0F4
:1033000008C8121F08C1002AFAD170477047002070
:1033100001E001C1121F002AFBD17047F0B51FB4B4
:1033200086B00998089A030D0021024314D0514831
:10333000514A1818504305141198012810981AD0B2
:10334000281A401C00264D4F4D49009601910490CB
:10335000002812DA444211E01198012449A30128FF
:1033600001D11098C1430698119A84600360C2602D
:1033700041600BB0F0BD4042E4E704462105002067
:103380003F4A001C51410391029012E0E00707D030
:1033900032463B4601990098FDF7DEF80191009016
:1033A00032463B4610461946FDF7D6F806460F460C
:1033B0006410002CEAD10498039B0028029A099912
:1033C000089806DAFDF7C8F8019B009AFDF7C4F8E3
:1033D00005E0FDF729F9019B009AFDF725F9044660
:1033E0000E460022284BFDF7B7F903D80020C04352
:1033F000014607E00022254B20463146FCF7FAFF44
:10340000FDF78AF9102409E0002C0ADB0A220023C8
:10341000FCF77FFF079B30321A55641E02460A43B1
:10342000F2D11122641C079B121B1C19119B012B4A
:1034300003D0012308430ED10AE0084304D0112031
:1034400010900020119077E71098151A6D1E0BE070
:103450001098824202DD00236D1C03E0824201DAF3
:1034600000236D1E002BEED0069811998260C1607A
:1034700030C07EE701FCFFFF104D0000000014404B
:103480000000F03F300000000000F0430000E03F8B
:10349000FFB597B00646002518E2252877D100240D
:1034A0002746FD49049400E00443761C327801204D
:1034B000203A90400842F7D130782A280ED00222D4
:1034C000307801463039092916D804990A2359431E
:1034D000303940181443761C0490F1E7189802C85C
:1034E00004911890002904DA012040030443484263
:1034F000049002200443761C30782E2814D1042036
:1035000004437078761C2A2809D11898761C80C844
:10351000189009E00A214F43303FC719761C3078D4
:10352000014630390929F5D930786C2810D006DCED
:103530004C281AD068280ED06A2817D104E07428C5
:1035400013D07A2812D110E00120400504430CE08A
:103550000121090501E0032109050C43717881422D
:1035600003D1012000052418761C761C30781190B8
:1035700066280BD013DC58287DD009DC00287BD0CE
:103580004528F6D04628F4D047281AD1A5E118E0FE
:10359000632835D0642870D0652812D19DE1702849
:1035A0006CD008DC6728F1D069287BD06E280DD05C
:1035B0006F2806D1BAE073282ED0752871D07828EC
:1035C00059D01A9A199990476D1C7EE16002400FFC
:1035D000022809D003280DD00428189801680DD0BE
:1035E0000D60001D189070E11898EA1701680D60D1
:1035F0004A60F6E7189801680D80F2E70D70F0E771
:1036000018986A4601781172001D189000205072B7
:1036100002A80090012005E0189802C81890002028
:103620000091C04361070DD5002101E00199491CBB
:103630000191B94212DA8142F8DB009A515C00290B
:10364000F4D10BE0002101E00199491C0191814274
:10365000FADB019A0099895C0029F5D10199049857
:103660001A9B471A21463846199A00F097FA019991
:10367000401945180BE04FE02CE113E04EE00098B4
:1036800000990078491C00911A9A1999904701985D
:10369000401E0190401CF2D1214638461A9B199ACF
:1036A00010E137E00A200021009001916002410FF3
:1036B000022907D0189A01CA1892C2179446032902
:1036C00008D00AE01898C01DC108C90005C91891A2
:1036D000944607E000B2C2179446042902D140B2D2
:1036E000C1178C4600226146944506DA0A4600213D
:1036F000404291418C462D2102E0210504D52B2129
:103700006A461173012103E0E10701D02021F7E7A8
:10371000029155E00A200AE0102008E010200090F5
:103720000021042004430191082703E00820002120
:10373000019100906002410F022907D0189A01CA36
:10374000189200229446032908D008E01898C01D5A
:10375000C108C90005C91891944603E080B2042944
:1037600000D1C0B200210291210729D511997029F9
:1037700006D0009A1021019B4A401A4305D00EE062
:1037800040216A461173012108E06146014306D0D9
:1037900030216A4611731199517302210291009AE6
:1037A0000821019B4A401A430AD16146014301D1D5
:1037B000610705D530216A46117301217F1E0291F0
:1037C0001199582904D035A10E910DA90D910DE044
:1037D00037A1F9E76146019B009AFCF79AFD0E9B21
:1037E0008C469B5C0D9A521E0D92137061460143EC
:1037F000F0D10D9805A9081A20300190600703D573
:1038000001200004844300E001270198874201DD84
:10381000381A00E000200199009041180298091818
:103820000498401A0490E00306D421461A9B199A82
:10383000049800F0B3F94519002706E003A81A9A86
:10384000C05D199990476D1C7F1C02988742F5DB7B
:10385000E0030CD521461A9B199A049800F09EF9B2
:10386000451904E01A9A3020199990476D1C009967
:10387000481E00900029F5DC08E00D980D990078AD
:10388000491C0D911A9A199990476D1C0199481E6F
:1038900001900029F1DC63E1092801003031323365
:1038A000343536373839616263646566000000007C
:1038B0003031323334353637383941424344454666
:1038C0000000000000F05AF94519761C30780028F5
:1038D00000D0E2E528461BB0F0BD600700D4062703
:1038E0001898C01DC108C90048680A680831C30F8C
:1038F000DB071891190001D09CA108E0210501D532
:103900009BA104E0E10701D09AA100E09AA1430045
:1039100011985B08109165280CD006DC452809D069
:1039200046281DD0472841D141E0662818D0672895
:103930003CD13CE00021112F01DB112000E0781C7C
:103940000191009008A911A8FFF7E8FC13990591CF
:103950000021119A15927F1C12980197009150E056
:103960000120C00703900120019008A9009711A829
:10397000FFF7D4FC139A149905920022119B009230
:1039800012981593059A0192002901D0104602E081
:10399000791C40180190381A01D5019804E0404282
:1039A000401E0090781C0190C01B029043E0012F44
:1039B00000DA01270021112F01DD112000E0384637
:1039C0000191009008A911A8FFF7A8FC139905918F
:1039D000119A0021129815920091019721070CD499
:1039E0000599B94201DB019900E00191012904DD4B
:1039F000159A491E515C302906D0B84201DA011DE2
:103A000005DA0121029115E00199491EEDE7002830
:103A100005DC0099411800910199091A03E0019A07
:103A2000411C914200DD01910099401A401C029016
:103A30000120C0070390200706D402990198814213
:103A400002DB0020C043029000206946C87707AF20
:103A5000012103980337C907884224D0022011901E
:103A60002B201290039800280CDA404203902D205E
:103A7000129007E00A210398FCF734FB30317F1ED7
:103A8000039039701199481E11900029F2DC0398B7
:103A90000028EFD1791E1298087030782021084054
:103AA0004530BF1E387006A8C01BC01D039010987B
:103AB0000078002800D00120019941180298C01711
:103AC0000918039809180498401A401E0490E0034E
:103AD00006D421461A9B199A049800F05FF84519FC
:103AE00010980078002803D01A9A199990476D1CF5
:103AF000E00324D521461A9B199A049800F04EF849
:103B000045191CE00098002807DB009905988842B9
:103B100003DD1598405C199901E0199930201A9A33
:103B2000904700986D1C401C00900298401E029027
:103B3000002804D11A9A2E20199990476D1C0199DA
:103B4000481E01900029DDDC05E038781A9A7F1CB8
:103B5000199990476D1C0399481E03900029F4DCC5
:103B600021461A9B199A0498ACE600002D0000002B
:103B70002B0000002000000000000000F8B5044603
:103B800000251E461746880404D405E03946202047
:103B9000B0476D1C641EF9D52846F8BDFFB5044634
:103BA000002581B01E46C80301D5302700E020273C
:103BB000880404D505E038460399B0476D1C641E9F
:103BC000F9D5284605B0F0BD1CB504466846047119
:103BD0007D23DB00012201A90648FEF7FBFB6420E0
:103BE000002300901A4640210248FFF731FB20468F
:103BF0001CBD0000C401002008B5FDF727FDFFF73C
:103C000039F8FEF78BFD51484169012211434161AA
:103C1000406910400022009011460920FDF756FD32
:103C20000920FDF749FDFEF747FD4A484849016074
:103C3000002509158560416020218561C160FEF77E
:103C4000C1F8FEF75BFEFEF797FEFEF7D1FDFEF72B
:103C5000EFFDFEF717FE3F4800214038FEF714FB4A
:103C60003C4800214030FEF70FFB3A4800218030ED
:103C7000FEF70AFB3748FEF7FBF80524FF26F5366A
:103C800023461A4611460846FCF7C6FE214632A0D6
:103C9000FFF70EFB3046FDF796F9641E2406240E4E
:103CA000EED12EA132A0FFF703FB2A4800231A46CB
:103CB00030498C380095FEF79AFEFF202E4E913049
:103CC000B0632C4F2D4C203F2A4922480222203934
:103CD000D838FDF779F80120FDF775F928493888BB
:103CE0004863284948631B4822498C38FEF7D0FEB8
:103CF000204A9069A0609189A1800E21515E224ADC
:103D0000E1808918CA17920E51188911963189B22B
:103D10006180716321780029D6D0FCF7D2FA80B295
:103D2000FCF790FE0421615E18A0FFF7C1FA06219E
:103D3000615E18A0FFF7BCFAA068FCF7D6FA02464D
:103D40000B4616A0FFF7B4FA2570BDE7001002403D
:103D5000001000400401002025640A0054657374BB
:103D6000205553415254202D204F4B200A00000073
:103D700025730000540200200004004014000020BD
:103D80000020004000440140204E0000583D2564C2
:103D9000200A0000593D2564200A0000543D256694
:103DA000200A0000F8B509268024F60607466500BB
:103DB000274201D0012200E00022012149023046C1
:103DC000FDF7B4F9012229463046FDF7AFF900228C
:103DD00029463046FDF7AAF96408E9D1F8BD00008C
:103DE00010B5194A1078042801D8401C00E00120C1
:103DF000C1B2164C1070012916D0022919D003291E
:103E00001CD004290FD11079FFF7CCFF0820FFF751
:103E1000C9FF012220212046FDF788F90022202138
:103E20002046FDF783F910BD5078FFF7BBFF012056
:103E3000EDE79078FFF7B6FF0220E8E7D078FFF7CC
:103E4000B1FF0420E3E70000000000200004004868
:103E5000000000000000000001020304060708093A
:103E60000000000001020304883E0008000000205A
:103E70002C000000FE320008B43E00082C00002098
:103E80008C0600000E3300080000000000C0F9A4FA
:103E9000B0999282F88090000000000000000000BD
:103EA0000000000000000000000000000000000012
:043EB00000127A0082
:04000005080000B53A
:00000001FF
