:020000040800F2
:100000000020002035250008592400085B24000842
:1000100000000000000000000000000000000000E0
:100020000000000000000000000000005D24000847
:1000300000000000000000005F24000861240008A8
:10004000852500080000000085250008852500089A
:1000500085250008852500088525000885250008D8
:100060000000000085250008692400088525000897
:10007000852500088525000885250008000000006A
:10008000852500088124000800000000852500085F
:100090008525000885250008852500088525000898
:1000A0008525000885250008852500088525000888
:1000B000852500080000000000000000000000008E
:1000C00010B5064C2378002B07D1054B002B02D02E
:1000D000044800E000BF0123237010BD6800002029
:1000E00000000000302E0008044B10B5002B03D098
:1000F0000349044800E000BF10BDC04600000000F6
:100100006C000020302E00080023C25C0133002A5E
:10011000FBD1581E7047000002B4714649084900DF
:10012000095649008E4402BC7047C04602B471466D
:1001300049084900095C49008E4402BC7047C0462A
:10014000002243088B4274D303098B425FD3030A16
:100150008B4244D3030B8B4228D3030C8B420DD329
:10016000FF22090212BA030C8B4202D312120902B7
:1001700065D0030B8B4219D300E0090AC30B8B42F5
:1001800001D3CB03C01A5241830B8B4201D38B03A3
:10019000C01A5241430B8B4201D34B03C01A524148
:1001A000030B8B4201D30B03C01A5241C30A8B428B
:1001B00001D3CB02C01A5241830A8B4201D38B0276
:1001C000C01A5241430A8B4201D34B02C01A52411A
:1001D000030A8B4201D30B02C01A5241CDD2C3098C
:1001E0008B4201D3CB01C01A524183098B4201D308
:1001F0008B01C01A524143098B4201D34B01C01AF3
:10020000524103098B4201D30B01C01A5241C3086A
:100210008B4201D3CB00C01A524183088B4201D3D9
:100220008B00C01A524143088B4201D34B00C01AC5
:100230005241411A00D20146524110467047FFE731
:1002400001B5002000F0F0F802BDC0460029F7D04B
:1002500076E7704703460B437FD4002243088B4266
:1002600074D303098B425FD3030A8B4244D3030B3D
:100270008B4228D3030C8B420DD3FF22090212BA02
:10028000030C8B4202D31212090265D0030B8B427E
:1002900019D300E0090AC30B8B4201D3CB03C01A68
:1002A0005241830B8B4201D38B03C01A5241430B43
:1002B0008B4201D34B03C01A5241030B8B4201D333
:1002C0000B03C01A5241C30A8B4201D3CB02C01A9E
:1002D0005241830A8B4201D38B02C01A5241430A16
:1002E0008B4201D34B02C01A5241030A8B4201D305
:1002F0000B02C01A5241CDD2C3098B4201D3CB01AC
:10030000C01A524183098B4201D38B01C01A52415A
:1003100043098B4201D34B01C01A524103098B425E
:1003200001D30B01C01A5241C3088B4201D3CB0049
:10033000C01A524183088B4201D38B00C01A52412C
:1003400043088B4201D34B00C01A5241411A00D2DC
:1003500001465241104670475DE0CA0F00D0494245
:10036000031000D34042534000229C4603098B42B5
:100370002DD3030A8B4212D3FC22890112BA030A3D
:100380008B420CD3890192118B4208D389019211BF
:100390008B4204D389013AD0921100E08909C30944
:1003A0008B4201D3CB01C01A524183098B4201D346
:1003B0008B01C01A524143098B4201D34B01C01A31
:1003C000524103098B4201D30B01C01A5241C308A9
:1003D0008B4201D3CB00C01A524183088B4201D318
:1003E0008B00C01A5241D9D243088B4201D34B0033
:1003F000C01A5241411A00D20146634652415B1075
:10040000104601D34042002B00D549427047634655
:100410005B1000D3404201B5002000F005F802BD9A
:100420000029F8D016E770477047C046F0B5C646B9
:100430004E024702760A7B0A4400C50FF7004800C7
:10044000984600B5240E2A00DB00000EC90FBC46FA
:100450008D4267D0221A002A00DCA5E000283AD19C
:10046000002F00D193E0511E002900D0BCE00124F0
:10047000DB1B5A0146D59B019E09300000F02AFB88
:1004800005388640844200DD9DE0041B32002020B8
:100490000134E240041BA64033005E1EB341002439
:1004A00013435A0704D00F221A40042A00D0043301
:1004B0005A0129D50134FF2C00D181E02A009B018B
:1004C0005B0AE4B25B02E405580AD20720431043FA
:1004D00004BC9046F0BDFF2CE3D080213800C90455
:1004E000084384461B2A00DD82E020206146D1407B
:1004F000821A604690400200501E82410A439B1AB5
:100500005A01B8D45A07CED1DE082A00FF2C3AD1BE
:10051000002E00D1AEE08023DB0333435B025B0A95
:10052000FF24CFE7211A002952DD002831D0FF2C0B
:10053000B7D080203E00C0040643B4461B2900DD2E
:10054000AAE020266046C840711A66468E403100F7
:100550004E1EB14101435B185901D3D50134FF2C24
:1005600000D187E0012278491A405B080B40134311
:1005700097E7002C00D0A7E0002B00D0B6E03B1E90
:1005800062D10026002273025B0AE4B29AE71400EB
:1005900087E7002F4DD0481E002857D1634401241F
:1005A0005A01AFD50224DDE7002A24D1621CD2B261
:1005B000012ADEDDDE1B720135D5FE1A0D005CE777
:1005C0002A0000237EE73300604A241A134068E7BC
:1005D000002963D1611CC8B201284EDDFF2949D032
:1005E00063445B080C005CE7FF2A41D00A0079E70E
:1005F00001229B1A84E7002C1DD0FF2822D08024E2
:10060000E404524223431B2A00DD8AE01C0020251B
:10061000D440AA1A93405A1E9341234362460400D1
:10062000D31A0D0025E7002E00D026E70022002473
:10063000A9E70C0035E7002B4DD0D243002AEDD0BE
:10064000FF28E0D16346FF240D002AE7FF290FD0E1
:10065000010073E7002B61D0FF24002F00D120E7B9
:1006600080224146D203114202D0164200D13B0003
:10067000FF2416E7FF24002324E7002CEAD1002BF7
:1006800058D0002F00D10CE763445A0100D439E759
:100690002E4A0C00134004E701215CE7002C1ED118
:1006A000002B40D0C94300290BD0FF2836D01B298E
:1006B00047DC1C002026CC40711A8B40591E8B4110
:1006C00023436344040047E7002B18D13B1E2DD081
:1006D0000D00FF24E5E63B0004000D00E1E6FF28E5
:1006E0001CD08024E40449422343E0E7002F00D1DA
:1006F000D7E6DE1B72011FD5FB1A0D00D1E6FF24E1
:10070000002F00D1CDE680224046D2031042AFD068
:100710001642ADD13B000D00FF24C2E66346FF2424
:10072000BFE601237AE73B000400BAE680260022F8
:10073000F603F0E63B00B4E6331E00D0E2E600220A
:1007400021E70123BDE7C046FFFFFF7DFFFFFFFB61
:10075000F8B557464E464546DE46E0B547024600E8
:1007600088467F0A360EC40F002E47D0FF2E24D0B5
:10077000FB008027FF041F43002399469A467F3ED3
:1007800043465D025800DB0F6D0A000E984643D0C9
:10079000FF283BD0EB0080250022ED041D437F386D
:1007A0003618731C41469B464B46614013430F2B42
:1007B00064D875489B00C3589F46002F42D1082338
:1007C0009946063BFF269A46DAE74146022A28D098
:1007D000032A00D1CEE0012A00D0ACE01140002075
:1007E0000022CCB24002D205400AE4071043204365
:1007F0003CBC90469946A246AB46F8BD002F15D1A9
:1008000004239946033B00269A46B9E7FF200222BB
:10081000002DC5D00322C3E7002D19D100200122ED
:10082000BEE70124FF220C400020DBE7380000F087
:1008300051F97626431F9F4000237642361A994687
:100840009A469DE70C239946093BFF269A4697E76F
:10085000280000F03FF9431F9D4076235B42181AA1
:1008600000229DE780200024C003FF22BAE73D005C
:100870005246ABE73D0021005246A7E73B0C9C46A1
:100880002A04120C2B0C1400604665463F043F0CF2
:100890007C4342435D437B43270C9B18FF18BA42BD
:1008A00003D980235B029C46654424043A04240C4B
:1008B000121993015C1EA3413F0C920E7D191A433D
:1008C000AD0115432B0104D501235E466A081D4086
:1008D000154332007F32002A25DD6B0704D00F2339
:1008E0002B40042B00D004352B0103D53200274BBD
:1008F00080321D40FE2A94DC0124A801400AD2B2B5
:100900000C406FE78020C003074207D0054205D1A5
:1009100028434002400A4446FF2263E7384340022E
:10092000400AFF225EE70124A31A1B2B05DD0C40C1
:100930000022002056E75E46CBE72A002020DA405E
:10094000C31A9D402B005D1EAB4113435A0704D0D0
:100950000F221A40042A00D004335A0104D501247E
:1009600001220C4000203DE701249B01580A0C4065
:10097000002237E780200124C00328434002400AB8
:100980000C40FF222EE7C046682E0008FFFFFFF74D
:1009900070B5002830D0C317C4185C40C50F2000C4
:1009A00000F098F89E231B1A962B0DDC9622D21A83
:1009B00094402A006402640ADBB26402DB05600A28
:1009C000D2071843104370BD992B19DC9922D21A13
:1009D000002A29DD94402200144C1440510704D011
:1009E0000F210A40042A00D00434620113D4A40168
:1009F000640ADBB22A00E0E7002200230024DCE7DF
:100A000005222100121AD140B922D21A9440621E46
:100A100094410C43DAE7054B2A001C409F23A401B4
:100A20001B1A640ADBB2C8E72200D5E7FFFFFFFB11
:100A30004100090E4B1C70B5DBB24602750AC40FAB
:100A4000012B14DDE0239B006D07360BCB18002132
:100A50000A0D280012051C4D32435B052A405B0835
:100A600013435B00E4075B082343190070BD0029B2
:100A700014D1002D1ED0280000F02CF80A281CDC10
:100A80000B232A001B1ADA40030015339D400F4B3D
:100A900012031B1A5B05160B5B0DD8E7002D06D061
:100AA000320B802636036D071643094BCFE7084B00
:100AB0000026CCE700230026C9E703002A000B3BF1
:100AC0009A400025E3E7C046FFFF0F80890300003E
:100AD000FF0700001C2101231B04984201D3000CD6
:100AE00010391B0A984201D3000A08391B099842A1
:100AF00001D30009043902A2105C40187047C046B7
:100B000004030202010101010000000000000000D6
:100B100010B5040000F076FCFA218900FFF710FB05
:100B200000F070F8012000222100404200F030F86F
:100B3000002010BD1023064A10B5116800200B4399
:100B40001360FFF7E5FF01F0CBFB002010BDC046AE
:100B500000200240024A1368013313607047C04608
:100B6000D4000020014B18687047C046D400002014
:100B700037B50190FFF7F6FF019C0500631C5A1E74
:100B80009341E418FFF7EEFF401BA042FAD337BDB4
:100B900070B58901002814DA0F23C0B20340083B66
:100BA000114A9B089B009B18032210409040FC3286
:100BB0001500114085408140DC69AC432143D96177
:100BC00070BD032583082840A840FC352E00074A45
:100BD0009B009B18C02286402940814092009C586F
:100BE000B44321439950EBE700ED00E000E100E061
:100BF0001F2318401E3B8340014A13607047C046C4
:100C000000E100E0094A431E012093420DD8C021B3
:100C1000074A08485360036A09061B021B0A0B4374
:100C2000036200200723906013607047FFFFFF00FE
:100C300010E000E000ED00E070B504000120002CA1
:100C400028D002232068A51CEB770268124BA1680C
:100C50001A4063680B43E1680B4321690B436169E8
:100C60000B43A1690B43E1690B43134303600B4B37
:100C70001421C018FFF764FA094B80002064E36375
:100C800000200123A062E06220636063A063E41897
:100C9000EB77E07770BDC0460FC0FFFFF8FFFDBFE8
:100CA00000000240F8B504273E00016CC26B8E4084
:100CB000156803681C682E420DD03C420BD01968A1
:100CC000890602D41968B9431960C36A5660002BBB
:100CD00019D0984717E002273E008E402E4213D0CD
:100CE0003C4211D01968890606D40A241968A14328
:100CF00019600121C319D97756600022431CDA77A5
:100D0000836A9342E5D1F8BD082637008F403D4203
:100D1000F9D03442F7D00E251C68AC431C60012387
:100D20001C008C405460821C8363D3770022C3185C
:100D3000DA77036BE5E70000F0B50B6887B0029344
:100D400000230191029ADA4001D107B0F0BD0122DF
:100D50009A4003920399029A0A40009200D18CE0D3
:100D6000019A1021526816008E43022E0ED10725DB
:100D70001D40AD000139A940DC08A4000419276A10
:100D80008F4301990969A9400F43276203245F003B
:100D9000BC40E4430568013E2540AC4603251540B0
:100DA000BD4061460D430560012E0FD8019986684C
:100DB000CD682640BD4035438560466803991509D6
:100DC0008E4301210D409D4035434560C568019922
:100DD0002C408D688021BD4049052C43C4600A42E7
:100DE0004BD00121264C0326A5691E400D43A56169
:100DF000A4699D080C400594059C0F242149AD0071
:100E0000B6006D18B4409021AF68C905A74300240F
:100E100088420CD01C490134884208D01B49013457
:100E2000884204D01A490334884200D1023CB440BD
:100E300000993C430E00AC60164CCD4327683E43FE
:100E4000D10301D43E002E4026606768009E3E43D9
:100E5000910301D43E002E406660A768009E3E4389
:100E6000D10201D43E002E40A660E668009F3743C1
:100E7000920201D42E403700E760013362E7C0469A
:100E80000010024000000140000400480008004833
:100E9000000C00480004014000690840411E8841E0
:100EA000C0B27047002A01D0816170478162FCE7BF
:100EB000F0B5036885B00500DB072FD42B689B07CE
:100EC00000D581E02B681B0700D5BCE02B685B07D1
:100ED00000D5DFE02B68DB061AD56A69B54C042320
:100EE000012A00D04BE1616B02260B436363636B05
:100EF0001A436263FFF736FE0700636B334200D18B
:100F000036E1F821626BAB698A43DB00134363630C
:100F1000296A002900D059E1002013E00C21A54CDA
:100F200062680A40042A06D063680B40082B0BD184
:100F30006368DB0308D523689B03BFD56B68002B70
:100F4000BCD1012005B0F0BD6B68012B13D180230B
:100F500022685B0213432360FFF704FE802607002C
:100F6000B60223683342A9D1FFF7FCFDC01B6428F9
:100F7000F7D90320E6E7002B16D123688E4A802696
:100F80001340236023688D4AB60213402360FFF7A5
:100F9000E9FD07002368334200D18FE7FFF7E2FD48
:100FA000C01B6428F6D9E4E7052B05D1802322680D
:100FB000DB0213432360CAE723687F4A13402360A0
:100FC00023687E4A1340C6E70C227A4C63681342BA
:100FD00006D063681340082B10D16368DB030DD47F
:100FE00023689B0702D5EB68012BAAD1F821226860
:100FF0002B698A43DB001343236063E7EA6801231C
:10100000002A0FD02268022613432360FFF7AAFDAF
:10101000070023683342E9D1FFF7A4FDC01B022873
:10102000F7D9A6E7226802269A432260FFF79AFDC5
:1010300007002368334200D144E7FFF793FDC01B4C
:101040000228F6D995E7EA6901235A4C002A10D004
:10105000626A022613436362FFF784FD0700636A36
:10106000334200D032E7FFF77DFDC01B0228F6D9DE
:101070007FE7626A02269A436262FFF773FD070008
:10108000636A334200D121E7FFF76CFDC01B0228E1
:10109000F6D96EE780220021464C5205E3690091A3
:1010A000134208D1E3691343E361E36913400393F7
:1010B000039B012300938027414E7F0033683B420E
:1010C00006D0AB68012B13D1226A1343236230E0B0
:1010D00033683B433360FFF745FD019033683B4283
:1010E000EFD1FFF73FFD019BC01A6428F6D940E716
:1010F0000122002B14D1236A022793432362236A1F
:10110000033293432362FFF72DFD0600236A3B421F
:1011100025D0FFF727FD2B4B801B9842F6D928E7F7
:10112000052B0BD1216A013B0B432362236A1A432F
:101130002262FFF717FD022706000DE0236A9343A2
:1011400004222362236A9343C0E7FFF70BFD1D4B84
:10115000801B984200D90CE7236A3B42F5D0009BE4
:10116000012B00D0B6E6E369174A1340E361B1E60C
:10117000FFF7F8FCC01B022800D8BEE6F9E60532EE
:1011800003D1626B9A436263BBE6626B0226134330
:1011900001226363636B93436363FFF7E3FC070020
:1011A000636B334200D1B3E6FFF7DCFCC01B0228BF
:1011B000F6D9DEE600100240FFFFFEFFFFFFFBFF57
:1011C0000070004088130000FFFFFFEF0C22264C48
:1011D000012063681340082B00D1B3E62368234A3B
:1011E0001340236002292FD1FFF7BCFC80260700A3
:1011F000B6042368334221D10F22E36A9343EA6A9B
:101200001343E362696AAB6A62680B43184980253D
:101210000A4013436360802322685B041343236006
:10122000FFF7A0FC0600AD0423682B4200D073E654
:10123000FFF798FC801B0228F6D99AE6FFF792FC8C
:10124000C01B0228D5D994E6FFF78CFC8025060048
:10125000AD0423682B4200D15EE6FFF783FC801BC0
:101260000228F6D985E6C04600100240FFFFFFFEC7
:10127000FFFFC2FF70B5144C88B0102221006846F1
:1012800001F0ACF9210004AD10221031280001F06A
:10129000A5F90C220D4E73681A40082A11D10F20AF
:1012A0006A46990C0140545CF26A0240A95CDB0377
:1012B00005D50748FEF744FF604308B070BD0548F8
:1012C000FAE70348F9E7C046482E0008001002403C
:1012D00000127A0000093D00F7B50122434C0600D8
:1012E00023680F0013408B421CD33268930723D42A
:1012F000D30729D4012322681A40974267D3336861
:101300003B4C5B076AD4FFF7B5FF6368394A1B069D
:101310001B0FD35CD840384B18600020FFF7F8FB58
:10132000002008E0236893430B43236023681340A5
:101330009942DAD00120FEBDF0202D494B6883434D
:10134000B06803434B60D3E7294D72682B68012ACC
:101350001AD19B03EED503216B688B4313436B605B
:10136000FFF700FC73680190012B15D10C226B680C
:101370001340042BBED0FFF7F5FB019BC01A1F4B97
:101380009842F3D90320D6E7022A02D19B01E2D486
:10139000D0E79B07DFD4CDE7022B12D00C226B687D
:1013A0001342A7D0FFF7DEFB019BC01A134B9842F4
:1013B000F4D9E7E7FFF7D6FB019BC01A0F4B984221
:1013C000E0D80C226B681340082BF3D192E7226817
:1013D0009A43226022681A42ACD190E76368084AB7
:1013E0001340F268134363608DE7C046002002405B
:1013F00000100240AB2F00080000002088130000FE
:10140000FFF8FFFF014B18687047C046000000203E
:10141000044B054A5B685B055B0FD35C034A1068AD
:10142000D840704700100240BB2F00080000002089
:10143000F0B5036885B00500DB0328D580220021C4
:10144000374C5205E3690091134208D1E369134315
:10145000E361E36913400393039B01230093802717
:10146000304E7F0033683B4226D0C022236A920070
:1014700013402D4E32D1236A1E406B681E43009BE1
:101480002662012B03D1E369284A1340E3612A68ED
:10149000D30706D5032022490B6B8343A868034377
:1014A0000B630020930617D510211D4A136B8B4345
:1014B000E9680B4313630FE033683B433360FFF786
:1014C00051FB019033683B42CFD1FFF74BFB019BAF
:1014D000C01A6428F6D9032005B0F0BD69680A4037
:1014E0009342C8D08023226A206A11005B02034322
:1014F0002362236A0E483140034023622162D307EE
:10150000B9D5FFF72FFB07000222236A1342B2D19D
:10151000FFF728FB074BC01B9842F5D9DBE7C04615
:101520000010024000700040FFFCFFFFFFFFFFEFD4
:10153000FFFFFEFF8813000001220368D968002026
:101540001143D96019680A431A60704770477047A1
:101550007047704770470222036810B5196904008C
:1015600011420ED0D96811420BD0053A1A619B691D
:10157000043202779B0700D179E0FFF7E9FF0023EF
:101580002377042223681969114210D0D9681142C7
:101590000DD0093A1A61073222779A69C0239B005D
:1015A00020001A4269D0FFF7D3FF002323770822D7
:1015B0002368196911420ED0D96811420BD0113A33
:1015C0001A61DB690D32227720009B075BD0FFF7A1
:1015D000BFFF00232377102223681969114210D01E
:1015E000D96811420DD0213A1A6119322277DA698D
:1015F000C0239B0020001A424BD0FFF7A9FF002315
:101600002377012223681969114207D0D968114252
:1016100004D0033A1A612000FFF798FF8022236864
:101620001969114208D0D968114205D0023AFF3A2F
:101630001A61200000F098F84022236819691142CD
:1016400007D0D968114204D0813A1A612000FFF70F
:1016500081FF202223681969114207D0D9681142FD
:1016600004D0413A1A61200000F07DF810BDFFF768
:101670006EFF2000FFF76DFF81E7FFF768FF200096
:10168000FFF767FF91E7FFF762FF2000FFF761FFB9
:101690009FE7FFF75CFF2000FFF75BFFAFE700006D
:1016A0001C4A10B50368904202D01B4CA04208D1DE
:1016B0007024A3434C68234390420ED0164CA042A2
:1016C0000BD0164CA04208D0154CA04205D0154CAA
:1016D000A04202D0144CA04203D1144C2340CC6849
:1016E00023438024A3434C69234303608B68C36274
:1016F0000B688362904208D0094B984205D0094B91
:10170000984202D0084B984201D10B690363012330
:10171000436110BD002C0140000400400020004047
:10172000004001400044014000480140FFFCFFFF31
:1017300070B504000120002C14D025003D352B7815
:10174000DBB2002B05D122003C321370200000F0E8
:10175000DFFD022320682B70211DFFF7A1FF01236D
:1017600000202B7070BD70477047000070B50400FA
:101770000568C269836800692968034360693F4E50
:1017800003433F48134301400B432B606B683D49C3
:10179000206A0B40E1680B436B60A369A9680343AF
:1017A000394801400B43AB6080231B02B54210D186
:1017B00003203649096B01403548405C9A4213D0FA
:1017C000082858D8FEF7B2FC375742574B5757579F
:1017D000500030498D424CD19A422CD1FFF718FE6F
:1017E000636840005B080BE0082821D8FEF794FCF2
:1017F000F6200520182020201B0063685808264B7F
:10180000C0186168FEF79CFC83B200200F2219000B
:1018100091430A001B0721685B0F1343CB6070BD27
:10182000FFF728FDDCE76368580880235B02E7E7E1
:1018300001200023EAE7FFF7EBFD61684B08181869
:10184000FEF77EFC80B2E8600020E8E76168134B99
:101850004808C018FEF774FC80B2F060F4E7FFF7A8
:1018600009FD61684B08F4E7802361681B024808A2
:10187000EFE79A42DCD00120D1E7C04600380140B2
:10188000F369FFFFFFCFFFFFFFF4FFFF00100240EF
:10189000A82E0008004400400024F40000127A0042
:1018A000436A30B5DA0706D50168284C4A682240F9
:1018B000846A22434A609A0706D50168244C4A6824
:1018C0002240C46A22434A605A0706D50168214C67
:1018D0004A682240046B22434A601A0706D5016811
:1018E0001D4C4A682240446B22434A60DA0606D502
:1018F00001681A4C8A682240846B22438A609A06E7
:1019000006D50168164C8A682240C46B22438A605F
:101910005A0610D50168134D4A68046C2A402243C8
:101920004A6080225203944205D14A680E4C2240FC
:10193000446C22434A601B0606D502680B49536873
:101940000B40816C0B43536030BDC046FFFFFDFF71
:10195000FFFFFEFFFFFFFBFFFF7FFFFFFFEFFFFF2C
:10196000FFDFFFFFFFFFEFFFFFFF9FFFFFFFF7FF1F
:1019700070B5041E01D1012070BD050069352B78BA
:10198000DBB2002B04D102006832137000F0DCFCE3
:101990002423012122682B70136820008B431360DD
:1019A000FFF7E4FE0128E6D0636A002B02D0200096
:1019B000FFF776FF23680B495A6800200A40082188
:1019C0005A609A688A439A60012219680A431A6029
:1019D00022002023E0666A3268342B701370207076
:1019E000CAE7C046FFF7FFFFF8B504000E00150078
:1019F0001F002268D36933409B1B59424B41AB42C5
:101A000001D0002018E0069B0133F3D0069B002B89
:101A100013D123680C491A6803200A401A609A6897
:101A2000A331FF318A439A60220020236932137068
:101A30005370002368342370F8BDFFF793F8069BBA
:101A4000C01B8342D5D2E4E75FFEFFFFF0B507007D
:101A500085B0039369373B7804000D00160002201F
:101A6000202B46D10138002943D0002A41D08023C1
:101A7000A2685B019A4204D12369002B01D1014283
:101A800037D1230068331A780220012A31D001228D
:101A90001A700023E36621333B70FFF763F82300DD
:101AA00050331E805E8080260290760121005231E4
:101AB0000A8892B2002A0DD1039B40210093200096
:101AC000029BFFF791FF002812D1202368343B705E
:101AD00020700EE00B880022013B9BB20B80039B21
:101AE000802100932000029BFFF77EFF002802D098
:101AF000032005B0F0BDA3682268B34208D1236972
:101B0000002B05D12B880235DB05DB0D1385CDE7D6
:101B10002B7801351385C9E7802110B50022090112
:101B20001648FFF7BFF9F520400000F0CBFB8021FD
:101B3000012209011148FFF7B5F9462000F0C2FB68
:101B400080210E480901FFF7A7F98021040009014F
:101B50000A48FFF7A1F9020001280CD190202021AA
:101B6000C005FFF79FF9FA20400000F0ABFB601EB4
:101B70008441E0B210BD0022F0E7C04600040048F6
:101B800070B580250E4C2D01290000222000FFF7A2
:101B900089F9022000F096FB012229002000FFF7BE
:101BA00081F90D2000F08EFB29002000FFF774F969
:101BB00004002D2000F086FB601E8441E0B270BD61
:101BC0000004004870B500252C00FFF7D9FFA8409D
:101BD00001352418E4B2082DF7D1200070BD0000B3
:101BE000802110B50022040009010B48FFF75AF9C3
:101BF0000320002C00D13E3000F064FB8021064819
:101C000001220901FFF74EF94120002C00D13E3896
:101C100000F058FB10BDC0460004004870B5060037
:101C200000240125300020412840FFF7D9FF01346E
:101C3000052000F047FB082CF4D170BDF7B5334BFD
:101C400001901B78002B04D1FFF766FFF020FFF70F
:101C5000E5FF012700263D000096FFF791FF0400F5
:101C6000FFF78EFF012C1AD1012833D1284B402DCC
:101C700044D96A4612781A70009A002A02D1234980
:101C800001320A70234A1178002937D00023D15C31
:101C90000198C1540133082BF9D1012034E01D4BC8
:101CA00084420FD11A4A1478A5420FD29C5D3C4061
:101CB000621E9441E4B2002C0CD10095082D01D88D
:101CC000154A15709A5DBA439A5508E02C1B62427A
:101CD0005441EFE701240F4A935D3B4393557F0046
:101CE00020000135FFB2FFF77BFFEDB2002F02D1DC
:101CF0000136F6B20137072EAFD9B7E700201870CA
:101D0000024B1870044B1870FEBDC046E100002065
:101D1000E2000020D8000020E0000020F7B50825F0
:101D2000002825D1FFF7F8FE041E02D00124200070
:101D3000FEBDCC20FFF772FF4E20FFF76FFF64203F
:101D4000FFF76CFF9E20FFF769FF7F20FFF766FF1C
:101D5000EDE720781C4B0130C0B220700138C00084
:101D6000181808226946013D00F038FC002D05D006
:101D70006846FFF763FF154C0028EAD10126237857
:101D80009E4201DD0024D2E7FFF7C6FE051ECDD13D
:101D90005520FFF743FFF700EB190B4A083BD05CD7
:101DA0000135FFF73BFF082DF6D14E20FFF736FF38
:101DB0006420FFF733FF9E20FFF730FF7F20FFF7FF
:101DC0002DFF0136DBE7C04688000020EC00002034
:101DD00070B504000D00FFF79FFE002C06D1CC204B
:101DE000FFF71CFF4420FFF719FF70BD5520FFF7D8
:101DF00015FF0024ED006319044A083BD05C013450
:101E0000FFF70CFF082CF6D1ECE7C0468800002055
:101E100070B505000C001600FFF77EFE002D0ED1F8
:101E2000CC20FFF7FBFEBE202500FFF7F7FE0835AC
:101E3000FFF7C8FE20700134A542F9D170BD5520CE
:101E4000FFF7ECFE0025F600AB19044A083BD05C16
:101E50000135FFF7E3FE082DF6D1E4E78800002006
:101E60000005C00F704770B504004005400EFEF736
:101E70008FFD051C0F202040FEF78AFDF621890505
:101E8000FEF766FC291CFEF7D1FA70BD70B510266E
:101E900094B03022002108A800F0A9FB32000021F4
:101EA000684600F0A4FB3200002104A800F09FFB6C
:101EB000A023022401259B0308A8089410941293E0
:101EC0000B950C96FEF7F4FF0723019400242900DC
:101ED0006846009302940394FFF7FEF904A8049562
:101EE0000694FFF7A5FA14B070BD0000F0B595B0E8
:101EF000FEF720FEFFF7CAFF142200210FA800F012
:101F000076FB8021D34D09036A6990260A436A61F2
:101F10006B6990200B4080210B930B9B6A69C9036E
:101F20000A436A616B6980270B4080210C930C9BEC
:101F30006A6989020A436A616B6976000B408021F5
:101F40000D930D9B6A69C9020A436A616B693F017F
:101F50000B400E9331000022C0050E9BFEF7A2FF3E
:101F600000223900BC48FEF79DFF802300249B011E
:101F70000F93BA4B0FA9BA4810931194FEF7DCFEE9
:101F800090200F96203EFF3E0FA9C0051194129499
:101F90001096FEF7D1FE11230FA91093AE480E3B09
:101FA0000F9711941293FEF7C7FE6B69220033431B
:101FB0006B616B69210033400F930A200F9BFEF782
:101FC000E7FD0A20FEF714FEA648A74B0C27036086
:101FD00096239B0143608460C4600461476184610F
:101FE000C46104624462FFF7C3FCA04DA04B28000B
:101FF0002B6096231B026B60AC60EC602C616F6100
:10200000AC61EC612C626C62FFF7B2FC994F9A4BA9
:1020100038003B602F237B60263BFB60BC60BC61CB
:10202000FFF786FB3800FFF787FA3000FFF776FEF0
:10203000924C934B020018709249200000F0E0FA95
:102040002000FEF761F8802382B25B0121002800A6
:10205000FFF7FCFC8C4B8D491A78200000F0D0FA79
:102060002000FEF751F8802382B25B012100280096
:10207000FFF7ECFC864B1E70854E834B32781B7845
:10208000934216D2012737707F4B31781B788B42F1
:1020900000D384E0C8208000FEF76AFD37707A4BD9
:1020A00032781B78934200D380E09620FEF760FDE3
:1020B000E9E7724C7749200000F0A2FA2000FEF711
:1020C00023F88023694F82B25B0121003800FFF7BB
:1020D000BDFC3278704D013AD200A918C8794B780E
:1020E000525D0590887904904879039008790290B0
:1020F000C8780190897820000091684900F080FA42
:102100002000FEF701F8802382B25B012100380035
:10211000FFF79CFC33786249013BDB005A5D2000ED
:1021200000F06EFA2000FDF7EFFF802382B25B0122
:1021300021003800FFF78AFC31780139C90069189D
:1021400048784B798A79039088780290C878019012
:10215000097920000091534900F052FA2000FDF760
:10216000D3FF802382B25B0121003800FFF76EFCB1
:1021700033784D49013BDB00ED18EA79200000F08F
:102180003FFA2000FDF7C0FF802382B25B012100EF
:102190003800FFF75BFC3378013333706CE73800AD
:1021A000FFF716FE3378013333706DE73F4C38008C
:1021B0002100FFF72DFEE179237832780691A1798D
:1021C0002E4D059161792800049121790391E178E0
:1021D0000291A178019161780091354900F010FADF
:1021E0002800FDF791FF802382B25B0129001D4882
:1021F000FFF72CFC637820781B022E4C18432080BC
:10220000FFF72EFE2C4B2D22002800D12B222088F8
:102210001A70FFF728FE294B25881860264B174CAB
:102220001B780993FEF704FC099B009001912A009A
:102230002349200000F0E4F92000FDF765FF80232A
:1022400082B25B0121000748FFF700FC33780133BD
:10225000337024E700100240000400480000211001
:10226000000800487C010020003801406C0200207A
:10227000004400402C02002000100040ED0100202E
:10228000E4020020AC2E0008EC000020BE2E000866
:1022900078010020CE2E000888000020DA2E0008E9
:1022A0000D2F0008232F00084A2F0008DC02002011
:1022B000582F0008E4000020EC010020E800002076
:1022C000902F000810B50A21FDF7C4FF024B1860DB
:1022D0001A68002AFCD110BD84000020704700005D
:1022E00001200A4B82B099690143996180219A6962
:1022F000490502400092009ADA690A43DA61DB6913
:102300000B400193019B02B07047C0460010024091
:1023100007B50B4B02689A4210D11020094AD169C7
:102320000143D161D36900220340019301301100C0
:10233000019BFEF72DFC1120FEF75AFC07BDC0469D
:10234000001000400010024030B505008BB0142290
:10235000002105A800F04BF92B68384A93424DD173
:102360008020374BC00199690143996180219A69A6
:10237000890202400192019A5A6990200A435A61E7
:102380005B69C0050B400293029BC023DB000593F1
:10239000022306930133089305A9023B0993FEF734
:1023A000CBFC284C284B8022236000232000636054
:1023B000A360E26023616361A361E361FEF73CFC1B
:1023C000002801D0FFF78AFF204B6C666562204C25
:1023D000802223601023636000232000A360E2605A
:1023E00023616361A361E361FEF726FC002801D04D
:1023F000FFF774FF2C6665620BB030BD154A93423F
:10240000FAD180220E4B9202D96990201143D961F2
:10241000D969C00511400391039959691143596164
:102420005B6905A91A400492049B0C2305930A3B9F
:102430000693013B0993FEF77FFCDDE7003801407E
:102440000010024034010020300002401C00024015
:10245000F0000020004400407047FEE770477047DE
:1024600010B5FEF777FB10BD10B50348FEF71AFC58
:102470000248FEF717FC10BDF000002034010020D8
:1024800010B50548FFF767F8044B1A68002A02DD0B
:102490001A68013A1A6010BD2C0200208400002046
:1024A0000A4B10B519680200002901D108491960CA
:1024B0006946186882188A4206D900F065F80C232C
:1024C00003600120404210BD1A60FCE7C8000020F4
:1024D000EC0200200121114B11481A680A431A60CE
:1024E0005A6802405A601A680E4802401A601A6818
:1024F0000D4802401A605A680C4802400F205A608A
:10250000DA6A8243DA621A6B094802401A635A6B2C
:102510008A435A6300229A607047C0460010024006
:102520000CB8FF08FFFFF6FEFFFFFBFFFFFFC0FF39
:10253000ECFEFFFF0D4885460D480E490E4A00236C
:1025400002E0D458C4500433C4188C42F9D30B4A67
:102550000B4C002301E013600432A242FBD3FFF7CF
:10256000B9FF00F017F8FFF7C1FCFEE700200020DC
:1025700000000020680000200030000868000020F3
:10258000EC020020FEE70000014B18687047C046CF
:102590000400002070B500260C4D0D4C641BA410E7
:1025A000A64209D1002600F043FC0A4D0A4C641BE8
:1025B000A410A64205D170BDB300EB589847013670
:1025C000EEE7B300EB5898470136F2E7F82F000822
:1025D000F82F0008F82F0008FC2F0008002310B582
:1025E0009A4200D110BDCC5CC4540133F8E703001B
:1025F0008218934200D1704719700133F9E7000047
:102600000EB410B59DB002A9029008610B48822457
:1026100088604861012040421FABC881084804CB54
:10262000A400006801938C8100F06EF80023029AE8
:1026300013701DB010BC08BC03B01847FFFFFF7F2C
:1026400004000020F0B58E6885B007000C000392EE
:1026500001939E4239D890238A89DB001A4234D0F4
:102660000325096923685B1A0293636902985D4335
:10267000EB0F5D19019B6D1001331B18AB4200D9A4
:102680001D00530532D52900380000F031FB061E2D
:1026900009D10C233B6040230120A289404213430F
:1026A000A38105B0F0BD029A2169FFF797FFA389C6
:1026B000144A1A4080231343A381029B2661F61813
:1026C00026606561019EED1AA560019BB34200D2B0
:1026D0001E0032000399206800F0ADFAA3680020C4
:1026E0009B1BA36023689E192660DAE72A00380046
:1026F00000F05CFB061EE0D12169380000F0AEFA64
:10270000C7E7C0467FFBFFFFF0B59FB0029005937F
:102710008B890F0016001B0611D50B69002B0ED1FB
:10272000402100F0E5FA38603861002805D10C231B
:10273000029A013813601FB0F0BD40237B61002373
:1027400006AD6B6120336B761033AB7634002378A3
:10275000002B47D1A31B04930DD0A31B32003900DB
:102760000298FFF76FFF431C00D1B5E06A69049B34
:10277000944663446B612378002B00D1ACE00122C6
:10278000002352426A6002A95432521801342B606D
:10279000EB60AB601370AB65584E052221783000BA
:1027A00000F03EFA621C002820D12968CB0604D52F
:1027B000532302AE20309B1918700B0704D5532306
:1027C0002B2002AE9B19187023782A2B16D00020DC
:1027D0000A21099B2278303A092A55D9002815D0B8
:1027E000099313E0252BB5D00134B0E70123801BFA
:1027F0008340296814000B432B60CDE7059B181D0F
:102800001B680590002B39DB0993140023782E2BCD
:102810000BD16378621C2A2B3ED1059B02341A1D12
:102820001B680592002B34DB0793354E2178032279
:10283000300000F0F5F9002806D04023801B8340CB
:102840002A68013413432B60217806222D48661C28
:10285000297600F0E5F9002846D02B4B002B2FD12C
:102860002968059B0722C90528D59B18934308337F
:1028700005936B69039A9B186B6167E75B42EB609A
:1028800002230B432B60C0E74B4301349B1801200C
:10289000A0E701235B42C7E7002314000A201A00C7
:1028A0006B6021783039092903D9002BBDD00792FC
:1028B000BBE74243013452180123F2E70733D5E75F
:1028C00005AB00933A00114B2900029800E000BFCD
:1028D0000390039B0133CCD1BB890B985B0600D4DA
:1028E00029E70120404226E705AB00933A00074B59
:1028F0002900029800F07AF8EAE7C046C32F0008E2
:10290000C92F0008CD2F0008000000004526000850
:10291000F7B5150001938A680B6900900C0093428B
:1029200000DA130022002B6043321278002A01D013
:1029300001332B6023689B0602D52B6802332B6082
:10294000062723681F4027D0230043331B785A1ED5
:1029500093412268920630D42200019943320098B4
:10296000089EB047431C25D0062320682A68E168EA
:1029700003400025042B03D18D1AEB43DB171D40C8
:10298000A3682269934201DD9B1AED180027BD421E
:1029900020D1002010E00137E3682A689B1A9F428B
:1029A000D2DA22000123193201990098089EB0471B
:1029B000431CF0D101204042FEBD3020E1184331DC
:1029C000087021005A1C45310978A218433202339D
:1029D0001170C1E7220001231A3201990098089E64
:1029E000B047431CE6D00137D1E70000F0B58BB00B
:1029F00006920A0043320793059004920A7E0C0067
:102A0000109B6E2A00D18FE017D8632A2CD008D8EB
:102A1000002A00D199E0582A54D02600423632705C
:102A200029E0642A01D0692AF7D121681A680806CA
:102A300023D5111D1960156825E0732A00D188E09F
:102A400008D86F2A29D0702AE7D1202209680A43C2
:102A5000226003E0752A20D0782ADED12200782176
:102A6000453211706C4A30E00E001A684236111D72
:102A7000196013683370012379E04906D9D5111D17
:102A800019600023D55E002D03DA2D23049A6D42D0
:102A90001370624B0A2703932FE02068196805061C
:102AA00003D5081D18600D6805E04006F9D50D68CE
:102AB000081D1860ADB2594B082703936F2A18D030
:102AC0000A2716E045310A70544A03921A682168B1
:102AD000101D18601568080622D5CB0702D52023E3
:102AE000194321601027002D03D1202322689A4327
:102AF00022602300002243331A706368A360002B16
:102B00005CDB0422216891432160002D58D1049E92
:102B1000002B64D02600039B42361B7833705EE0A6
:102B20004806DAD5ADB2D8E709681A68080605D5AF
:102B3000111D1960136862691A6006E04906F7D52D
:102B4000111D19601368A28A1A800023049E236154
:102B500054E01A68111D196016680021626830007F
:102B600000F05EF8002801D0801B6060636823617C
:102B70000023049A137041E02369320006990598F6
:102B8000079DA847431C43D0236800259B070FD40B
:102B9000099BE06898423DDA18003BE022000123DF
:102BA000193206990598079EB047431C30D001356D
:102BB000E368099A9B1A9D42F0DBE9E7002DA9D052
:102BC000049E28003900FDF741FB039B013E5B5C3E
:102BD000280033703900FDF7B3FA051EF1D1082F34
:102BE00009D12368DB0706D563682269934202DCBA
:102BF0003023013E3370049B9B1B2361079B09AA72
:102C000000932100069B0598FFF782FE431CB3D179
:102C1000012040420BB0F0BDE52F0008D42F000882
:102C2000C9B28218904201D10020704703788B42CC
:102C3000FBD00130F6E710B5884202D98B189842D4
:102C400008D300239A4207D0CC5CC4540133F9E77F
:102C50008B5C8354013AFBD210BD000070B50500B7
:102C6000002910D00C1F2368002B00DAE41828007C
:102C700000F0D4F81D4A1368002B05D1636014607E
:102C8000280000F0CCF870BDA34209D92168601873
:102C90008342F3D118685B6841182160EEE71300A6
:102CA0005A68002A01D0A242F9D919685818A042DE
:102CB0000BD120680918581819608242E0D11068B9
:102CC0005268411819605A60DAE7A04202D90C2311
:102CD0002B60D5E721686018824203D110685268E2
:102CE0004118216062605C60CAE7C046CC000020E9
:102CF000032370B5CD1C9D43083506000C2D1ED254
:102D00000C25A9421DD8300000F088F8254A146827
:102D10002100002919D1244C2368002B03D1300055
:102D200000F06AF820602900300000F065F8431CCC
:102D30002CD10C233000336000F071F803E0002D3B
:102D4000DFDA0C233360002070BD0B685B1B1AD4E4
:102D50000B2B03D90B60CC18256003E08C420ED1FD
:102D600063681360300000F05AF8200007220B302F
:102D7000231D9043C31AE7D05A42E250E4E74B6860
:102D800063600C00EEE70C004968C2E70323C41C33
:102D90009C43A042E0D0211A300000F02DF8431CE3
:102DA000DAD1C6E7CC000020D0000020F8B507003B
:102DB0000D001600002905D11100FFF799FF04004E
:102DC0002000F8BD002A03D1FFF748FF3400F7E7E1
:102DD00000F026F82C008642F2D931003800FFF7C7
:102DE00087FF041EECD029003200FFF7F7FB290013
:102DF0003800FFF733FFE3E7002370B5064C05000A
:102E000008002360FFF74CFB431C03D12368002B11
:102E100000D02B6070BDC046E802002070477047AC
:102E20000B1F1B68181F002B01DA0B58C0187047C6
:102E3000F8B5C046F8BC08BC9E467047F8B5C04619
:082E4000F8BC08BC9E46704777
:102E480002030405060708090A0B0C0D0E0F1010E3
:102E58000102030405060708090A0B0C0D0E0F10E2
:102E68007C080008CC070008CC070008CA0700083F
:102E78006E0800086E08000864080008CA07000801
:102E88006E080008640800086E080008CA070008F1
:102E98007408000874080008740800080409000889
:102EA80000040802496E6974205374617475733A9A
:102EB8002025640D0A0044657620636F756E743AA8
:102EC8002025640D0A004465766963652025640D34
:102ED8000A00524F4D205241573A2025303258208F
:102EE80025303258202530325820253032582025B8
:102EF800303258202530325820253032582025309D
:102F080032580D0A0046616D696C7920434F44457B
:102F18003A203078253032580D0A00524F4D204360
:102F28004F44453A203078253032582530325825DC
:102F38003032582530325825303258253032580D25
:102F48000A004352433A203078253032580D0A009F
:102F58005354524154485041442025643A20253066
:102F6800325820253032582025303258202530322A
:102F780058202530325820253032582025303258F4
:102F880020253032583B200052617720743A203097
:102F980078253034583B20743A202563252E326634
:102FA8000D0A0000000000000000000102030406F2
:102FB8000708090000000001020304232D302B201C
:102FC80000686C4C0065666745464700303132330F
:102FD800343536373839414243444546003031327A
:102FE800333435363738396162636465660000000A
:042FF800E9000008E4
:042FFC00C100000808
:1030000000127A000800002000000000000000000C
:1030100000000000000000000000000000000000B0
:1030200000000000000000000000000000000000A0
:103030000000000000000000000000000000000090
:103040000000000000000000000000000000000080
:103050000000000000000000000000000000000070
:08306000000000000000000068
:040000050800253595
:00000001FF
