:020000040800F2
:1000000078050020C90000086113000805120008E7
:1000100000000000000000000000000000000000E0
:10002000000000000000000000000000AB1300080A
:100030000000000000000000A9130008651500087A
:10004000DB00000800000000DB000008DB00000807
:10005000DB000008DB000008DB000008DB00000814
:1000600000000000DB000008DB000008DB000008E7
:1000700059010008DB000008DB0000080000000058
:10008000DB000008911600080000000019160008A7
:10009000DB000008DB000008DB000008DB000008D4
:1000A000DB000008DB000008DB000008DB000008C4
:1000B000DB0000080348854600F03CF80048004794
:1000C000BD1900087805002004488047044800470F
:1000D000FEE7FEE7FEE7FEE7FEE7FEE7BD150008E8
:1000E000B500000830B50B4601460020202201244F
:1000F00009E00D46D5409D4205D31D469540491B5C
:100100002546954040191546521E002DF1DC30BDA4
:10011000D2B201E00270401C491EFBD2704700229F
:10012000F6E710B513460A4604461946FFF7F0FFF6
:10013000204610BD064C0125064E05E0E36807CCBD
:100140002B430C3C98471034B442F7D3FFF7B6FF6B
:10015000381A0008581A000810B5024800F02FF9A4
:1001600010BD00003C00002070B5044600688168A6
:10017000490720D5816810264907002905DA8168DA
:10018000890702D481683143816000F0CFFB0546C6
:100190000DE000F0CBFB401B022808D9606C304317
:1001A0006064A06C01210843A064084670BD20680B
:1001B00080684007EDD4002070BDF8B504460068A3
:1001C00081688907890F012928D10168C90702D1EF
:1001D000C168090422D58168052211401025012635
:1001E00001290FD181680222114381602168032017
:1001F000086000F09BFB07460CE000F097FBC01B7B
:10020000022807D9606C28436064A06C3043A06466
:100210000120F8BD20688068C007EED10020F8BD3D
:10022000F8B5044600200090206881688907890F8E
:10023000012905D10168C9072CD1C168090429D455
:100240008168154A102611400125002915D18168C1
:1002500029438160124811490068FFF743FF00E01D
:10026000401E00900028FBD100F060FB07460CE028
:1002700000F05CFBC01B022807D9606C304360644F
:10028000A06C2843A0640120F8BD20680068C0432A
:10029000C007EDD10020F8BD1700008040420F00DC
:1002A00038000020F8B50025044640340095227837
:1002B000012A39D00122227003689E68760767D42C
:1002C000384F4E68BE424DD09E6A0F78BA401643F2
:1002D0009E620123826B1B079A421FD0012A1DD008
:1002E000022A1BD0032A19D0042A17D0052A15D0B8
:1002F000062A13D0072A11D002688B685669760740
:10030000760FB3420AD05369DB08DB005361006803
:1003100042690B7A5B075B0F1A4342610A68102A35
:1003200004D0112A02D038E00220F8BD1E488368AC
:10033000102A07D001229205134383600868102811
:1003400003D02AE00122D205F6E7194817490068D0
:10035000FFF7C8FE0A21484300E0401E0090002835
:10036000FBD11AE0986A0E78B2409043986209680F
:10037000102901D0112910D10B488268102904D00E
:10038000012189058A43826007E00121C905F9E757
:10039000416C202211434164012500202070284631
:1003A000F8BD0000011000000027014040420F008E
:1003B00038000020704770470068006C704770B5C7
:1003C000044600680168490702D54168490705D419
:1003D0000168090730D5416809072DD5616CC90648
:1003E00004D4616C0122520211436164C1680C257E
:1003F0000905890F00291AD1216A002917D101683E
:10040000090714D581684A070121002A08DB4268E0
:10041000AA434260606C0A0290430843606406E0AD
:10042000606C202210436064A06C0843A0642046E6
:10043000FFF7C0FF206805602068016809060DD538
:10044000406800060AD5606C012109040843606415
:10045000204600F0D7F821688020086020680168F5
:10046000C90613D54168C90610D5616B102501294D
:1004700002D0C168C90707D0A16C02221143A16450
:1004800005602046FFF797FF2068056070BD0000FB
:10049000F8B500250446002803D0606C002802D07F
:1004A00008E00120F8BD0020A06440210855204646
:1004B00000F0AAF8606C1022C006002870DB2068EB
:1004C000816849076CD4616C130199430223194375
:1004D000616481688907890F012905D10168C9070D
:1004E0000FD1C16809040CD4C16818239943A368CB
:1004F0001943C1602068016963688900890819434C
:1005000001612068C1683D4B1940C160A069E16983
:100510008003C9030843216A4B031843636B012B13
:1005200002D001231B0300E000231843E3681843B3
:100530002369022B09D000231843236B666A5B00F2
:1005400018430123012E02D00AE00423F4E7002916
:1005500027D0616C202631436164A16C1943A164EA
:10056000A16A0E46FF3EC23E02D0E66A314308430E
:100570002168CE680643CE600126A16B3607B142E2
:1005800013D0012911D002290FD003290DD004293D
:100590000BD0052909D0062907D0072905D010E07E
:1005A00028E0012109040843DAE721684E69F608CA
:1005B000F6004E6121684E69278F7F077F0F3E430B
:1005C0004E612168C9680E4E3140814207D100203A
:1005D000A064606C80088000401C606408E0606C6F
:1005E0000221884310436064A06C1843A064012575
:1005F0002846F8BD606C10436064F8E71902FEFFFE
:10060000E7FF3F837047000010B586B00446142111
:100610006846FFF784FD14492068884221D11348B9
:10062000826941150A43826182690A4005924269E2
:1006300009020A4342614069084005900120009088
:10064000032001900020029009206946C00600F0B6
:10065000BDF8002211460C2000F0B6F90C2000F085
:10066000A9F906B010BD00000024014000100240AE
:10067000F8B504464069254640350E4608280BD09B
:100680002068C068C00709D0606C202108436064FE
:10069000002028700120F8BD082700E00C2700F09A
:1006A00045F9009011E0701C0FD0002E05D000F02D
:1006B0003DF90099401AB04207D9606C0421084303
:1006C0006064002028700320F8BD2068006838426C
:1006D000E9D0606C01214902084360642068C16868
:1006E00009058A0F0C21002A1AD1226A002A17D183
:1006F0000268120714D5826853070122002B08DB19
:1007000043688B434360606C1302984310436064FA
:1007100006E0606C202318436064A06C1043A06462
:10072000A069002801D1206801600020F8BD000008
:1007300070B50446216800208968490721D4254600
:100740004035297801291CD001212970E16901294E
:1007500004D02046FFF764FD002811D1616C0A4ADD
:100760001140FF220132114361640021A16429700C
:1007700022681C21116021688A6804231A438A6058
:1007800070BD022070BD0000FEF1FFFF70B5054690
:10079000044640352878012807D001262E702046CF
:1007A000FFF7E2FC002802D00CE0022070BD2046DA
:1007B000FFF703FD002805D1616CFF220132914350
:1007C000314361640021297070BD0000F8B5002339
:1007D0008DE001249C40A44622407DD04C68022C30
:1007E00001D0122C0CD1DC08A40027183C6A5D074C
:1007F000ED0E0F26AE40B4430E69AE4026433E6276
:1008000005685E000324B4400F79A543BF07BF0FFE
:10081000B7402F4307604D68012D05D0022D03D04E
:10082000112D01D0122D0ED18568CF68A543B74098
:100830002F43876047686546AF430D79ED06ED0F9E
:100840009D403D434560C568A5438C68B4402C433A
:10085000C4604C68E40049D5284CA569012635439D
:10086000A561A4699D0834400094254CAD002F1962
:10087000BC689D072E0F0F25B540AC430925ED063A
:10088000A84201D100250FE01E4DA84201D101254B
:100890000AE01D4DA84201D1022505E01B4DA842EA
:1008A00001D1032500E00525B5402543BD60184C66
:1008B00025684E689543F60300D5154325606568A5
:1008C0004E689543B60300D515436560A5684E682C
:1008D0009543F60202D500E008E01543A560E568FF
:1008E0004E689543B60200D51543E5605B1C0A6867
:1008F0001446DC4000D06CE7F8BD00000010024058
:10090000000001400004004800080048000C0048B6
:10091000000401400069084000D001207047002A0F
:1009200001D0816170478162704700000148006812
:10093000704700003400002002480168491C016033
:10094000704700003400002010B5064801681022EE
:1009500011430160002000F007F800F017F80020B4
:1009600010BD00000020024010B5044600F0C6F89B
:100970007D21C900FFF7B6FB00F0BCFA002221463A
:10098000501E00F021F8002010BD000008B50848F6
:100990008169012211438161816911400091C2691D
:1009A00001040A43C261C0690840009008BD00000C
:1009B00000100240C106C90E0120884001490860AC
:1009C0007047000000E100E010B500F0CBFC10BD66
:1009D000F8B5054644480E460068C007C00FB0424F
:1009E0000AD2414801684908490031430160006862
:1009F000C007C00FB0425CD128783C4C800705D5B9
:100A00006068F0218843A968084360602878C007BF
:100A10003FD06868012813D02168022813D08907C5
:100A2000002946DA61688908890001436160FFF79F
:100A30007DFF6968074601290DD0022917D024E0FF
:100A400021688903ECE78901EAE7FFF76FFFC11B23
:100A50002748814217D860680007800F0128F4D129
:100A600017E0FFF763FFC11B214881420BD8606884
:100A70000007800F0228F4D10BE0FFF757FFC11BDE
:100A80001B48814201D90320F8BD60680007800F30
:100A9000F3D115480168C907C90FB1420BD90168E4
:100AA00049084900314301600068C007C00FB042E7
:100AB00001D00120F8BD2878400706D560680721DD
:100AC00009028843E9680843606000F02DF8616816
:100AD000084A0906090F515CC84007490860002010
:100AE000FFF742FF0020F8BD002002400010024046
:100AF00088130000201A0008380000200148006810
:100B00007047000038000020044805490068496823
:100B1000044A4905490F515CC8407047380000201D
:100B200000100240301A000810B512A30FCB88B095
:100B30006C460FC413A30FCB0FC416494A680C2090
:100B4000134603401448042B0FD0082B0DD19302F9
:100B50001B0F6C46E45CC96A04AB0907090F595CBA
:100B6000D20304D5FFF7BEFA604308B010BD0B48AE
:100B70006043FAE702030405060708090A0B0C0D97
:100B80000E0F10100102030405060708090A0B0CDA
:100B90000D0E0F100010024000127A0000093D00F7
:100BA000FEB504460078D04DC00747D068680007FE
:100BB000800F012807D068680007800F022809D13C
:100BC0006868C00306D52868800337D560680028A8
:100BD0007ED033E0012062680004012A11D0810038
:100BE000002A01D0052A10D02A6882432A6028688A
:100BF000884328606068002814D0FFF797FE0646F7
:100C00000CE0296801432960F4E72A680A432A6056
:100C1000F7E7FFF78BFE801B64286FD828688003F6
:100C2000F7D50BE0FFF782FE064604E0FFF77EFEF5
:100C3000801B6428F1D828688003F7D42078012627
:100C4000800700283BDA68680007800F07D06868D3
:100C50000007800F022809D16868C00306D42868FD
:100C6000800715D5E068012832D111E0E06800283E
:100C7000286815D030432860FFF758FE074604E087
:100C8000FFF754FEC01B0228C7D828688007F7D595
:100C90002868F82188432169C900084328600EE0CC
:100CA000400840002860FFF741FE074604E0FFF7D8
:100CB0003DFEC01B0228B0D828688007F7D42078F2
:100CC000000724D5E0690028686A10D0304300E0AE
:100CD00008E16862FFF72AFE074604E0FFF726FEF8
:100CE000C01B022899D8686A8007F7D50FE0400832
:100CF00040006862FFF71AFE074605E09DE0FFF737
:100D000015FEC01B022888D8686A8007F7D42078AF
:100D100004274007002860DA00200190E869C0003D
:100D200008D4E969B8060143E961E9690140012095
:100D3000009101906D480168C90511D401688215C0
:100D400011430160FFF7F2FD009005E0FFF7EEFDB3
:100D50000099401A642870D864480068C005F5D529
:100D6000A06801280AD0002801D0052810D0286AE0
:100D7000400840002862286AB84301E0286A3043EE
:100D80002862A068002812D0FFF7D0FD00900AE08A
:100D9000286A38432862F1E7FFF7C8FD0099411A35
:100DA0005348814249D8286A8007F5D50DE0FFF7FE
:100DB000BDFD009006E0FFF7B9FD0099411A4C48CF
:100DC00081423AD8286A8007F5D40198002804D0D7
:100DD000E969012000078143E9612078C00635D523
:100DE000606901280CD0401D686B23D038436863CC
:100DF000686B400840006863FFF798FD064622E0F4
:100E0000686B38436863686B30436863FFF78EFD37
:100E1000064604E0FFF78AFD801B02285BD8686B5A
:100E20008007F7D5686BF8218843A169C90008439A
:100E300068630BE0B8436863F4E74CE0FFF776FDC6
:100E4000801B022847D8686B8007F7D4206A0028E7
:100E500046D069680907890F022943D00126360662
:100E60000228286805D0B0432860FFF75FFD0446DC
:100E700033E0B0432860FFF759FD074604E0FFF771
:100E800055FDC01B022826D828688001F7D4E86ADF
:100E9000E16A000900010843E862616AA06A084348
:100EA00069683D2212049143084368602868304312
:100EB0002860FFF73BFD044604E0FFF737FD001B09
:100EC000022808D828688001F7D509E0FFF72EFD31
:100ED000001B022801D90320FEBD28688001F5D43B
:100EE0000020FEBD0120FEBD001002400070004049
:100EF00088130000094910B5401E884201D901201D
:100F000010BD074C60610321081F00F02BFA002080
:100F1000A06107202061002010BD0000FFFFFF003E
:100F200000E000E07047704770B5040005D025462A
:100F30002035687F002802D006E0012070BD002027
:100F40002877204600F00AF802206877211D2068E3
:100F500000F0DAFB01206877002070BD08B5134A65
:100F60000168134891420DD1C26910210A43C26140
:100F7000C06900220840009011461120FFF724FDAF
:100F800011200FE00B4A91420ED1C26989150A4324
:100F9000C261C06900220840009011461320FFF78B
:100FA00013FD1320FFF706FD08BD000000100040F0
:100FB00000100240002000400268D36801210B436A
:100FC000D360006802680A430260002070477047DF
:100FD00070B50446006801690025C94389070029E6
:100FE00015DBC168C943890711D4E91E01610120DD
:100FF0002077206880698007204602D0FFF7E7FF4E
:1010000004E000F096F8204600F094F82577206878
:101010000169C943490717D4C168C943490713D4B3
:101020000421C9430161022020772068806980057E
:10103000800F204602D0FFF7CAFF04E000F079F8E5
:10104000204600F077F8257720680169C943090731
:1010500016D4C168C943090712D40821C9430161E4
:10106000042020772068C0698007204602D0FFF75F
:10107000AEFF04E000F05DF8204600F05BF8257755
:1010800020680169C943C90617D4C168C943C906A4
:1010900013D41021C9430161082020772068C0695A
:1010A0008005800F204602D0FFF791FF04E000F09A
:1010B00040F8204600F03EF8257720680169C943D2
:1010C000C90708D1C168C943C90704D1891E016194
:1010D000204600F030F820680169C943090609D4A8
:1010E000C168C943090605D48021C943016120466E
:1010F000FFF718FF20680169C943490609D4C16890
:10110000C943490605D44021C9430161204600F086
:1011100013F820680169C943890609D4C168C94325
:10112000890605D42021C94301612046FFF7FBFE53
:1011300070BD704770477047704770B5040005D0A8
:1011400025466035687A002802D006E0012070BD8F
:1011500000202872204600F027F8242068722068BA
:101160000168490849000160204600F07FFB012822
:10117000EDD0606A002802D0204600F009FB20680C
:1011800041680122D20291434160206881680822AF
:10119000914381602068016801221143016020466B
:1011A00000F05BFB70BD000010B586B00446142152
:1011B0006846FEF7B4FF1149206888421CD11048E8
:1011C000C269012149040A43C261C2690A40059209
:1011D00042690A4342614069084005900C20009032
:1011E0000220019000200290039001200490092029
:1011F0006946C006FFF7EAFA06B010BD0044004099
:1012000000100240FEE700003EB5002411491248DC
:1012100000940194029412C0046003460121042248
:101220000833446016C34461C4614462FF22816193
:10123000C23284620262C1620838FFF729F90120D4
:101240000003019000040290009469460248FFF7F1
:1012500029F83EBD002401403C000020F0B587B0D5
:1012600014216846FEF75BFF2D4842690121C9043D
:101270000A43426142690A4005924269C9000A4331
:10128000426142690A400592426949110A4342613A
:1012900042690A400592426949000A434261406935
:1012A0001925084009266D01F606059000222946F9
:1012B0003046FFF734FB1B4F002230213846FFF742
:1012C0002EFB01204003009017480024019069463E
:1012D00002941648FFF77AFA1220009001946946AA
:1012E00002943046FFF772FA009501250294694690
:1012F000304601950394FFF769FA01946946384630
:1013000000950294FFF762FA30200090029469463B
:10131000019503943846FFF759FA07B0F0BD000075
:10132000001002400004004800002110000800489E
:1013300010B50A48084901604B214902416000216B
:101340008160C16001618161C1610C220162426101
:101350004162FFF7F2FE10BD00440040080100208A
:10136000704700008307FF22DB0E9A408907090EB1
:10137000994000280BDA0007000F08388308084856
:101380009B001818C36993430B43C36170478308DC
:1013900004489B001B181868904308431860704766
:1013A00000ED00E000E400E070477047F8B5044647
:1013B0000F4600207D210090C9002046FEF792FED6
:1013C0000A21FEF78FFE6846017064212046FEF771
:1013D00089FE0A21FEF786FE684641700A212046F2
:1013E000FEF780FE0A21FEF77DFE684600240126F6
:1013F00009258170ED06FF21002201312846FFF703
:101400008EFA6846C05D41002148415A3046A040EE
:10141000014201D0002200E00122012149022846B8
:10142000FFF77DFA012211022846FFF778FA641CC3
:10143000E4B2082CDFD37E000024FF27013700220E
:1014400039462846FFF76BFA11480838815B0120BE
:10145000A040014201D0012200E000220121490206
:101460002846FFF75CFA012239462846FFF757FA6B
:10147000641CE4B2082CE2D3064C01222021204651
:10148000FFF74DFA002220212046FFF748FAF8BD69
:101490000A00002000040048F8B52FA000680025CD
:1014A00001272E4C3E020090092000223146C00642
:1014B000FFF735FA21786846405C410027480A303A
:1014C000415A3846A840014201D0002200E00122E2
:1014D000012109204902C006FFF721FA0920012253
:1014E0003146C006FFF71BFA6D1CEDB2082DDBD3A9
:1014F00000250927FF06002231463846FFF70FFA7C
:10150000207841001548801C425A0120A840024022
:1015100000D00122012149023846FFF700FA0122DA
:1015200031463846FFF7FBF96D1CEDB2082DE2D3CA
:101530000B4D012220212846FFF7F1F9002220213E
:101540002846FFF7ECF92078401CC0B22070042830
:1015500001D300202070F8BD0A0B0C0A0000002007
:101560000004004810B5FFF7E7F910BD30B591B0A1
:1015700030216846FEF7D3FD002412200F9400901E
:1015800001200D940390059010200E940490069075
:101590000520C00402250A900C94089509940B9428
:1015A0006846FFF7FDFA07200C900E9401210D9577
:1015B0000F940CA8FFF70CFA11B030BD1348016866
:1015C0000122114301604168114A114041600168E4
:1015D000104A1140016001680122920491430160A8
:1015E00041683F22120491434160C16A090909011F
:1015F000C162016BFF22143291430163416B4908C0
:1016000049004163002181607047000000100240E2
:101610000CB8FF08FFFFF6FE70B51648FFF7D8FCC0
:101620001548FFF785F864211348FFF721F81248A1
:10163000FEF7C2FE410040181049114C401880B21C
:1016400010496080884201D30F4860800F4D01220D
:1016500010212846FFF763F90021628801E0491C48
:1016600089B29142FBD3002210212846FFF757F997
:1016700070BD0000C80000203C000020D80E000013
:101680002E000020B83D0000704900000004004812
:1016900070B51948FFF79CFC0925ED060221284684
:1016A000FFF738F9154C002805D01548FEF784FEE1
:1016B0002178FFF77BFE02212846FFF72BF900284F
:1016C0000BD010212846FFF725F9002805D001216D
:1016D0000C48FFF71FF9002801D1FFF7DDFE08488D
:1016E000FFF754F82078401CC0B22070042801D3C2
:1016F0000020207070BD0000880000202E00002017
:101700003C00002000040048F0B502681A4B1B4C56
:10171000984201D0A04203D17025AA434D682A43C4
:10172000174D184E184F98420AD0A04208D0174CB7
:10173000A04205D0A84203D0B04201D0B84205D1A2
:101740001446032212029443CA6822438024A2430F
:101750004C69224302608A68C2620A6882629842C7
:1017600005D0A84203D0B04201D0B84201D10969E6
:10177000016301214161F0BD002C014000040040E3
:10178000004001400044014000480140002000406A
:1017900010B5818CC90707D001684A6801235B0432
:1017A0009A43836A1A434A60818C890707D5016886
:1017B0004A6801231B049A43C36A1A434A60818C16
:1017C000490707D501684A6801239B049A43036BC4
:1017D0001A434A60818C090707D501684A680123CA
:1017E000DB039A43436B1A434A60818CC90607D5D1
:1017F0000268916801231B039943836B194391602D
:10180000818C890607D501688A6801235B039A43A6
:10181000C36B1A438A60818C490612D503685A68E3
:1018200001210905046C8A4322435A60026C8A42F2
:1018300007D10268516803235B059943436C194340
:101840005160818C090607D501684A680123DB04D1
:10185000806C9A4302434A6010BD0021C166202279
:10186000603042728272017208467047F8B50446D1
:101870002369A268E5691A43636910202B4300219C
:1018800025681A432B680E463E4F3B4013432B609E
:1018900023685A6803252D03AA43E5682A435A6042
:1018A000236AA26925681A43AB680B273F02BB4332
:1018B0001343AB60344A2568954210D1334A126B0A
:1018C0009207920F0ED0012A05D0022A05D0032AD2
:1018D00009D1022007E0042005E0082003E02C4A9B
:1018E000954200D100200122E369D203934224D122
:1018F00000280CD002280DD0042813D0082817D0B7
:1019000001260A0912010807400F10432FE0FFF7D4
:10191000FBF809E061681F4A48088018FEF7E2FBFF
:1019200081B2EEE7FFF700F9616840004A08F4E78A
:101930006168012248081204EFE7002808D0022855
:1019400009D004280BD0082814D001263046F8BD51
:10195000FFF7DAF805E061680F4A48080CE0FFF786
:10196000E3F861684A088018FEF7BCFB80B2216882
:10197000C860EBE7616848088018FEF7B3FB80B2E7
:10198000E860E3E7F369FFFF003801400010024020
:10199000004400400024F40000127A0002E008C86D
:1019A000121F08C1002AFAD170477047002001E0D9
:1019B00001C1121F002AFBD170470000FEF7C4FFCF
:1019C000FFF7D4FDFFF74AFC124811490024124DDD
:1019D000846022C00121046141600838FFF7A4FA45
:1019E000FFF7A6FCFFF710FC0A480C494030846062
:1019F00022C084601421046141600838FFF794FA22
:101A00000448FFF7D9FA03484030FFF7D5FAFEE75C
:101A100000100040880000207FBB00000020004034
:101A2000000000000000000001020304060708098E
:101A30000000000001020304581A00080000002002
:101A40003C0000009C190008941A00083C0000208B
:101A50003C050000AC190008000080004000200098
:101A60001000FC006000DA00F2006600B600BE0064
:101A7000E000FE00F6001E009E00B600010000001F
:101A80000000000000000000000000000000000056
:041A900000127A00C6
:04000005080000B53A
:00000001FF
